:100000000C94C2020C94EA020C94EA020C946A0D5D
:100010000C94460D0C94220D0C94EA020C94EA0206
:100020000C94EA020C94EA020C94EA020C94EA02A0
:100030000C94EA020C94EA020C94EA020C94EA0290
:100040000C94FB0B0C94EA020C94EE0A0C94C80A74
:100050000C94EA020C94EA020C94EA020C94EA0270
:100060000C94EA020C94EA0207634236B79BD8A7C5
:100070001A39685618AEBAAB558C1D3CB7CC5763CD
:10008000BD6DEDFD753EF6177231BF000000803F7B
:1000900008000000BE922449123EABAAAA2ABECD97
:1000A000CCCC4C3E00000080BEABAAAAAA3E000009
:1000B0000000BF000000803F000000000008417801
:1000C000D3BB4387D1133D190E3CC3BD4282AD2B38
:1000D0003E68EC8276BED98FE1A93E4C80EFFFBE30
:1000E00001C4FF7F3F00000000000000000024006A
:1000F00027002A0000000008000201000003040796
:10010000000000000000000000C201000100050026
:1001100005000300030000E1000001000F000F00D4
:100120000D000D0000960000020019001A001700D3
:100130001700127A00000700200021001D001D009A
:10014000807000000B002300230020002000004BE3
:10015000000014003700370034003400403800003D
:100160001E004B004B0048004800E4250000310011
:10017000700071006E006E00802500003200720079
:10018000720070007000C01200006E00E900E9000B
:10019000E600E60060090000E500D801D801D501BD
:1001A000D501B0040000D301B403B403B103B1031B
:1001B00058020000B40367076707620762072C0153
:1001C00000006707DD0EDD0EDA0EDA0E20000043B8
:1001D0002D56616C7565000043656C6C73000043BF
:1001E00079636C6573006D41680043617061636998
:1001F00074790000494400524649442D53656E739A
:100200006F72002020524649442D42617474657219
:10021000790020524354204A65746920546F6F6CF2
:1002200073002020524649442D42617474657279EE
:100230000020524354204A65746920546F6F6C73D8
:10024000005072657373203C20746F206578697468
:1002500000546167205772697474656E210052659D
:10026000766F21203C20746F2065786974004927DF
:100270006D206E6F742077726974696E67004261D9
:10028000636B3A203C00536176653A2055702061DB
:100290006E6420446E005365742055702B446E20AC
:1002A0004E6578743E0043656C6C733A200053656C
:1002B000742055702F446E204E6578743E00432D97
:1002C00056616C75653A20005365742055702F4453
:1002D0006E204E6578743E004379636C65733A20F6
:1002E000005365742055702F446E204E6578743E1F
:1002F0000043617061636974793A2000536574202A
:1003000055702F446E204E6578743E00546167200E
:100310004944233A200020433A002043656C3A00C8
:100320002043793A004361703A00233A002020527A
:100330004649442D426174746572790020524354D9
:10034000204A65746920546F6F6C730041204D49D9
:1003500046415245205049434320726573706F6E89
:100360006465642077697468204E414B2E005468A0
:1003700065204352435F4120646F6573206E6F7444
:10038000206D617463682E00496E76616C6964202B
:10039000617267756D656E742E00496E7465726E5C
:1003A000616C206572726F7220696E2074686520BE
:1003B000636F64652E2053686F756C64206E6F7474
:1003C0002068617070656E2E0041206275666665FA
:1003D00072206973206E6F742062696720656E6F8A
:1003E0007567682E0054696D656F757420696E209D
:1003F000636F6D6D756E69636174696F6E2E004316
:100400006F6C6C697373696F6E2064657465637477
:1004100065642E004572726F7220696E20636F6D85
:100420006D756E69636174696F6E2E0053756363D9
:100430006573732E00556E6B6E6F776E20657272EA
:100440006F720000000000250028002B0000000053
:100450000023002600290004040404040404040208
:100460000202020202030303030303010204081051
:10047000204080010204081020010204081020001E
:10048000070E091C1B1215383F363124232A2D7004
:10049000777E796C6B6265484F464154535A5DE0F4
:1004A000E7EEE9FCFBF2F5D8DFD6D1C4C3CACD90A4
:1004B000979E998C8B8285A8AFA6A1B4B3BABDC70D
:1004C000C0C9CEDBDCD5D2FFF8F1F6E3E4EDEAB744
:1004D000B0B9BEABACA5A28F88818693949D9A27B4
:1004E00020292E3B3C35321F18111603040D0A57E4
:1004F00050595E4B4C45426F68616673747D7A89D2
:100500008E878095929B9CB1B6BFB8ADAAA3A4F983
:10051000FEF7F0E5E2EBECC1C6CFC8DDDAD3D46973
:100520006E676075727B7C51565F584D4A43441923
:100530001E171005020B0C21262F283D3A33344E8E
:1005400049404752555C5B7671787F6A6D64633EC3
:1005500039303722252C2B0601080F1A1D1413AE33
:10056000A9A0A7B2B5BCBB9691989F8A8D8483DE63
:10057000D9D0D7C2C5CCCBE6E1E8EFFAFDF4F30061
:10058000091CAC1C11241FBECFEFD8E0DEBFCDBFCD
:1005900012E0A0E0B1E0E2EBF7E402C005900D92BA
:1005A000A238B107D9F725E0A2E8B2E001C01D9258
:1005B000AA34B207E1F712E0C1ECD2E004C02197FF
:1005C000FE010E942E1DC03CD107C9F70E94821176
:1005D0000C94CC230C940000CF92DF92FF920F93E7
:1005E0001F93CF93DF931F92CDB7DEB7082F162F3F
:1005F00060E080911A0579830E94490B82E10E9494
:100600008E0DF12EC12E7981D72E8C2D8F1980174A
:1006100030F4F60181916F010E948E0DF6CF61E0FA
:1006200080911A050F90DF91CF911F910F91FF904C
:10063000DF90CF900C94490B80911F039091200381
:10064000895E9440A1F0809106058E7F8093060517
:100650008FB7F89410921E0310921D0329EE34E018
:100660003093200320931F038FBF81E0089580E023
:1006700008952F923F924F925F926F927F928F9246
:100680009F92AF92BF92CF92DF92EF92FF920F9321
:100690001F93CF93DF9300D000D0CDB7DEB72B01EF
:1006A0003C0120E030E0A9010E94712287FF05C0D3
:1006B00020E030E040E05FEB04C020E030E040E0CC
:1006C0005FE3C301B2010E94351D6B017C0120E094
:1006D00030E0A901C301B2010E94712287FF04C06A
:1006E000F7FAF094F7F8F094A12CB12C8DEC282EA9
:1006F0009CEC392E8CEC8B839DE39C8320E030E0D6
:1007000040E251E4B1018B819C810E94D7224B01D0
:100710008C01A70196010E94712218163CF0AFEFE0
:10072000AA1ABA0A14010B831C83E8CF20E030E038
:10073000A901C301B2010E94712287FF06C08DE2A8
:1007400080930D0301E010E002C000E010E0A1146E
:10075000B10439F4F801E35FFC4F80E380830F5F5D
:100760001F4F812C912CF401E00FF11FFA83E983D4
:100770008A149B04B1F191014B815C81C701B601E0
:100780000E94A11D0E94131E2B013C0169817A81E8
:10079000635F7C4F4AE0C2010E942922B201550CDE
:1007A000880B990B0E94782291014B815C810E94F9
:1007B000D7229B01AC01C701B6010E94341D6B0119
:1007C0007C0120E030E040E251E4B1018B819C816A
:1007D0000E94A11D1B018B839C83BFEF8B1A9B0A78
:1007E000C2CFE35FFC4F10828DE093E00F900F903B
:1007F0000F900F90DF91CF911F910F91FF90EF908D
:10080000DF90CF90BF90AF909F908F907F906F9030
:100810005F904F903F902F900895ADEEB2E020E0B2
:1008200040E250E15A0F21111FC0FC0134913323E3
:10083000D9F03C93119601965A13F5CF80E090E0E1
:1008400020E030E2DC01A351BD4F211110C0FB01BB
:10085000E80FF91FE491EE2351F05096EC930196C6
:100860008031910579F708954C9321E0E3CF5096BC
:100870003C9321E0F4CFCF93DF93EDEDF2E00190D4
:100880000020E9F73197ED5DF240CDEDD2E0ADEE1D
:10089000B2E080E090E28E1718F428812C9301C01A
:1008A0009C938F5F219611968031A9F7EDECF2E0D1
:1008B00001900020E9F73197ED5CF24080E090E094
:1008C00020E2DC01A351BD4F8E1738F4EC01C35375
:1008D000DD4F388150963C9302C050962C93019680
:1008E0008031910571F7DF91CF910895009769F0FC
:1008F000FC0101900020E9F73197AF01481B590B2B
:10090000BC0181E293E00C94790880E090E00895C6
:100910000F931F93CF93DF938C01C0E0D0E0F801D9
:10092000EC0FFD1F6491662371F0E0912103F091BB
:1009300022030190F081E02D81E293E00995892B5B
:1009400011F02196ECCF88EC91E00E9476048C0F98
:100950009D1FDF91CF911F910F910895CF93DF934A
:100960000E947604EC0188EC91E00E9476048C0FE2
:100970009D1FDF91CF9108950C9476040F931F93E0
:10098000CF93C82F0EE015E060E0F80184850E9447
:10099000490B8C2F8E7780680E948E0D80E00E941C
:1009A0008E0DC82F61E0F80184850E94490B8C2FC1
:1009B000CF911F910F9108950F931F93CF93DF93C2
:1009C000082F162FCEE0D5E060E08C850E94490B01
:1009D000802F8E770E948E0D812F0E948E0D61E0F8
:1009E0008C85DF91CF911F910F910C94490BCF9380
:1009F000C82F0E94BE04682F60688C2FCF910C9482
:100A0000DC04EF92FF920F931F93CF93DF937C014F
:100A1000C62F8A0160E082E00E94DC0464E08AE084
:100A20000E94DC0484E10E94F704B7018C2F0E942D
:100A3000EC0263E082E00E94DC04C8E8D3E18AE0D3
:100A40000E94BE0482FD04C02197C9F784E00FC054
:100A500060E082E00E94DC0484E40E94BE04F801AD
:100A6000808382E40E94BE04F801818381E0DF91EB
:100A7000CF911F910F91FF90EF9008952F923F9289
:100A80004F925F926F927F928F929F92AF92BF929E
:100A9000CF92DF92EF92FF920F931F93CF93DF934A
:100AA00000D01F92CDB7DEB7982E762E2A01C11442
:100AB000D10419F0F601608101C060E0662EF0E11A
:100AC000AF9E600C112460E082E02B830E94DC0466
:100AD0006FE788E00E94DC0484E10E94F704B20121
:100AE0002B81822F0E94EC02662D8AE10E94DC0499
:100AF000692D82E00E94DC048CE0981203C08AE138
:100B00000E94F70490ED492E97E0592E88E00E944C
:100B1000BE04982F972139F480FDA2C0E1E04E1A5F
:100B20005108A1F79DC08CE00E94BE04382E83714D
:100B300009F098C00115110509F45FC0E114F10432
:100B400009F45BC084E10E94BE04982EF701808105
:100B5000891508F489C09082992009F444C060E0A6
:100B600080911A050E94490B9A9482E90E948E0D89
:100B7000202E380144244394512C862D8219891546
:100B800028F581111AC0AA20C1F08A2DB12C883015
:100B900048F49201082E01C0220F0A94EAF7B22A03
:100BA0008F5FF5CF82E90E948E0D2B2D2095F801E5
:100BB000908192238B21892B04C082E90E948E0DA3
:100BC000F3018083FFEF6F1A7F0AD7CF5801A90C7A
:100BD000B11C80E00E948E0DF501808361E0809160
:100BE0001A050E94490B88E10E94BE048770B82E46
:100BF000C114D10411F0F601808333FC37C0011514
:100C00001105B1F1E114F10499F1882089F1F7019E
:100C10006081613021F4F4E0BF1203C01FC0623074
:100C200010F488E026C0B110FCCF6250AE014F5FD7
:100C30005F4FC8010E9401058130D9F4F70180811E
:100C4000080F111DF8013297908189819813E9CF1F
:100C5000319690818A819813E4CF0AC089E009C057
:100C600084E007C082E005C085E003C083E001C0E6
:100C700081E00F900F900F90DF91CF911F910F9116
:100C8000FF90EF90DF90CF90BF90AF909F908F90AC
:100C90007F906F905F904F903F902F9008958F922C
:100CA000AF92CF92DF92EF92FF920F931F93CF9369
:100CB000DF93CDB7DEB764970FB6F894DEBF0FBEF3
:100CC000CDBF162FE62EF12CA701BC01CE01019657
:100CD0000E94CF2141E050E04C0F5D1F4E0D5F1D83
:100CE000612FCE0101960E940105813011F582E14C
:100CF0008C8B1B8A22E0210F812CA12CCE014396E4
:100D00006C0101967C018E010F5F1F4FA80160E30B
:100D10008CE00E943E05813061F48C89813041F481
:100D20009B89943029F499819A3019F089E001C0A7
:100D300082E064960FB6F894DEBF0FBECDBFDF91A0
:100D4000CF911F910F91FF90EF90DF90CF90AF90D8
:100D50008F9008958F92AF92CF92DF92EF92FF9291
:100D60000F931F93CF93DF93CDB7DEB72C970FB6BA
:100D7000F894DEBF0FBECDBF90E699838A83DE0173
:100D80001396E7ECF2E086E08E0F91919D938E131F
:100D9000FCCF80910F058987809110058A8780910B
:100DA00011058B87809112058C87812CA12CC12C79
:100DB000D12CE12CF12C00E010E02CE0AE014F5FD3
:100DC0005F4F60E18EE00E943E052C960FB6F894CE
:100DD000DEBF0FBECDBFDF91CF911F910F91FF906E
:100DE000EF90DF90CF90AF908F9008958F929F9269
:100DF000AF92BF920F931F93CF93DF93CDB7DEB720
:100E0000A1970FB6F894DEBF0FBECDBF19A2423036
:100E100008F44AE08E010F5D1F4F842E912CA12C07
:100E2000B12CA50194010E94F81CE62FB901CA015A
:100E300001501109EA3014F4E05D01C0E95CD80109
:100E4000EC93232B242B252B61F7C8010E947604F9
:100E5000A1960FB6F894DEBF0FBECDBFDF91CF9144
:100E60001F910F91BF90AF909F908F900895CF9258
:100E7000DF92EF92FF92CF93DF936C01990FEE0810
:100E8000FF08F7FE1FC0E0912103F09122030190BB
:100E9000F081E02D6DE281E293E00995EC01662797
:100EA0007727CB016C197D098E099F094AE00E94C2
:100EB000F6068C0F9D1FDF91CF91FF90EF90DF9092
:100EC000CF9008954AE0C701B601DF91CF91FF901E
:100ED000EF90DF90CF900C94F606EF92FF920F9375
:100EE0001F93CF93DF9300D0CDB7DEB77C01F7FC23
:100EF00003968C01036083E0E816F1047CF0C701DF
:100F0000019683709927892B49F4C7010E943707FE
:100F10008BEC91E00E94AE0482E04BC0C7010E94BE
:100F2000370780EE91E00E94AE04802F0E94AA064F
:100F3000182F8130B1F082EF91E00E94BC04115073
:100F4000193048F4E12FF0E0EE0FFF1FE65FFE4F8F
:100F50008081918102C085E394E00E94880483E04F
:100F600028C080EA8983EA8262E0CE0101960E946D
:100F70004F06182F813031F460E187EB92E00E9438
:100F80004F06182F1130B9F08EE092E00E94BC0499
:100F90001150193048F4E12FF0E0EE0FFF1FE65F2B
:100FA000FE4F8081918102C085E394E00E94880415
:100FB00084E090E004C086E292E00E94AE040F90CC
:100FC0000F90DF91CF911F910F91FF90EF900895B7
:100FD0008F92AF92CF92DF92EF92FF920F931F9377
:100FE000CF93DF9361157105F9F0FA019081923189
:100FF000D8F07A01EB0190E398838983AB014E5FCF
:101000005F4F62E0CE010E940105813071F48824B7
:101010008394A12CC12CD12C8E0124E0AE0160E37D
:101020008CE00E943E0501C085E0DF91CF911F91C9
:101030000F91FF90EF90DF90CF90AF908F90089539
:101040000F931F93CF93DF931F92CDB7DEB7082F77
:10105000282F392F37FF02C02D5F3F4F822F83602B
:101060000E94AA06182F8130B1F088E392E00E9416
:10107000BC041150193048F4E12FF0E0EE0FFF1FCF
:10108000E65FFE4F8081918102C085E394E00E947B
:10109000880483E022C082E18983AE014F5F5F4F05
:1010A00065EA72E0802F0E94E807182F8130B9F0BE
:1010B0008BE592E00E94BC041150193048F4E12FF6
:1010C000F0E0EE0FFF1FE65FFE4F8081918102C0CE
:1010D00085E394E00E94880484E090E004C082E705
:1010E00092E00E94AE040F90DF91CF911F910F917B
:1010F0000895CF92DF92EF92FF920F931F93CF93B9
:10110000DF936C017A018B01C0E0D0E0CE15DF05E2
:1011100089F0D8016D918D01D601ED91FC9101907E
:10112000F081E02DC6010995892B11F47E0102C0E2
:101130002196ECCFC701DF91CF911F910F91FF90C6
:10114000EF90DF90CF900895FC01918D828D9817DC
:1011500061F0828DDF01A80FB11D5D968C91928D9B
:101160009F5F9F73928F90E008958FEF9FEF089598
:10117000FC01918D828D981731F0828DE80FF11D61
:10118000858D90E008958FEF9FEF0895FC01918D7C
:10119000228D892F90E0805C9F4F821B91098F7375
:1011A0009927089581E293E00E94C60821E0892BE7
:1011B00009F420E0822F0895FC01848DDF01A80F3F
:1011C000B11DA35ABF4F2C91848D90E001968F736F
:1011D0009927848FA689B7892C93A089B1898C918E
:1011E00080648C93938D848D981306C00288F38954
:1011F000E02D80818F7D80830895EF92FF920F9381
:101200001F93CF93DF93EC0181E0888F9B8D8C8DB2
:10121000981305C0E889F989808185FD24C0F62EE0
:101220000B8D10E00F5F1F4F0F731127E02E8C8D79
:10123000E8120CC00FB607FCFACFE889F989808163
:1012400085FFF5CFCE010E94DC08F1CF8B8DFE012A
:10125000E80FF11DE35AFF4FF0820B8FEA89FB89FB
:101260008081806207C0EE89FF896083E889F989FF
:1012700080818064808381E090E0DF91CF911F9135
:101280000F91FF90EF900895CF93DF93EC01888D3D
:101290008823C9F0EA89FB89808185FD05C0A8897A
:1012A000B9898C9186FD0FC00FB607FCF5CF808100
:1012B00085FFF2CFA889B9898C9185FFEDCFCE014A
:1012C0000E94DC08E7CFDF91CF91089580E090E0A5
:1012D000892B29F00E94D20881110C9400000895F6
:1012E0003FB7F8948091410590914205A091430544
:1012F000B091440526B5A89B05C02F3F19F0019673
:10130000A11DB11D3FBFBA2FA92F982F8827820F8B
:10131000911DA11DB11DBC01CD0143E0660F771FDA
:10132000881F991F4A95D1F70895DC015196ED91D8
:10133000FC915297908150968C918095892380835F
:10134000089520911F03309120032817390781F455
:1013500090911D0380911E03981751F0E0911D0399
:10136000F0E0E45EFA4F8081082E000C990B08959E
:101370008FEF9FEF089520911F03309120032817CE
:10138000390739F48FB7F89410921E0310921D0399
:101390008FBF089520911F0330912003281739072C
:1013A00069F480911E0320911D0390E08096821BBA
:1013B000910960E270E00E94E41C08958FEF9FEFB6
:1013C000089520911F033091200328173907B9F49D
:1013D00090911D0380911E039817A1F0E0911D03C9
:1013E000F0E0E45EFA4F808120911D0330E02F5F32
:1013F0003F4F2F71332720931D0390E008958FEF07
:101400009FEF08958EEF9FEF08950E94CA210F93DA
:101410001F93CF93DF93EC0188819981009729F086
:101420002A813B812617370788F48B016F5F7F4F36
:101430000E940021009761F0998388831B830A83AF
:101440002C813D81232B11F4FC01108281E001C02D
:1014500080E0DF91CF911F910F910895EF92FF925D
:101460000F931F93CF93DF93FC0124813581611586
:10147000710511F480E019C041155105A9F07B01F7
:10148000EC018A01020F131FB8010E94070A88238A
:1014900089F3288139818C819D81B701820F931F47
:1014A0000E94E3211D830C8381E0DF91CF911F9186
:1014B0000F91FF90EF900895CF93DF93EC01888117
:1014C0009981009711F00E946820198218821D826C
:1014D0001C821B821A82DF91CF910895EF92FF92B6
:1014E0000F931F93CF93DF93EC017B018A01BA0125
:1014F0000E94070A811104C0CE010E945C0A07C045
:101500001D830C83B701888199810E94E321CE015C
:10151000DF91CF911F910F91FF90EF900895EF927F
:10152000FF920F931F93CF93DF93CDB7DEB7299729
:101530000FB6F894DEBF0FBECDBF8C01862FF80129
:1015400011821082138212821582148250E09E0151
:101550002F5F3F4F7901B90190E00E943C22F701D3
:1015600001900020E9F73197AF014E195F09B701EB
:10157000C8010E946E0A29960FB6F894DEBF0FBE0E
:10158000CDBFDF91CF911F910F91FF90EF90089504
:101590001F920F920FB60F9211242F933F934F93E8
:1015A0005F936F937F938F939F93AF93BF93EF93CB
:1015B000FF9381E293E00E94DC08FF91EF91BF91DD
:1015C000AF919F918F917F916F915F914F913F91DB
:1015D0002F910F900FBE0F901F9018951F920F9292
:1015E0000FB60F9211242F938F939F93EF93FF9336
:1015F000E0913103F09132038081E0913703F09163
:10160000380382FD12C0908180913A038F5F8F73FF
:1016100020913B03821751F0E0913A03F0E0EF5D37
:10162000FC4F958F80933A0301C08081FF91EF9129
:101630009F918F912F910F900FBE0F901F90189533
:10164000833081F028F4813099F08230A1F0089540
:101650008730A9F08830B9F08430D1F480918000CF
:101660008F7D03C0809180008F77809380000895E4
:1016700084B58F7702C084B58F7D84BD0895809135
:10168000B0008F7703C08091B0008F7D8093B00051
:1016900008951F93CF93DF93282F30E0F901EC508A
:1016A000FF4F8491F901E559FB4FD491F901E95AB3
:1016B000FB4FC491CC23C9F0162F81110E94200B3F
:1016C000EC2FF0E0EE0FFF1FED5BFB4FA591B49107
:1016D0008FB7F894111105C09C91ED2FE095E92387
:1016E00002C0EC91ED2BEC938FBFDF91CF911F9156
:1016F0000895CF93DF9390E0FC01E559FB4F2491CF
:10170000FC01E95AFB4F8491882361F190E0880F36
:10171000991FFC01E651FF4FC591D491FC01ED5B8F
:10172000FB4FA591B491611109C09FB7F8948881CE
:10173000209582238883EC912E230BC0623061F4C4
:101740009FB7F8943881822F809583238883EC910A
:101750002E2B2C939FBF06C08FB7F894E8812E2BB9
:1017600028838FBFDF91CF9108958F929F92AF9280
:10177000BF92CF92DF92EF92FF926B017C010E94A9
:1017800070094B015C01C114D104E104F104F1F0D2
:101790000E947009DC01CB0188199909AA09BB09CB
:1017A000883E9340A105B10570F321E0C21AD1082B
:1017B000E108F10888EE880E83E0981EA11CB11C98
:1017C000C114D104E104F10419F7DDCFFF90EF90CB
:1017D000DF90CF90BF90AF909F908F9008952FB7DC
:1017E000F89460913D0570913E0580913F05909180
:1017F00040052FBF08951F920F920FB60F9211242C
:101800002F933F938F939F93AF93BF9380913D0509
:1018100090913E05A0913F05B091400530913C0567
:1018200026E0230F2D3720F40296A11DB11D05C01F
:1018300029E8230F0396A11DB11D20933C05809339
:101840003D0590933E05A0933F05B09340058091E0
:10185000410590914205A0914305B0914405019640
:10186000A11DB11D8093410590934205A0934305AE
:10187000B0934405BF91AF919F918F913F912F916C
:101880000F900FBE0F901F90189520E001972FEF3B
:101890008F3F9207D9F70895CF92DF92EF92FF9290
:1018A0000F931F93CF93DF93EC01898D9A8D00974F
:1018B00029F421E030E03B832A8364C0FFB6F8942A
:1018C00028E030E090E081E0482F462309F09F5F58
:1018D000880F21503109C1F78E8D81119F5FE62E4F
:1018E000192F1095CE010E949509898D9A8D049625
:1018F0000E94450C88E0C82ED12C01E0802F8E215B
:1019000039F0E989FA8990818889892B808303C01D
:10191000CE010E949509898D9A8D0E94450C000F79
:1019200081E0C81AD10851F78E8D882339F0E989F2
:10193000FA8990818889892B808303C0CE010E9417
:101940009509898D9A8D0E94450C10FF07C0E98981
:10195000FA8990818889892B808303C0CE010E94F7
:101960009509898D9A8D0E94450CE989FA899081A3
:101970008889892B8083FFBE8B8D9C8D0E94450CAE
:1019800081E090E0DF91CF911F910F91FF90EF9058
:10199000DF90CF900895EF92FF920F931F93CF9314
:1019A000DF93C0911F03D0912003209709F443C017
:1019B0008B899C890E94450C88E0E82EF12C10E070
:1019C00001E08D899E890E94450CEE85FF859081FE
:1019D0008D85892311F0102B03C0802F809518234B
:1019E000000F81E0E81AF10861F78D899E890E9455
:1019F000450C8F89988D0E94450C80911E03209183
:101A00001D0390E001968F71992730E082179307AC
:101A100079F0E0911E03F0E0E45EFA4F10838091CC
:101A20001E0390E001968F71992780931E0303C0D7
:101A30008D8D81608D8FDF91CF911F910F91FF90E0
:101A4000EF9008951F920F920FB60F9211242F93CB
:101A50003F934F935F936F937F938F939F93AF9336
:101A6000BF93EF93FF930E94CB0CFF91EF91BF9137
:101A7000AF919F918F917F916F915F914F913F9126
:101A80002F910F900FBE0F901F9018951F920F92DD
:101A90000FB60F9211242F933F934F935F936F9341
:101AA0007F938F939F93AF93BF93EF93FF930E9486
:101AB000CB0CFF91EF91BF91AF919F918F917F914F
:101AC0006F915F914F913F912F910F900FBE0F90AB
:101AD0001F9018951F920F920FB60F9211242F93FB
:101AE0003F934F935F936F937F938F939F93AF93A6
:101AF000BF93EF93FF930E94CB0CFF91EF91BF91A7
:101B0000AF919F918F917F916F915F914F913F9195
:101B10002F910F900FBE0F901F9018958EBD000053
:101B20000DB407FEFDCF8EB50895CF93DF93C0E0CF
:101B3000D0E08091E80490E0C817D907ECF4209732
:101B400061F00197C817D90741F081E02091E604C0
:101B50003091E704C217D30709F480E0FE01EE5C80
:101B6000FB4F60818093070589EE94E00E944C0C46
:101B7000109207052196DDCFDF91CF9108952F9226
:101B80003F924F925F926F927F928F929F92AF920D
:101B9000BF92CF92DF92EF92FF920F931F93CF935A
:101BA000DF93CDB7DEB7A0970FB6F894DEBF0FBEB8
:101BB000CDBF909130049923C9F02EE720933204D1
:101BC00022E92093330423E22093340490933504D4
:101BD00090910301992311F0915003C010923004A9
:101BE00096E09093030104E010E002C000E010E0F2
:101BF0009091300491118AC19EE7909332049FE93D
:101C0000909333041092340495E19093350494EA50
:101C1000909336049CEA9093370498E090933804AC
:101C2000109239048111DBC080E4809334047090F9
:101C300031048090BE039090BF0308E010E0612C57
:101C4000D62CD70CED2DF0E0E815F9050CF0BAC054
:101C5000DF01AA0FBB1FA05FBB4FAD90BC90A114CA
:101C6000B10409F4ABC0D29430EFD322C80182543E
:101C70009C4F7C01DC01AC58BF4FDC92E050FC4F24
:101C8000C080CC2021F093E09C1590F104C0D501D8
:101C90006D917C9130C06C2D70E080E090E00E94EE
:101CA00076229B01AC0160E070E080E291E40E944A
:101CB0004E1EF50120813181428153810E94D7223D
:101CC0001B012C0120E030E0A9010E94491E20E008
:101CD00030E040E05FE387FD05C0C201B1010E9432
:101CE000351D04C0C201B1010E94341D0E94131EA3
:101CF000F3E0FC15B0F0F701EC58FF4F8D2D81603B
:101D000080837F79D12C20E2C29ED02CCC24112458
:101D10006C297D2931966083319670830D5F1F4F4A
:101D20004DC035E03C1508F1F701EC58FF4F8D2D03
:101D300085608083D50112968C91129731968083AD
:101D400011968C911197319680832C912F71C80137
:101D50008F539C4FB4E0FC01EC58FF4FCB1201C0F5
:101D6000206220830C5F1F4F29C0E9E0CE1226C0FD
:101D7000F701EC58FF4F8D2D89608083D5011396B4
:101D80008C9113973196808312968C91129731968D
:101D9000808311968C911197319680838C91F801F4
:101DA000EA5CFB4F80838C91853421F08E3421F4E2
:101DB000108202C0B0E2B0830B5F1F4F6394E6E075
:101DC0006E123ECF86E0870D282F30E028153905AA
:101DD0001CF4809331047BC01092310478C0E091F0
:101DE0004505F0E0EE0FFF1FE054FC4F608171816C
:101DF0007E01F1E1EF0EF11CC7010E942222E09169
:101E00004505F0E0EE0FFF1FE052FC4F608171814D
:101E10008E010F5F1F4FC8010E942222809145054D
:101E200080933A04F70101900020E9F73197EE1909
:101E3000FF09EE0FEE0FEE0FD8010D900020E9F72D
:101E40001197A01BB10BA370EA2BE0933B04D701C1
:101E50002AE030E0F70101900020E9F73197AF0167
:101E60004E195F09F901EC58FF4FBD016E197F094A
:101E70006417750738F49D91E254FC4F90832F5FEF
:101E80003F4FE8CFE254FC4FA801201B310BB901B2
:101E9000640F751FD8010D900020E9F71197A01B62
:101EA000B10B7A01E01AF10AEA16FB0628F4DA010E
:101EB0009D91AD019193EBCF8B018F5F90E060918D
:101EC000BE037091BF030E94E41C8093450580917E
:101ED00034049EEF900F892B8093340422E0E0E0DD
:101EE000822F90E0801791075CF4DC01AE5CBB4F61
:101EF0008C91E827F0E0E158FB4FE4912F5FF0CFA1
:101F0000D801AE5CBB4FEC930F5F1F4FC8018254EA
:101F10009C4FFC01EC58FF4F2EEF20831093E704F9
:101F20000093E604D801AD5CBB4FEDEEF2E020E299
:101F30002E0F31913D932E13FCCFFC01EB56FF4F3A
:101F40008FEF80830E5D1F4F0093E80481E0A09621
:101F50000FB6F894DEBF0FBECDBFDF91CF911F91BA
:101F60000F91FF90EF90DF90CF90BF90AF909F9038
:101F70008F907F906F905F904F903F902F9008953B
:101F8000CF93DF93BC0180E090E04AE00E94F60628
:101F9000EC0188EC91E00E9476048C0F9D1FDF918C
:101FA000CF910895CF93DF9300D0CDB7DEB789836B
:101FB0001A8241E050E0BE016F5F7F4F88E095E0FC
:101FC0000E942E0A0F900F90DF91CF9108951F93DA
:101FD000CF93DF931F92CDB7DEB7182F69830E948E
:101FE000BE04698160956823812F0F90DF91CF91A6
:101FF0001F910C94DC042F923F924F925F926F924C
:102000007F928F929F92AF92BF92CF92DF92EF9288
:10201000FF920F931F93CF93DF93CDB7DEB72C972B
:102020000FB6F894DEBF0FBECDBF60E88CE10E9412
:10203000E70F9924939444244394512C22E0921660
:1020400051F033E0931661F081E09812ECC083E91F
:102050008983B12C09C085E9898353E0B52E04C07A
:1020600087E9898346E0B42E312C33E0232E90E2B9
:1020700039121DC0E0E7EA839C818B8189279D810D
:1020800089279E8189278F83AE01485F5F4F67E074
:10209000CE0101960E940105813009F0C8C01B865F
:1020A0002A869E01295F3F4F390129E01EC0932DEA
:1020B00097709B87432D45954595459582E0840F04
:1020C000292F30E1839F200D11242A8321E09111D3
:1020D00001C020E0280F66246394712C6C0E7D1ED5
:1020E000680E711C87E0841B8A87AB846A2D629519
:1020F000607F6A0D8AE12C870E94DC04812CCE016E
:102100000B966C01FE013A967F0183012C85AE018E
:102110004F5F5F4F60E38CE00E943E05833091F596
:102120008CE10E94BE0485FD7CC08F7109F480E2C1
:10213000482F50E0632D330C770B641775070CF0B4
:1021400072C0382ECA01019787709927242F2595D0
:102150002595259541E0420F21E0009709F420E004
:10216000240FE1E0F0E0EC0FFD1FE20FF11D920102
:1021700002C0220F331F8A95E2F7C9019081892B93
:10218000808375CF813009F052C030E2331619F0E8
:1021900020E2322E6FCF8B81883819F443E023E0A0
:1021A00002C042E024E080E090E06B2D70E0FC0192
:1021B000E60FF71FE25FFA4F542F580FA1E0B0E08F
:1021C000AC0FBD1FA50FB11D5C9151830196821705
:1021D00070F38A85833049F58B85811126C0AE0165
:1021E0004D5F5F4F61E0C3010E9401058130F9F44A
:1021F0009B81F301818198131CC09C81828198137B
:1022000018C0808182FF02C0939418CF8093190573
:10221000892D880F382F390D3F5F30930E0591E0DF
:1022200009C093E007C096E005C092E003C0982F74
:1022300001C098E081E0913009F080E02C960FB663
:10224000F894DEBF0FBECDBFDF91CF911F910F91EC
:10225000FF90EF90DF90CF90BF90AF909F908F90C6
:102260007F906F905F904F903F902F9008958F9246
:10227000AF92CF92DF92EF92FF920F931F93CF9383
:10228000DF9300D000D01F92CDB7DEB782E08D8300
:1022900086E28C8360E88CE10E94E70F87E08B8305
:1022A000812CA12CCE0103966C0102967C018E013B
:1022B0000F5F1F4F21E0AE014C5F5F4F60E38CE08A
:1022C0000E943E05813039F48D81823019F48B8172
:1022D000882331F082E091E0833019F090E001C072
:1022E00091E0892F0F900F900F900F900F90DF913A
:1022F000CF911F910F91FF90EF90DF90CF90AF9013
:102300008F900895CF93DF93CDB7DEB7E1970FB6E7
:10231000F894DEBF0FBECDBF789484B5826084BDD3
:1023200084B5816084BD85B5826085BD85B58160D9
:1023300085BD80916E00816080936E001092810057
:102340008091810082608093810080918100816012
:1023500080938100809180008160809380008091D3
:10236000B10084608093B1008091B000816080935F
:10237000B00080917A00846080937A0080917A0026
:10238000826080937A0080917A008E7F80937A00B9
:1023900080917A00806880937A001092C100E09169
:1023A0003103F091320382E08083E0912D03F091BC
:1023B0002E031082E0912F03F091300387E6808393
:1023C00010923903E0913503F091360386E0808363
:1023D000E0913303F0913403808180618083E09148
:1023E0003303F0913403808188608083E09133036C
:1023F000F0913403808180688083E0913303F09111
:10240000340380818F7D80831FB7F894809182028E
:10241000811127C0E1E6F4E08491E5E7F4E09491CE
:10242000E82FF0E0EE0FFF1FE651FF4FA591B491AA
:10243000EC91E92321F461E08AE00E94490B61E01C
:102440008AE00E94790B8CB580618CBD8CB580646C
:102450008CBD61E08DE00E94790B61E08BE00E9411
:10246000790B809182028F5F809382021FBF61E0AF
:1024700080911A050E94790B61E080911A050E94F3
:10248000490B61E080911B050E94790B8CB58F7D13
:102490008CBD8CB5837F8CBD20911B0530E0F9018C
:1024A000EC50FF4F8491F901E559FB4F0491F9017C
:1024B000E95AFB4F1491112381F081110E94200BE6
:1024C000E12FF0E0EE0FFF1FE35BFB4FA591B4910E
:1024D000EC91E02311F00C94F81B61E080911B0556
:1024E0000E94490B62E370E080E090E00E94B50B2F
:1024F00060E884E50E94DC0469EA86E50E94DC0469
:1025000063E088E50E94DC0468EE8AE50E94DC0452
:1025100060E48AE20E94DC046DE382E20E94DC0453
:1025200088E20E94BE04982F9370933029F0682FA0
:10253000636088E20E94DC048CE391E00E94AE04B8
:102540008FEF8093C7028093C8028093C902809363
:10255000CA028093CB028093CC021092000161E00A
:102560008DE00E94790B61E08DE00E94490B61E0F3
:1025700083E00E94790B10920505109204051092D9
:1025800003051092020510920105109200051092A9
:10259000FF041092FE0488E091E020E030E0FC01AE
:1025A0004591559165917491443E5542610571057F
:1025B00009F034C04EE0429FC001439F900D1124AA
:1025C000FC01E45FFE4F259134913093FD0420938C
:1025D000FC04FC01E25FFE4F259134913093FF042F
:1025E0002093FE04FC01E05FFE4F2591349130936F
:1025F000010520930005FC01EE5EFE4F259134910C
:102600003093030520930205FC01EC5EFE4F85919B
:10261000949190930505809304050BC02F5F3F4F65
:102620000E962E30310509F0BACF1092FD041092AB
:10263000FC048091000590910105892B09F446C0A6
:102640009091F5049631E0F520916800983050F0B3
:1026500031E09E3008F430E081E001C0880F3A9507
:10266000EAF701C084E0822B80936800983038F04C
:102670009E3040F0963148F4ECE6F0E008C0EDE61C
:10268000F0E005C0EBE6F0E002C0E0E0F0E0408101
:10269000983030F481E001C0880F9A95EAF70EC0B7
:1026A000292F30E09E3018F42850310902C02E50F6
:1026B000310981E001C0880F2A95EAF7842B8083D5
:1026C00080910205909103050E94450C0E941C0315
:1026D00063E072E082E192E00E940D0487EF91E0F6
:1026E0009093C1038093C0038CEC91E09093E1033D
:1026F0008093E0038091BE039091BF039C012F5F04
:102700003F4FF901EE0FFF1FE054FC4F44EF51E043
:1027100051834083FC01EE0FFF1FEE51FC4F43EF4E
:1027200051E051834083FC01EE0FFF1FEE5EFB4F33
:1027300011821082F901E050FC4F10822E5F3F4F52
:10274000F901EE0FFF1FE254FC4F4AEE51E05183B6
:102750004083FC01EE0FFF1FEC51FC4F46EE51E0B1
:1027600051834083FC01EE0FFF1FEC5EFB4F118293
:102770001082FC01EE5FFB4F1082AC014C5F5F4F9B
:10278000FA01EE0FFF1FE254FC4F6FED71E0718311
:102790006083FC01EE0FFF1FEA51FC4F6EED71E00C
:1027A00071836083FC01EE0FFF1FEA5EFB4F118215
:1027B0001082F901E050FC4F10822E5F3F4FF9016B
:1027C000EE0FFF1FE254FC4F68ED71E071836083F0
:1027D000FC01EE0FFF1FE851FC4F67ED71E07183C4
:1027E0006083FC01EE0FFF1FE85EFB4F1182108239
:1027F000FA01E050FC4F10824E5F5F4FFA01EE0F7E
:10280000FF1FE254FC4F6FEC71E071836083FC01A9
:10281000EE0FFF1FE651FC4F6EEC71E07183608399
:10282000880F991FFC01E65EFB4F11821082F901AF
:10283000E050FC4F10825093BF034093BE0380EAE8
:1028400092E09093130480931204109201048EE995
:1028500092E09093150480931404109202048CE982
:1028600092E09093170480931604109203048AE96F
:1028700092E090931904809318041092040488E95C
:1028800092E090931B0480931A041092050481E057
:102890000E94BF0D0E94950D6EE170E080E090E017
:1028A0000E94B50B809145058111F1CF60E08DE06C
:1028B0000E94490B1092A1021092A00210929F0256
:1028C00010929E0210929D0210929C0210929B0206
:1028D00010929A021092990210929802109292020B
:1028E000109291021092900210928F0210928E021A
:1028F00010928D0210928A0210928902F3E6AF2E96
:10290000B12CA2E68A2E912C11E0CC24C394D12CB8
:1029100002E1CE0143967C0186E0382E8091A4022C
:10292000882321F18091A302882301F10E943711AD
:102930000E94371181111AC01092A3021092A202B4
:102940001092A4021092A1021092A00210929F0273
:1029500010929E0210929D0210929C0210929B0275
:1029600010929A0210929902109298028091A402F9
:10297000882361F180919702882341F168E080E12A
:102980000E94E70F0E9437110E94371181111EC06B
:10299000109297021092A2021092A4021092960234
:1029A000109295021092A1021092A00210929F0222
:1029B00010929E0210929D0210929C0210929B0215
:1029C00010929A0210929902109298020E94EF0BB4
:1029D0000E94950D0E94EF0B2B013C0160E083E00B
:1029E0000E94790B62E084E00E94790B0E941C0334
:1029F00089EE94E00E94BB0989EE94E00E94CA0926
:102A0000892B61F40E94EF0BDC01CB01841995093D
:102A1000A609B7090697A105B10570F389EE94E000
:102A20000E94CA09181619060CF005C289EE94E036
:102A30000E94E10920910101309102012817390714
:102A400009F4F9C19093020180930101209193024E
:102A5000309194028039910509F4E4C044F4803641
:102A6000910509F4B5C180379105F9F0E4C1803DC5
:102A70009105B1F1803E910529F0803B910509F067
:102A8000DAC17DC02930310509F4D5C12F5F3F4F30
:102A900030939402209393022830310509F0CBC182
:102AA0001092940210929302C6C12336310521F48C
:102AB000D0929402C09293028091930290919402DA
:102AC0008236910529F4D0929402C0929302B3C148
:102AD000019790939402809393020A970CF7ABC1ED
:102AE0002230310569F48091910290919202019611
:102AF00090939202809391023093940220939302D8
:102B000020919302309194022330310551F4809149
:102B10008F02909190028C599F4F909390028093D6
:102B20008F0220919302309194022430310549F4B0
:102B300080918D0290918E02019690938E028093E7
:102B40008D0220919302309194022530310549F491
:102B500080918B0290918C02019690938C028093CD
:102B60008B0220919302309194022630310509F0B6
:102B700062C18091890290918A0201964EC02230F2
:102B8000310569F480919102909192020A96909396
:102B900092028093910230939402209393022091A9
:102BA0009302309194022330310551F480918F02C9
:102BB0009091900288519C4F9093900280938F0245
:102BC00020919302309194022430310549F4809190
:102BD0008D0290918E020A9690938E0280938D02C0
:102BE00020919302309194022530310549F480916F
:102BF0008B0290918C020A9690938C0280938B02A8
:102C000020919302309194022630310509F013C1CE
:102C10008091890290918A020A9690938A02809309
:102C2000890209C12330310569F480918F029091A6
:102C30009002C2969093900280938F0230939402F8
:102C4000209393028091930290919402079709F048
:102C5000F2C0B0929402A09293028091A4028823C1
:102C600009F4A9C080919702882309F4A4C00E94A6
:102C7000FB0F80919102909192029093B702809302
:102C8000B80280918F02909190029093B902809344
:102C9000BA0280918D0290918E029093BB02809334
:102CA000BC028091890290918A029093BD02809328
:102CB000BE0284E090E00E946D0780918B029091AB
:102CC0008C029093B7028093B80285E090E00E9456
:102CD0006D071092A20284E090E00E94200880918B
:102CE000A50290E0982F88272091A602822B90932E
:102CF000A1028093A0028091A70290E0982F8827DC
:102D00002091A802822B90939F0280939E02809133
:102D1000A90290E0982F88272091AA02822B9093F5
:102D20009D0280939C028091AB0290E0982F8827AF
:102D30002091AC02822B90939B0280939A0285E0B3
:102D400090E00E9420088091A50290E0982F8827AB
:102D50002091A602822B909399028093980210935F
:102D6000A4022091A202211124C02091A00230913E
:102D7000A102309392022093910220919E02309101
:102D80009F023093900220938F0220919C023091F9
:102D90009D0230938E0220938D0220919A023091F1
:102DA0009B0230938A022093890290938C02809335
:102DB0008B021093A2028091A4028823E1F18091FA
:102DC000A3028823C1F1909294028092930233C0AF
:102DD0002230310541F41092920210929102309308
:102DE000940220939302809193029091940203970E
:102DF00021F41092900210928F0280919302909190
:102E00009402049721F410928E0210928D02809108
:102E1000930290919402059721F410928C021092E3
:102E20008B028091930290919402069721F4109264
:102E30008A021092890220919302309194022930E3
:102E4000310509F478C1109288021092870224306B
:102E5000310509F412C1A4F52130310509F471C01E
:102E600044F4232B09F06DC16DE273E08CE393E031
:102E700066C12230310509F4E1C02330310509F083
:102E800060C11092DD021092CD0261EF72E08DED13
:102E900092E00E94172210920D0360918F027091B0
:102EA000900280E090E00E9476220E9439036DE05B
:102EB00073E08DED92E00E94D82161EE72E034C1A2
:102EC0002730310509F417C13CF52530310509F4E7
:102ED000F3C02630310509F034C11092DD021092A2
:102EE000CD0266EA72E08DED92E00E941722109208
:102EF0000D036091890270918A0280E090E00E9447
:102F000076220E9439036DE073E08DED92E00E941D
:102F1000D82166E972E008C12236310509F4F8C00B
:102F20002336310509F00DC11092DD021092CD0259
:102F300061E572E08DED92E00E94172261E472E09B
:102F4000F3C01092DD021092CD026AE273E08DEDC3
:102F500092E00E94172210920D03609191027091ED
:102F6000920280E090E00E9476220E9439036DE098
:102F700073E08DED92E00E94D82165E273E08DEC64
:102F800092E00E94172210920D0360918F027091BF
:102F9000900280E090E00E9476220E9439036DE06A
:102FA00073E08DEC92E00E94D82160E273E08DED39
:102FB00092E00E94172210920D0360918D02709191
:102FC0008E0280E090E00E9476220E9439036DE03C
:102FD00073E08DED92E00E94D8216AE173E08DEC00
:102FE00092E00E94172210920D0360918902709165
:102FF0008A0280E090E00E9476220E9439036DE010
:1030000073E08DEC92E00E94D82166E173E08DEDD3
:1030100092E00E94172210920D0360918B02709132
:103020008C0280E090E00E9476220E9439036DE0DD
:1030300073E08DED92E00E94D8217AC01092DD02FB
:103040001092CD026CE073E08DED92E00E941722A9
:1030500010920D03609191027091920280E090E0D5
:103060000E9476220E9439036DE073E08DED92E0BC
:103070000E94D8216CEF72E057C01092DD021092CE
:10308000CD0268ED72E08DED92E00E941722109261
:103090000D0360918D0270918E0280E090E00E949D
:1030A00076220E9439036DE073E08DED92E00E947C
:1030B000D82168EC72E038C01092DD021092CD0287
:1030C0006EEB72E08DED92E00E94172210920D03DC
:1030D00060918B0270918C0280E090E00E947622D9
:1030E0000E9439036DE073E08DED92E00E94D821DB
:1030F0006EEA72E019C01092DD021092CD0266E80D
:1031000072E08DED92E00E9417226EE772E00CC033
:103110001092DD021092CD026EE672E08DED92E02B
:103120000E9417226EE572E08DEC92E00E94172259
:103130000E943B0406C062E272E081E392E00E94DA
:103140000D048091850290918602019690938602EB
:1031500080938502059744F081E00E94BF0D109294
:1031600086021092850203C080E00E94BF0D0E947B
:10317000EF0B61E084E00E94790B7090A402711063
:1031800025C00E943711882309F42FC30E94FB0F2A
:10319000882309F42AC38091190582FD17C089305C
:1031A000A9F0A0F4813091F058F0883079F41093B0
:1031B00097021092A302109296021092950206C0F6
:1031C000109297021092A2021093A302809195028E
:1031D00090919602803F910509F079C0772009F41B
:1031E00076C080919702882309F471C00E94FB0F7A
:1031F00083E491E00E94AE0480919C0290919D0234
:10320000019690939D0280939C022091A0023091A0
:10321000A1023093B7022093B80220919E02309110
:103220009F023093B9022093BA029093BB0280931D
:10323000BC0280919A0290919B029093BD02809370
:10324000BE0284E090E00E946D0780919802909108
:1032500099029093B7028093B80285E090E00E94B3
:103260006D078FE591E00E94AE0481E791E00E9436
:10327000BC048091A0029091A1020E94C00F86E739
:1032800091E00E94BC0480919E0290919F020E9456
:10329000C00F81E891E00E94BC0480919C02909153
:1032A0009D020E94C00F8AE891E00E94BC048091B8
:1032B0009A0290919B020E94C00F82E991E00E94C5
:1032C000BC0480919802909199020E94C00F809155
:1032D0009502909196022091A402813F91055CF4A1
:1032E000222359F030919702332329F001969093CD
:1032F0009602809395022111B3C080919702882392
:1033000009F4AEC084E090E00E9420088091A502FC
:1033100090E0982F88272091A602822B9093A102FB
:103320008093A0028091A70290E0982F8827209197
:10333000A802822B90939F0280939E028091A90203
:1033400090E0982F88272091AA02822B90939D02CB
:1033500080939C028091AB0290E0982F8827209167
:10336000AC02822B90939B0280939A0285E090E0BE
:103370000E9420088091A50290E0982F8827209134
:10338000A602822B90939902809398028CE991E097
:103390000E94AE048FE591E00E94AE0481E791E0C7
:1033A0000E94BC048091A0029091A1020E94C00FD3
:1033B00086E791E00E94BC0480919E0290919F025A
:1033C0000E94C00F81E891E00E94BC0480919C02A1
:1033D00090919D020E94C00F8AE891E00E94BC0477
:1033E00080919A0290919B020E94C00F82E991E025
:1033F0000E94BC0480919802909199020E94C00F93
:103400001093A4028091A202811128C08091A00291
:103410009091A102909392028093910280919E02DA
:1034200090919F029093900280938F0280919C02D2
:1034300090919D0290938E0280938D0280919A02CA
:1034400090919B0290938A028093890280919802C6
:103450009091990290938C0280938B021093A20218
:103460008091A4028111C1C18091A302882309F433
:10347000BCC109ABAE014F5C5F4FBE016F5F7F4FB8
:1034800081E10E94E80740E16D81CE0186960E94AD
:103490008F0A40E16C81CE0180960E948F0A1C8ABF
:1034A0001B8A1E8A1D8A188E1F8A6EA17FA1611534
:1034B000710529F04AA55BA5C7010E946E0A4CA1BF
:1034C0005DA168A179A1C7010E942E0A811103C0E4
:1034D000C7010E945C0A1B8E1A8E1D8E1C8E1F8EC9
:1034E0001E8E6B897C896115710531F04F89588D6D
:1034F000CE014A960E946E0A8B899C890E946820A0
:103500006E8C7F8C6114710411F41CA615C094E0BC
:103510006916710418F0E4E06E2E712C6A8D7B8DB3
:10352000A301CE018C960E94EA21ECE2F0E0EC0FC0
:10353000FD1FE60DF71D1082CE018C960E94F92129
:103540009093A1028093A00240E050E06AEC71E009
:1035500088E095E00E946E0AAE014F5C5F4FBE01AD
:103560006F5F7F4F86E10E94E8078B810E94D20F38
:103570008C810E94D20F8D810E94D20F8E810E9479
:10358000D20F8F810E94D20F88850E94D20F898529
:103590000E94D20F8A850E94D20F8B850E94D20F83
:1035A0008C850E94D20FAE014F5C5F4FBE016F5FF2
:1035B0007F4F89E10E94E80789810E94D20F8A81AA
:1035C0000E94D20F8B810E94D20F8C810E94D20F59
:1035D0008D810E94D20F8E810E94D20F41E050E077
:1035E00069E572E088E095E00E942E0AAE014F5C2A
:1035F0005F4FBE016F5F7F4F84E10E94E8078C81BF
:1036000090E0982F88272B81822B909399028093AA
:1036100098024AE0B7010E944722F701019000207A
:10362000E9F73197AF014E195F09B70188E095E0DE
:103630000E942E0A41E050E06DEA71E088E095E0DA
:103640000E942E0AAE014F5C5F4FBE016F5F7F4F3D
:1036500085E10E94E8078C8190E0982F88272B81D4
:10366000822B90939F0280939E028E8190E0909394
:103670009B0280939A02AE014F5C5F4FBE016F5F69
:103680007F4F8BE10E94E8078B8190E0909384024A
:10369000809383028130910539F480919A02909150
:1036A0009B02880F991F32C08230910551F480919E
:1036B0009A0290919B029C01220F331F820F931F4D
:1036C00025C08330910549F480919A0290919B0224
:1036D000880F991F880F991F19C08430910559F4DC
:1036E00020919A0230919B0245E0429FC001439F86
:1036F000900D11240BC0059769F420919A02309126
:103700009B02329EC001339E900D112490939B0228
:1037100080939A02AE014F5C5F4FBE016F5F7F4F97
:1037200080E10E94E8078B8190E0982F88272A810A
:10373000822B90939D0280939C028FEA91E00E94DD
:10374000AE0489EB91E00E94BC0440910C055091BD
:103750000D05609108057091090581E293E00E94D2
:10376000790888EC91E00E94760481E791E00E945C
:10377000BC048091A0029091A1020E94C00F86E734
:1037800091E00E94BC0480919E0290919F020E9451
:10379000C00F81E891E00E94BC0480919C0290914E
:1037A0009D020E94C00F8AE891E00E94BC048091B3
:1037B0009A0290919B020E94C00F82E991E00E94C0
:1037C000BC0480919802909199020E94C00F1093BE
:1037D000A4028A8D9B8D0E94682088A199A10E94D5
:1037E00068208EA19FA10E9468200E94660996C849
:1037F0006FE082E00E94DC0462E370E080E090E031
:103800000E94B50B82E00E94BE0484FDFBCF0C94A5
:103810007812CF92DF92EF92FF92CF93DF93E1E2A3
:10382000F3E01382128288EEC82E83E0D82EE12CBA
:10383000F12CC482D582E682F78280E291E0918306
:10384000808385EC90E09587848784EC90E097876F
:10385000868780EC90E0918B808B81EC90E0938B5D
:10386000828B82EC90E0958B848B86EC90E0978B3A
:10387000868B118E128E138E148EEEE0F5E08AE0A8
:10388000848785E08587E8E0F5E011821082138265
:1038900012821582148243E050E06DE671E0CF01A0
:1038A0000E946E0AC9EED4E01B821A82CC82DD82AD
:1038B000EE82FF8280E391E0998388831C8A1B8AD1
:1038C0001E8A1D8A188E1F8A1A8E198E1C8E1B8EB8
:1038D000E6E0F5E080818E7F808361E084E00E94F5
:1038E000790B61E084E00E94490BEFE6F4E0E4919B
:1038F000E88BEBE5F4E0E491F0E0EE0FFF1FED5B09
:10390000FB4F859194919A8B898B62E083E00E94B2
:10391000790B83E08C87EEE6F4E0E491ED87EAE54D
:10392000F4E0E491F0E0EE0FFF1FE35BFB4F8591C5
:1039300094919F878E87109230041092BF0310924B
:10394000BE031092E80410923104DF91CF91FF90F2
:10395000EF90DF90CF90089580E391E09093EA0498
:103960008093E9042091F504263140F5283028F0B1
:103970002E3030F0ECE6F0E005C0EDE6F0E002C0FD
:10398000EBE6F0E03081283038F481E090E001C0CF
:10399000880F2A95EAF70FC0422F50E02E3018F416
:1039A0004850510902C04E50510981E090E001C0D9
:1039B000880F4A95EAF780958323808380910805D4
:1039C000909109050C94682097FB072E16F400943B
:1039D00007D077FD09D00E941A1D07FC05D03EF4E0
:1039E000909581959F4F0895709561957F4F0895AB
:1039F000A1E21A2EAA1BBB1BFD010DC0AA1FBB1FF3
:103A0000EE1FFF1FA217B307E407F50720F0A21B64
:103A1000B30BE40BF50B661F771F881F991F1A94D1
:103A200069F760957095809590959B01AC01BD01FB
:103A3000CF010895AA1BBB1B51E107C0AA1FBB1FE2
:103A4000A617B70710F0A61BB70B881F991F5A952A
:103A5000A9F780959095BC01CD010895EE0FFF1F49
:103A60000590F491E02D09945058BB27AA270E9495
:103A70004C1D0C945B230E944D2338F00E9454236C
:103A800020F039F49F3F19F426F40C944A230EF4E5
:103A9000E095E7FB0C944423E92F0E946C2358F334
:103AA000BA17620773078407950720F079F4A6F523
:103AB0000C948E230EF4E0950B2EBA2FA02D0B0143
:103AC000B90190010C01CA01A0011124FF27591B63
:103AD00099F0593F50F4503E68F11A16F040A22F69
:103AE000232F342F4427585FF3CF469537952795DA
:103AF000A795F0405395C9F77EF41F16BA0B620BD9
:103B0000730B840BBAF09150A1F0FF0FBB1F661F1F
:103B1000771F881FC2F70EC0BA0F621F731F841F62
:103B200048F4879577956795B795F7959E3F08F088
:103B3000B0CF9395880F08F09927EE0F979587954A
:103B400008950E94B51D0C945B230E94542358F0E5
:103B50000E944D2340F029F45F3F29F00C94442348
:103B600051110C948F230C944A230E946C2368F308
:103B70009923B1F3552391F3951B550BBB27AA2726
:103B800062177307840738F09F5F5F4F220F331F60
:103B9000441FAA1FA9F335D00E2E3AF0E0E832D028
:103BA00091505040E695001CCAF72BD0FE2F29D02B
:103BB000660F771F881FBB1F261737074807AB07FD
:103BC000B0E809F0BB0B802DBF01FF2793585F4F72
:103BD0003AF09E3F510578F00C9444230C948F23C7
:103BE0005F3FE4F3983ED4F3869577956795B79554
:103BF000F7959F5FC9F7880F911D9695879597F95F
:103C00000895E1E0660F771F881FBB1F62177307D7
:103C10008407BA0720F0621B730B840BBA0BEE1FEC
:103C200088F7E09508950E941A1E6894B1110C94CB
:103C30008F2308950E94742388F09F5798F0B92F1E
:103C40009927B751B0F0E1F0660F771F881F991FD1
:103C50001AF0BA95C9F714C0B13091F00E948E23C2
:103C6000B1E008950C948E23672F782F8827B85FD2
:103C700039F0B93FCCF3869577956795B395D9F729
:103C80003EF490958095709561957F4F8F4F9F4F33
:103C900008950E94B32208F48FEF0895FA01EE0F01
:103CA000FF1F309621053105A1F16115710561F401
:103CB0008038BFE39B0749F168949038810561F033
:103CC0008038BFEF9B0741F099234AF5FF3FE1059C
:103CD0003105210519F1E8940894E795D901AA2343
:103CE00029F4AB2FBE2FF85FD0F310C0FF5F70F444
:103CF000A695E0F7F73950F019F0FF3A38F49F77BE
:103D00009F930DD00F9007FC9058089546F00C94A7
:103D10004A2360E070E080E89FE308954FE79F77D3
:103D20005F934F933F932F930E94491F2F913F9191
:103D30004F915F910E94D7220C94A61E29F416F091
:103D40000C9444230C948E230C944A230E947423D5
:103D5000A8F39638A0F707F80F92E8942BE33AEA15
:103D600048EB5FE70E94ED220F920F920F924DB742
:103D70005EB70F920E94911FE8E6F0E00E94D81E05
:103D80004F915F91EF91FF91E595EE1FFF1F49F075
:103D9000FE57E0684427EE0F441FFA95E1F741957E
:103DA000550B0E940B1F0F9007FE0C94FF1E0895E9
:103DB000DF93CF931F930F93FF92EF92DF927B01DC
:103DC0008C01689406C0DA2EEF010E94EA22FE01FF
:103DD000E894A5912591359145915591A6F3EF0170
:103DE0000E944C1DFE019701A801DA9469F7DF904B
:103DF000EF90FF900F911F91CF91DF9108959B015C
:103E0000AC0160E070E080E89FE30C94A11D0C948D
:103E100044230C94C51F0E947423D8F39923C9F33B
:103E2000940F511DA3F39150504094F059F0882302
:103E300032F0660F771F881F91505040C1F79E3FA8
:103E400051052CF7880F911D9695879597F9089540
:103E50005F3FACF0983E9CF0BB27869577956795C1
:103E6000B79508F4B1609395C1F7BB0F58F711F4FB
:103E700060FFE8CF6F5F7F4F8F4F9F4FE3CF0C9472
:103E80008F2316F00C94C51F0C944A2368940C944D
:103E900044230E947423A8F39923C1F3AEF3DF9364
:103EA000CF931F930F93FF92C92FDD2788232AF00A
:103EB0002197660F771F881FDAF720E030E040E88F
:103EC0005FEB9FE3883920F0803E38F021968F77B2
:103ED0000E94351DE0E9F0E004C00E94351DEDEBC5
:103EE000F0E00E94D81E8B01BE01EC01FB2E6F5743
:103EF00071097595771F880B990B0E94782228E12C
:103F000032E741E35FE30E94EA22AF2D9801AE0160
:103F1000FF900F911F91CF91DF910E944C1D0C9447
:103F20005B23FA01DC01AA0FBB1F9B01AC01BF5749
:103F300028F4222733274427507820C0B75190F423
:103F4000AB2F0024469537952795011CA395D2F3F6
:103F5000002071F0220F331F441FB395DAF30ED007
:103F60000C94341D61307105A0E88A07B94630F41D
:103F70009B01AC016627772788279078309621F03F
:103F8000208331834283538308959F3F31F09150C2
:103F900020F4879577956795B795880F911D96952D
:103FA000879597F90895CF93DF938230910510F4A8
:103FB00082E090E0E0914805F091490520E030E092
:103FC000C0E0D0E0309711F1408151814817590786
:103FD000C0F04817590761F482819381209719F046
:103FE0009B838A832BC0909349058093480526C004
:103FF0002115310519F04217530718F49A01BE0133
:10400000DF01EF010280F381E02DDCCF21153105C6
:1040100009F1281B390B2430310590F412968D914B
:104020009C9113976115710521F0FB0193838283A5
:1040300004C09093490580934805FD01329644C021
:10404000FD01E20FF31F81939193225031092D93CB
:104050003C933AC02091460530914705232B41F40B
:1040600020910601309107013093470520934605C2
:1040700020910401309105012115310541F42DB73E
:104080003EB74091080150910901241B350BE09186
:104090004605F0914705E217F307A0F42E1B3F0BEE
:1040A0002817390778F0AC014E5F5F4F24173507AA
:1040B00048F04E0F5F1F509347054093460581938C
:1040C000919302C0E0E0F0E0CF01DF91CF9108953D
:1040D0000F931F93CF93DF93009709F48CC0FC01DB
:1040E00032971382128200914805109149050115FB
:1040F000110581F420813181820F931F20914605A3
:10410000309147052817390779F5F0934705E09373
:10411000460571C0D80140E050E0AE17BF0750F42B
:1041200012962D913C911397AD012115310509F19E
:10413000D901F3CF9D01DA0133832283608171813C
:10414000860F971F8217930769F4EC012881398144
:10415000260F371F2E5F3F4F318320838A819B813B
:1041600093838283452B29F4F0934905E093480516
:1041700042C01396FC93EE931297ED014991599129
:104180009E01240F351FE217F30771F4808191819E
:10419000840F951F029611969C938E938281938132
:1041A00013969C938E931297E0E0F0E0D80112965C
:1041B0008D919C911397009719F0F8018C01F6CF1F
:1041C0008D919C9198012E5F3F4F820F931F2091FC
:1041D0004605309147052817390769F4309729F4C7
:1041E000109249051092480502C013821282109362
:1041F000470500934605DF91CF911F910F910895D8
:10420000A0E0B0E0E6E0F1E20C949923EC01009725
:1042100021F4CB010E94D31FB8C0FC01E60FF71FA9
:104220009C0122503109E217F30708F4ACC0D90110
:104230000D911C91119706171707B0F00530110565
:1042400008F49FC0C80104978617970708F499C01F
:1042500002501109061B170B019311936D937C9368
:10426000CF010E9468208DC05B01A01AB10A4C01E9
:10427000800E911EA0914805B091490540E050E0A4
:10428000E12CF12C109709F44AC0A815B905D1F515
:104290006D907C901197630182E0C80ED11CCA1406
:1042A000DB0480F1A3014A195B096A0182E0C80EB0
:1042B000D11C1296BC9012971396AC91B5E0CB1618
:1042C000D10440F0B282A38351834083D9016D931E
:1042D0007C930AC00E5F1F4FC301800F911FF9012D
:1042E00091838083EB2DFA2FE114F10431F0D70193
:1042F0001396FC93EE93129744C0F0934905E09314
:1043000048053FC08D919C9111974817590708F4B3
:10431000AC017D0112960D90BC91A02DB3CF809180
:1043200046059091470588159905E1F4461757070A
:10433000C8F48091040190910501009741F48DB774
:104340009EB74091080150910901841B950BE81715
:10435000F907C8F4F0934705E0934605F901718326
:1043600060830FC0CB010E94D31F7C01009759F0DE
:10437000A801BE010E94CF21CE010E946820C70182
:1043800004C0CE0102C080E090E0CDB7DEB7EEE021
:104390000C94B52381E090E0F8940C94CC23FB01BD
:1043A000DC0102C001900D9241505040D8F70895B1
:1043B000FB01DC010D900020E9F7119701900D92AF
:1043C0000020E1F70895FB01DC0101900D9200202F
:1043D000E1F70895FB01DC014150504048F00190A5
:1043E0000D920020C9F701C01D9241505040E0F7E6
:1043F0000895FC0188279927E89421912032E9F358
:10440000293010F02E30C8F32B3241F02D3239F420
:10441000689404C00E943422820F911D2191205380
:104420002A30C0F31EF4909581959F4F0895FB01AB
:10443000DC010D900020E9F7119705900D92002006
:10444000E1F70895FB01DC0105900D920020E1F7F2
:104450000895BB274A3031F4992322F4BDE29095A8
:1044600081959F4F0C9448227AE0979F902D879FCB
:10447000802D910D112408954532510520F44230CC
:1044800010F00C944722FB011082CB010895BB274A
:10449000FB015527AA27880F991FAA1FA41710F000
:1044A000A41B83955051B9F7A05DAA3308F0A95D0C
:1044B000A193009779F7B111B1931192CB010C94AC
:1044C0006122DC01FC01672F71917723E1F73297BC
:1044D00004C07C916D9370836291AE17BF07C8F3DF
:1044E00008950E94B32208F481E00895E89409C079
:1044F00097FB3EF490958095709561957F4F8F4F17
:104500009F4F9923A9F0F92F96E9BB279395F6952C
:10451000879577956795B795F111F8CFFAF4BB0FAA
:1045200011F460FF1BC06F5F7F4F8F4F9F4F16C00E
:10453000882311F096E911C0772321F09EE8872F98
:10454000762F05C0662371F096E8862F70E060E054
:104550002AF09A95660F771F881FDAF7880F9695CD
:10456000879597F90895990F0008550FAA0BE0E871
:10457000FEEF16161706E807F907C0F01216130625
:10458000E407F50798F0621B730B840B950B39F465
:104590000A2661F0232B242B252B21F408950A26CB
:1045A00009F4A140A6958FEF811D811D08950E94F9
:1045B000EA220C945B230E944D2338F00E9454237E
:1045C00020F0952311F00C9444230C944A231124D9
:1045D0000C948F230E946C2370F3959FC1F3950F69
:1045E00050E0551F629FF001729FBB27F00DB11D77
:1045F000639FAA27F00DB11DAA1F649F6627B00D07
:10460000A11D661F829F2227B00DA11D621F739FEF
:10461000B00DA11D621F839FA00D611D221F749FFD
:104620003327A00D611D231F849F600D211D822F44
:10463000762F6A2F11249F5750409AF0F1F088236B
:104640004AF0EE0FFF1FBB1F661F771F881F915098
:104650005040A9F79E3F510580F00C9444230C94E0
:104660008F235F3FE4F3983ED4F386957795679563
:10467000B795F795E7959F5FC1F7FE2B880F911DC2
:104680009695879597F9089597F99F6780E870E068
:1046900060E008959FEF80EC089500240A941616B8
:1046A000170618060906089500240A941216130620
:1046B000140605060895092E0394000C11F48823AE
:1046C00052F0BB0F40F4BF2B11F460FF04C06F5FCA
:1046D0007F4F8F4F9F4F089557FD9058440F551FA0
:1046E00059F05F3F71F04795880F97FB991F61F074
:1046F0009F3F79F087950895121613061406551FEB
:10470000F2CF4695F1DF08C0161617061806991F56
:10471000F1CF86957105610508940895E894BB274B
:1047200066277727CB0197F908952F923F924F92F2
:104730005F926F927F928F929F92AF92BF92CF9231
:10474000DF92EF92FF920F931F93CF93DF93CDB73A
:10475000DEB7CA1BDB0B0FB6F894DEBF0FBECDBFB2
:1047600009942A88398848885F846E847D848C8483
:104770009B84AA84B984C884DF80EE80FD800C818C
:104780001B81AA81B981CE0FD11D0FB6F894DEBF6F
:104790000FBECDBFED01089512E0C1ECD2E004C020
:1047A000FE010E942E1D2196C23CD107C9F7F89444
:0247B000FFCF39
:1047B20001F0000600004A0580002C041404FF03E7
:1047C200E503C9039A0388036E034C03000000004B
:1047D200FD087908C608A408B808440900000000CA
:1047E2004C0C7908CA09E109A109BB095265616447
:1047F20079210057726974696E67206F7574206E33
:104802006577206379636C6520636F756E7400420F
:10481200617474657279206E616D653A204E2F4124
:104822000049443A200043617061636974793A2017
:10483200004379636C65733A200043656C6C733A8C
:104842002000432D56616C75653A200052432D5469
:10485200686F756768747320496E666F0043005213
:1048620065766F2D496E666F004261747465727968
:10487200206E616D653A20000D0A00206973206187
:1048820020747261696C657220626C6F636B3A00AE
:104892002069732061206461746120626C6F636BB4
:1048A2003A005043445F41757468656E7469636190
:1048B20074652829206661696C65643A20004D4957
:1048C200464152455F5772697465282920666169BD
:1048D2006C65643A2000626C6F636B2077617320B1
:1048E2007772697474656E005043445F41757468F1
:1048F200656E7469636174652829206661696C65F7
:1049020064202872656164293A20004D494641526B
:10491200455F726561642829206661696C65643A45
:104922002000626C6F636B20776173207265616433
:02493200000083
:00000001FF
