:100000000C94C9020C94F1020C94F1020C946B0D47
:100010000C94470D0C94230D0C94F1020C94F102F6
:100020000C94F1020C94F1020C94F1020C94F10284
:100030000C94F1020C94F1020C94F1020C94F10274
:100040000C94FC0B0C94F1020C94EF0A0C94C90A6A
:100050000C94F1020C94F1020C94F1020C94F10254
:100060000C94F1020C94F10207634236B79BD8A7B7
:100070001A39685618AEBAAB558C1D3CB7CC5763CD
:10008000BD6DEDFD753EF6177231BF000000803F7B
:1000900008000000BE922449123EABAAAA2ABECD97
:1000A000CCCC4C3E00000080BEABAAAAAA3E000009
:1000B0000000BF000000803F000000000008417801
:1000C000D3BB4387D1133D190E3CC3BD4282AD2B38
:1000D0003E68EC8276BED98FE1A93E4C80EFFFBE30
:1000E00001C4FF7F3F00000000000000000024006A
:1000F00027002A0000000008000201000003040796
:10010000000000000000000000C201000100050026
:1001100005000300030000E1000001000F000F00D4
:100120000D000D0000960000020019001A001700D3
:100130001700127A00000700200021001D001D009A
:10014000807000000B002300230020002000004BE3
:10015000000014003700370034003400403800003D
:100160001E004B004B0048004800482600003100AC
:10017000710071006F006F00E42500003100710014
:1001800071006F006F008025000032007200720065
:1001900070007000C01200006E00E900E900E60087
:1001A000E60060090000E500D801D801D501D501BD
:1001B000B0040000D301B403B403B103B103580287
:1001C0000000B40367076707620762072C0100009D
:1001D0006707DD0EDD0EDA0EDA0E200000432D5625
:1001E000616C7565000043656C6C73000043796356
:1001F0006C6573006D416800436170616369747977
:100200000000494400524649442D53656E736F7295
:10021000002020524649442D426174746572790071
:1002200020524354204A65746920546F6F6C7300E8
:100230002020524649442D42617474657279002031
:10024000524354204A65746920546F6F6C73005098
:1002500072657373203C20746F2065786974005454
:100260006167205772697474656E21005265766FFC
:1002700021203C20746F20657869740049276D2027
:100280006E6F742077726974696E67004261636B88
:100290003A203C00536176653A20557020616E64C7
:1002A00020446E005365742055702B446E204E65BB
:1002B00078743E0043656C6C733A2000536574207B
:1002C00055702F446E204E6578743E00432D566164
:1002D0006C75653A20005365742055702F446E206C
:1002E0004E6578743E004379636C65733A20005321
:1002F00065742055702F446E204E6578743E00431F
:10030000617061636974793A200053657420557097
:100310002F446E204E6578743E0054616720494436
:10032000233A200020433A002043656C3A002043E2
:10033000793A004361703A00233A0020205246493E
:10034000442D426174746572790020524354204AEE
:1003500065746920546F6F6C730041204D494641AC
:100360005245205049434320726573706F6E646537
:10037000642077697468204E414B2E0054686520D4
:100380004352435F4120646F6573206E6F74206D2C
:10039000617463682E00496E76616C6964206172D5
:1003A00067756D656E742E00496E7465726E616C52
:1003B000206572726F7220696E2074686520636FA9
:1003C00064652E2053686F756C64206E6F742068AE
:1003D000617070656E2E00412062756666657220E0
:1003E0006973206E6F742062696720656E6F756730
:1003F000682E0054696D656F757420696E20636F97
:100400006D6D756E69636174696F6E2E00436F6CFC
:100410006C697373696F6E20646574656374656479
:100420002E004572726F7220696E20636F6D6D755C
:100430006E69636174696F6E2E00537563636573D3
:10044000732E00556E6B6E6F776E206572726F72D1
:100450000000000000250028002B00000000002301
:100460000026002900040404040404040402020217
:1004700002020203030303030301020408102040E5
:100480008001020408102001020408102000070E59
:10049000091C1B1215383F363124232A2D70777E14
:1004A000796C6B6265484F464154535A5DE0E7EE04
:1004B000E9FCFBF2F5D8DFD6D1C4C3CACD90979E34
:1004C000998C8B8285A8AFA6A1B4B3BABDC7C0C9A9
:1004D000CEDBDCD5D2FFF8F1F6E3E4EDEAB7B0B954
:1004E000BEABACA5A28F88818693949D9A272029C4
:1004F0002E3B3C35321F18111603040D0A57505974
:100500005E4B4C45426F68616673747D7A898E8755
:100510008095929B9CB1B6BFB8ADAAA3A4F9FEF793
:10052000F0E5E2EBECC1C6CFC8DDDAD3D4696E6783
:100530006075727B7C51565F584D4A4344191E17B3
:100540001005020B0C21262F283D3A33344E49402A
:100550004752555C5B7671787F6A6D64633E3930D3
:100560003722252C2B0601080F1A1D1413AEA9A043
:10057000A7B2B5BCBB9691989F8A8D8483DED9D0F3
:10058000D7C2C5CCCBE6E1E8EFFAFDF4F300141CCA
:10059000C61C11241FBECFEFD8E0DEBFCDBF13E0D5
:1005A000A0E0B1E0E2EFF7E402C005900D92AC30BC
:1005B000B107D9F725E0ACE0B3E001C01D92A83D3A
:1005C000B207E1F712E0C8ECD2E004C02197FE01C7
:1005D0000E944E1DC73CD107C9F70E94A5110C947B
:1005E000EC230C940000CF92DF92FF920F931F93A5
:1005F000CF93DF931F92CDB7DEB7082F162F60E0A1
:100600008091A20579830E944A0B82E10E948F0D9E
:10061000F12EC12E7981D72E8C2D8F19801730F4B1
:10062000F60181916F010E948F0DF6CF61E08091FC
:10063000A2050F90DF91CF911F910F91FF90DF9056
:10064000CF900C944A0B8091A7039091A8038157F7
:100650009540A1F080918E058E7F80938E058FB797
:10066000F8941092A6031092A50321E735E0309389
:10067000A8032093A7038FBF81E0089580E0089529
:100680002F923F924F925F926F927F928F929F92A2
:10069000AF92BF92CF92DF92EF92FF920F931F9390
:1006A000CF93DF9300D000D0CDB7DEB72B013C0154
:1006B00020E030E0A9010E94912287FF05C020E0E0
:1006C00030E040E05FEB04C020E030E040E05FE37A
:1006D000C301B2010E94551D6B017C0120E030E096
:1006E000A901C301B2010E94912287FF04C0F7FA59
:1006F000F094F7F8F094A12CB12C8DEC282E9CEC02
:10070000392E8CEC8B839DE39C8320E030E040E22B
:1007100051E4B1018B819C810E94F7224B018C0135
:10072000A70196010E94912218163CF0AFEFAA1A79
:10073000BA0A14010B831C83E8CF20E030E0A90142
:10074000C301B2010E94912287FF06C08DE280930F
:10075000950301E010E002C000E010E0A114B10434
:1007600039F4F801EB56FC4F80E380830F5F1F4F95
:10077000812C912CF401E00FF11FFA83E9838A1494
:100780009B04B1F191014B815C81C701B6010E94CC
:10079000C11D0E94331E2B013C0169817A816B5679
:1007A0007C4F4AE0C2010E944922B201550C880BDD
:1007B000990B0E94982291014B815C810E94F72243
:1007C0009B01AC01C701B6010E94541D6B017C0165
:1007D00020E030E040E251E4B1018B819C810E9435
:1007E000C11D1B018B839C83BFEF8B1A9B0AC2CF59
:1007F000EB56FC4F108285E993E00F900F900F901D
:100800000F90DF91CF911F910F91FF90EF90DF90AC
:10081000CF90BF90AF909F908F907F906F905F90A0
:100820004F903F902F900895A5E7B3E020E040E27D
:1008300050E15A0F21111FC0FC0134913323D9F02C
:100840003C93119601965A13F5CF80E090E020E09A
:1008500030E2DC01AB58BC4F211110C0FB01E80FA6
:10086000F91FE491EE2351F05096EC9301968031FC
:10087000910579F708954C9321E0E3CF50963C938E
:1008800021E0F4CFCF93DF93E5E6F3E00190002081
:10089000E9F73197E556F340C5E6D3E0A5E7B3E0C5
:1008A00080E090E28E1718F428812C9301C09C936D
:1008B0008F5F219611968031A9F7E5E5F3E001906D
:1008C0000020E9F73197E555F34080E090E020E221
:1008D000DC01AB58BC4F8E1738F4EC01CB5ADC4F1F
:1008E000388150963C9302C050962C9301968031EB
:1008F000910571F7DF91CF910895009769F0FC01A0
:1009000001900020E9F73197AF01481B590BBC015A
:1009100089EA93E00C947A0880E090E008950F93C0
:100920001F93CF93DF938C01C0E0D0E0F801EC0F70
:10093000FD1F6491662371F0E091A903F091AA0371
:100940000190F081E02D89EA93E00995892B11F05F
:100950002196ECCF8BE592E00E947D048C0F9D1FC9
:10096000DF91CF911F910F910895CF93DF930E9454
:100970007D04EC018BE592E00E947D048C0F9D1FAD
:10098000DF91CF9108950C947D040F931F93CF9323
:10099000C82F06E915E060E0F80184850E944A0B43
:1009A0008C2F8E7780680E948F0D80E00E948F0DC3
:1009B000C82F61E0F80184850E944A0B8C2FCF91EB
:1009C0001F910F9108950F931F93CF93DF93082FDB
:1009D000162FC6E9D5E060E08C850E944A0B802F77
:1009E0008E770E948F0D812F0E948F0D61E08C8584
:1009F000DF91CF911F910F910C944A0BCF93C82F89
:100A00000E94C504682F60688C2FCF910C94E3047A
:100A1000EF92FF920F931F93CF93DF937C01C62F2A
:100A20008A0160E082E00E94E30464E08AE00E94C0
:100A3000E30484E10E94FE04B7018C2F0E94F302BC
:100A400063E082E00E94E304C8E8D3E18AE00E9408
:100A5000C50482FD04C02197C9F784E00FC060E09F
:100A600082E00E94E30484E40E94C504F8018083CC
:100A700082E40E94C504F801818381E0DF91CF9177
:100A80001F910F91FF90EF9008952F923F924F92F8
:100A90005F926F927F928F929F92AF92BF92CF920E
:100AA000DF92EF92FF920F931F93CF93DF9300D0CB
:100AB0001F92CDB7DEB7982E762E2A01C114D1042D
:100AC00019F0F601608101C060E0662EF0E1AF9E92
:100AD000600C112460E082E02B830E94E3046FE746
:100AE00088E00E94E30484E10E94FE04B2012B81AD
:100AF000822F0E94F302662D8AE10E94E304692D91
:100B000082E00E94E3048CE0981203C08AE10E9414
:100B1000FE0490ED492E97E0592E88E00E94C5040E
:100B2000982F972139F480FDA2C0E1E04E1A5108B8
:100B3000A1F79DC08CE00E94C504382E837109F096
:100B400098C00115110509F45FC0E114F10409F41E
:100B50005BC084E10E94C504982EF701808189154D
:100B600008F489C09082992009F444C060E0809123
:100B7000A2050E944A0B9A9482E90E948F0D202EB2
:100B8000380144244394512C862D8219891528F567
:100B900081111AC0AA20C1F08A2DB12C883048F4E6
:100BA0009201082E01C0220F0A94EAF7B22A8F5F41
:100BB000F5CF82E90E948F0D2B2D2095F8019081B1
:100BC00092238B21892B04C082E90E948F0DF301AF
:100BD0008083FFEF6F1A7F0AD7CF5801A90CB11C91
:100BE00080E00E948F0DF501808361E08091A20575
:100BF0000E944A0B88E10E94C5048770B82EC11478
:100C0000D10411F0F601808333FC37C001151105C2
:100C1000B1F1E114F10499F1882089F1F7016081C3
:100C2000613021F4F4E0BF1203C01FC0623010F441
:100C300088E026C0B110FCCF6250AE014F5F5F4F1D
:100C4000C8010E9408058130D9F4F7018081080F9E
:100C5000111DF8013297908189819813E9CF31965F
:100C600090818A819813E4CF0AC089E009C084E0AA
:100C700007C082E005C085E003C083E001C081E0D9
:100C80000F900F900F90DF91CF911F910F91FF90D8
:100C9000EF90DF90CF90BF90AF909F908F907F901C
:100CA0006F905F904F903F902F9008958F92AF92EA
:100CB000CF92DF92EF92FF920F931F93CF93DF9328
:100CC000CDB7DEB764970FB6F894DEBF0FBECDBFC9
:100CD000162FE62EF12CA701BC01CE0101960E9431
:100CE000EF2141E050E04C0F5D1F4E0D5F1D612F65
:100CF000CE0101960E940805813011F582E18C8BAE
:100D00001B8A22E0210F812CA12CCE0143966C017D
:100D100001967C018E010F5F1F4FA80160E38CE0FC
:100D20000E944505813061F48C89813041F49B89B2
:100D3000943029F499819A3019F089E001C082E059
:100D400064960FB6F894DEBF0FBECDBFDF91CF9192
:100D50001F910F91FF90EF90DF90CF90AF908F9009
:100D600008958F92AF92CF92DF92EF92FF920F93FE
:100D70001F93CF93DF93CDB7DEB72C970FB6F894C0
:100D8000DEBF0FBECDBF90E699838A83DE01139646
:100D9000EFE4F3E086E08E0F91919D938E13FCCFEC
:100DA000809197058987809198058A878091990518
:100DB0008B8780919A058C87812CA12CC12CD12CFA
:100DC000E12CF12C00E010E02CE0AE014F5F5F4F12
:100DD00060E18EE00E9445052C960FB6F894DEBFC8
:100DE0000FBECDBFDF91CF911F910F91FF90EF907C
:100DF000DF90CF90AF908F9008958F929F92AF9297
:100E0000BF920F931F93CF93DF93CDB7DEB7A19718
:100E10000FB6F894DEBF0FBECDBF19A2423008F462
:100E20004AE08E010F5D1F4F842E912CA12CB12C16
:100E3000A50194010E94181DE62FB901CA010150B5
:100E40001109EA3014F4E05D01C0E95CD801EC93CB
:100E5000232B242B252B61F7C8010E947D04A1962A
:100E60000FB6F894DEBF0FBECDBFDF91CF911F91BB
:100E70000F91BF90AF909F908F900895CF92DF9287
:100E8000EF92FF92CF93DF936B017C01E091A90376
:100E9000F091AA030190F081E02D6DE289EA93E0E0
:100EA0000995EC0166277727CB016C197D098E091E
:100EB0009F094AE00E94FD068C0F9D1FDF91CF9194
:100EC000FF90EF90DF90CF900895EF92FF920F93F5
:100ED0001F93CF93DF9300D0CDB7DEB77C018C0199
:100EE00097FF02C00D5F1F4F0360B7010F2C000C6E
:100EF000880B990B23E0E216F10484F097012F5F31
:100F00003F4F23703327232B49F44AE00E94FD060C
:100F100084E692E00E94B50482E050C097FF03C0CF
:100F20000E943E0703C04AE00E94FD0689E792E066
:100F30000E94B504802F0E94B106182F8130B1F0B5
:100F40008BE892E00E94C3041150193048F4E12F5D
:100F5000F0E0EE0FFF1FE65FFE4F8081918102C03F
:100F600083E494E00E948F0483E028C080EA8983B0
:100F7000EA8262E0CE0101960E945606182F813067
:100F800031F460E18FE393E00E945606182F113090
:100F9000B9F087EA92E00E94C3041150193048F476
:100FA000E12FF0E0EE0FFF1FE65FFE4F80819181A1
:100FB00002C083E494E00E948F0484E090E004C0C7
:100FC0008FEB92E00E94B5040F900F90DF91CF91CC
:100FD0001F910F91FF90EF9008958F92AF92CF9253
:100FE000DF92EF92FF920F931F93CF93DF936115E0
:100FF0007105F9F0FA0190819231D8F07A01EB0194
:1010000090E398838983AB014E5F5F4F62E0CE012E
:101010000E940805813071F488248394A12CC12C8E
:10102000D12C8E0124E0AE0160E38CE00E944505E6
:1010300001C085E0DF91CF911F910F91FF90EF905C
:10104000DF90CF90AF908F9008950F931F93CF9321
:10105000DF931F92CDB7DEB7082F282F392F37FF28
:1010600002C02D5F3F4F822F83600E94B106182F70
:101070008130B1F081ED92E00E94C304115019302B
:1010800048F4E12FF0E0EE0FFF1FE65FFE4F808196
:10109000918102C083E494E00E948F0483E022C027
:1010A00082E18983AE014F5F5F4F6DE273E0802F75
:1010B0000E94ED07182F8130B9F084EF92E00E9472
:1010C000C3041150193048F4E12FF0E0EE0FFF1F78
:1010D000E65FFE4F8081918102C083E494E00E942C
:1010E0008F0484E090E000C00F90DF91CF911F91BA
:1010F0000F910895CF92DF92EF92FF920F931F937B
:10110000CF93DF936C017A018B01C0E0D0E0CE1564
:10111000DF0589F0D8016D918D01D601ED91FC912B
:101120000190F081E02DC6010995892B11F47E0113
:1011300002C02196ECCFC701DF91CF911F910F9193
:10114000FF90EF90DF90CF900895FC01918D828DFC
:10115000981761F0828DDF01A80FB11D5D968C910B
:10116000928D9F5F9F73928F90E008958FEF9FEF16
:101170000895FC01918D828D981731F0828DE80FD2
:10118000F11D858D90E008958FEF9FEF0895FC018C
:10119000918D228D892F90E0805C9F4F821B910959
:1011A0008F739927089589EA93E00E94C70821E088
:1011B000892B09F420E0822F0895FC01848DDF0142
:1011C000A80FB11DA35ABF4F2C91848D90E00196BA
:1011D0008F739927848FA689B7892C93A089B189A9
:1011E0008C9180648C93938D848D981306C00288B3
:1011F000F389E02D80818F7D80830895EF92FF92A7
:101200000F931F93CF93DF93EC0181E0888F9B8D29
:101210008C8D981305C0E889F989808185FD24C0EB
:10122000F62E0B8D10E00F5F1F4F0F731127E02E6E
:101230008C8DE8120CC00FB607FCFACFE889F9894B
:10124000808185FFF5CFCE010E94DD08F1CF8B8D27
:10125000FE01E80FF11DE35AFF4FF0820B8FEA8980
:10126000FB898081806207C0EE89FF896083E889FD
:10127000F98980818064808381E090E0DF91CF9163
:101280001F910F91FF90EF900895CF93DF93EC01A2
:10129000888D8823C9F0EA89FB89808185FD05C096
:1012A000A889B9898C9186FD0FC00FB607FCF5CFD0
:1012B000808185FFF2CFA889B9898C9185FFEDCF18
:1012C000CE010E94DD08E7CFDF91CF91089580E045
:1012D00090E0892B29F00E94D30881110C94000022
:1012E00008953FB7F8948091CF059091D005A091D3
:1012F000D105B091D20526B5A89B05C02F3F19F0A6
:101300000196A11DB11D3FBFBA2FA92F982F882785
:10131000820F911DA11DB11DBC01CD0143E0660FDF
:10132000771F881F991F4A95D1F70895DC015196C0
:10133000ED91FC915297908150968C9180958923E4
:10134000808308952091A7033091A80328173907B7
:1013500081F49091A5038091A603981751F0E09134
:10136000A503F0E0E655FA4F8081082E000C990B9A
:1013700008958FEF9FEF08952091A7033091A80360
:101380002817390739F48FB7F8941092A6031092F2
:10139000A5038FBF08952091A7033091A8032817B4
:1013A000390769F48091A6032091A50390E0809607
:1013B000821B910960E270E00E94041D08958FEF86
:1013C0009FEF08952091A7033091A80328173907AC
:1013D000B9F49091A5038091A6039817A1F0E0912C
:1013E000A503F0E0E655FA4F80812091A50330E097
:1013F0002F5F3F4F2F7133272093A50390E008956F
:101400008FEF9FEF08958EEF9FEF08950E94EA21DE
:101410000F931F93CF93DF93EC01888199810097FD
:1014200029F02A813B812617370788F48B016F5FEB
:101430007F4F0E942021009761F0998388831B834E
:101440000A832C813D81232B11F4FC01108281E061
:1014500001C080E0DF91CF911F910F910895EF922D
:10146000FF920F931F93CF93DF93FC01248135816B
:101470006115710511F480E019C041155105A9F0FD
:101480007B01EC018A01020F131FB8010E94080AB8
:10149000882389F3288139818C819D81B701820F4E
:1014A000931F0E9403221D830C8381E0DF91CF9163
:1014B0001F910F91FF90EF900895CF93DF93EC0170
:1014C00088819981009711F00E94882019821882E2
:1014D0001D821C821B821A82DF91CF910895EF92A8
:1014E000FF920F931F93CF93DF93EC017B018A014F
:1014F000BA010E94080A811104C0CE010E945D0A4F
:1015000007C01D830C83B701888199810E94032243
:10151000CE01DF91CF911F910F91FF90EF90089531
:10152000EF92FF920F931F93CF93DF93CDB7DEB768
:1015300029970FB6F894DEBF0FBECDBF8C01862F62
:10154000F80111821082138212821582148250E0F7
:101550009E012F5F3F4F7901B90190E00E945C220C
:10156000F70101900020E9F73197AF014E195F09AB
:10157000B701C8010E946F0A29960FB6F894DEBF22
:101580000FBECDBFDF91CF911F910F91FF90EF90D4
:1015900008951F920F920FB60F9211242F933F932D
:1015A0004F935F936F937F938F939F93AF93BF936B
:1015B000EF93FF9389EA93E00E94DD08FF91EF919A
:1015C000BF91AF919F918F917F916F915F914F915B
:1015D0003F912F910F900FBE0F901F9018951F9263
:1015E0000F920FB60F9211242F938F939F93EF9327
:1015F000FF93E091B903F091BA038081E091BF03BA
:10160000F091C00382FD12C090818091C2038F5F70
:101610008F732091C303821751F0E091C203F0E071
:10162000E755FC4F958F8093C20301C08081FF91E5
:10163000EF919F918F912F910F900FBE0F901F9060
:101640001895833081F028F4813099F08230A1F030
:1016500008958730A9F08830B9F08430D1F48091B2
:1016600080008F7D03C0809180008F778093800001
:10167000089584B58F7702C084B58F7D84BD0895A9
:101680008091B0008F7703C08091B0008F7D8093F0
:10169000B00008951F93CF93DF93282F30E0F90116
:1016A000EC50FF4F8491F901E758FB4FD491F901B9
:1016B000EB59FB4FC491CC23C9F0162F81110E9426
:1016C000210BEC2FF0E0EE0FFF1FEF5AFB4FA5911F
:1016D000B4918FB7F894111105C09C91ED2FE0954E
:1016E000E92302C0EC91ED2BEC938FBFDF91CF91FA
:1016F0001F910895CF93DF9390E0FC01E758FB4FD3
:101700002491FC01EB59FB4F8491882361F190E017
:10171000880F991FFC01E651FF4FC591D491FC0140
:10172000EF5AFB4FA591B491611109C09FB7F8948E
:101730008881209582238883EC912E230BC0623010
:1017400061F49FB7F8943881822F80958323888332
:10175000EC912E2B2C939FBF06C08FB7F894E88195
:101760002E2B28838FBFDF91CF9108958F929F9268
:10177000AF92BF92CF92DF92EF92FF926B017C010A
:101780000E9471094B015C01C114D104E104F10410
:10179000F1F00E947109DC01CB0188199909AA09AD
:1017A000BB09883E9340A105B10570F321E0C21A40
:1017B000D108E108F10888EE880E83E0981EA11C8C
:1017C000B11CC114D104E104F10419F7DDCFFF907D
:1017D000EF90DF90CF90BF90AF909F908F90089543
:1017E0002FB7F8946091CB057091CC058091CD0511
:1017F0009091CE052FBF08951F920F920FB60F92B2
:1018000011242F933F938F939F93AF93BF93809116
:10181000CB059091CC05A091CD05B091CE0530912E
:10182000CA0526E0230F2D3720F40296A11DB11D15
:1018300005C029E8230F0396A11DB11D2093CA05F9
:101840008093CB059093CC05A093CD05B093CE05A6
:101850008091CF059091D005A091D105B091D2058E
:101860000196A11DB11D8093CF059093D005A09343
:10187000D105B093D205BF91AF919F918F913F91C8
:101880002F910F900FBE0F901F90189520E0019799
:101890002FEF8F3F9207D9F70895CF92DF92EF9203
:1018A000FF920F931F93CF93DF93EC01898D9A8D55
:1018B000009729F421E030E03B832A8364C0FFB61F
:1018C000F89428E030E090E081E0482F462309F0CA
:1018D0009F5F880F21503109C1F78E8D81119F5F65
:1018E000E62E192F1095CE010E949609898D9A8DAA
:1018F00004960E94460C88E0C82ED12C01E0802F6F
:101900008E2139F0E989FA8990818889892B808331
:1019100003C0CE010E949609898D9A8D0E94460CC3
:10192000000F81E0C81AD10851F78E8D882339F055
:10193000E989FA8990818889892B808303C0CE0147
:101940000E949609898D9A8D0E94460C10FF07C04F
:10195000E989FA8990818889892B808303C0CE0127
:101960000E949609898D9A8D0E94460CE989FA8910
:1019700090818889892B8083FFBE8B8D9C8D0E94EE
:10198000460C81E090E0DF91CF911F910F91FF9085
:10199000EF90DF90CF900895EF92FF920F931F93F7
:1019A000CF93DF93C091A703D091A803209709F4A8
:1019B00043C08B899C890E94460C88E0E82EF12C5C
:1019C00010E001E08D899E890E94460CEE85FF851E
:1019D00090818D85892311F0102B03C0802F809575
:1019E0001823000F81E0E81AF10861F78D899E89BC
:1019F0000E94460C8F89988D0E94460C8091A60308
:101A00002091A50390E001968F71992730E082170D
:101A1000930779F0E091A603F0E0E655FA4F1083C2
:101A20008091A60390E001968F7199278093A60379
:101A300003C08D8D81608D8FDF91CF911F910F91AC
:101A4000FF90EF9008951F920F920FB60F921124FE
:101A50002F933F934F935F936F937F938F939F93B6
:101A6000AF93BF93EF93FF930E94CC0CFF91EF9144
:101A7000BF91AF919F918F917F916F915F914F91A6
:101A80003F912F910F900FBE0F901F9018951F92AE
:101A90000F920FB60F9211242F933F934F935F93A2
:101AA0006F937F938F939F93AF93BF93EF93FF9326
:101AB0000E94CC0CFF91EF91BF91AF919F918F91BC
:101AC0007F916F915F914F913F912F910F900FBE3A
:101AD0000F901F9018951F920F920FB60F9211241E
:101AE0002F933F934F935F936F937F938F939F9326
:101AF000AF93BF93EF93FF930E94CC0CFF91EF91B4
:101B0000BF91AF919F918F917F916F915F914F9115
:101B10003F912F910F900FBE0F901F9018958EBD83
:101B200000000DB407FEFDCF8EB50895CF93DF936F
:101B3000C0E0D0E08091700590E0C817D907ECF4C0
:101B4000209761F00197C817D90741F081E02091F3
:101B50006E0530916F05C217D30709F480E0FE01CE
:101B6000E654FB4F608180938F0581E795E00E94EA
:101B70004D0C10928F052196DDCFDF91CF91089506
:101B80002F923F924F925F926F927F928F929F928D
:101B9000AF92BF92CF92DF92EF92FF920F931F937B
:101BA000CF93DF93CDB7DEB7A0970FB6F894DEBF23
:101BB0000FBECDBF9091B8049923C9F02EE72093B2
:101BC000BA0422E92093BB0423E22093BC0490933F
:101BD000BD0490910301992311F0915003C010921C
:101BE000B80496E09093030104E010E002C000E026
:101BF00010E09091B804911197C19EE79093BA04B8
:101C00009FE99093BB041092BC0495E19093BD04AE
:101C100094EA9093BE049CEA9093BF0497E090935B
:101C2000C0041092C1048111E8C080E48093BC0418
:101C30007090B904809046049090470408E010E04A
:101C4000612CD62CD70CED2DF0E0E815F9050CF041
:101C5000C7C0DF01AA0FBB1FA856BB4FAD90BC90F9
:101C6000A114B10409F4B8C0D29430EFD322C80152
:101C70008A5B9B4F7C01DC01AC58BF4FDC92E8577C
:101C8000FB4FC080CC2021F093E09C1590F104C064
:101C9000D5016D917C9130C06C2D70E080E090E0BA
:101CA0000E9496229B01AC0160E070E080E291E42A
:101CB0000E946E1EF50120813181428153810E9474
:101CC000F7221B012C0120E030E0A9010E94691ECF
:101CD00020E030E040E05FE387FD05C0C201B101D4
:101CE0000E94551D04C0C201B1010E94541D0E94F2
:101CF000331EF3E0FC15B0F0F701EC58FF4F8D2DCB
:101D0000816080837F79D12C20E2C29ED02CCC24AC
:101D100011246C297D2931966083319670830D5F83
:101D20001F4F5AC084E0C81211C0F701EC58FF4F92
:101D30008D2D846080833196D5018C91808331967E
:101D400011968C9180833196108219C0B5E0CB1228
:101D500019C0F701EC58FF4F8D2D85608083F50188
:101D60008281F701EB58FF4F8083D50111968C914A
:101D700011973196808331968C918F7180830C5F9F
:101D80001F4F2AC0B9E0CB1227C0F701EC58FF4F14
:101D90008D2D89608083F5018381F701EB58FF4F1A
:101DA0008083D50112968C9112973196808311967B
:101DB0008C911197319680838C91F801E254FB4FFE
:101DC00080838C91853421F08E3421F4108202C0FE
:101DD000B0E2B0830B5F1F4F6394E6E06E1231CF29
:101DE00086E0870D282F30E0281539051CF48093F4
:101DF000B9047BC01092B90478C0E091D305F0E03B
:101E0000EE0FFF1FE85BFB4F608171817E01F1E106
:101E1000EF0EF11CC7010E944222E091D305F0E0D1
:101E2000EE0FFF1FE859FB4F608171818E010F5F3C
:101E30001F4FC8010E9442228091D3058093C204A3
:101E4000F70101900020E9F73197EE19FF09EE0F35
:101E5000EE0FEE0FD8010D900020E9F71197A01BAF
:101E6000B10BA370EA2BE093C304D7012AE030E062
:101E7000F70101900020E9F73197AF014E195F0992
:101E8000F901EC58FF4FBD016E197F096417750702
:101E900038F49D91EA5BFB4F90832F5F3F4FE8CF73
:101EA000EA5BFB4FA801201B310BB901640F751FC2
:101EB000D8010D900020E9F71197A01BB10B7A0112
:101EC000E01AF10AEA16FB0628F4DA019D91AD0149
:101ED0009193EBCF8B018F5F90E0609146047091FE
:101EE00047040E94041D8093D3058091BC049EEF9B
:101EF000900F892B8093BC0422E0E0E0822F90E0D9
:101F0000801791075CF4DC01A654BB4F8C91E82745
:101F1000F0E0E357FB4FE4912F5FF0CFD801A654D8
:101F2000BB4FEC930F5F1F4FC8018A5B9B4FFC01B7
:101F3000EC58FF4F2EEF208310936F0500936E0532
:101F4000D801A554BB4FE5E7F3E020E22E0F319115
:101F50003D932E13FCCFFC01EB56FF4F8FEF808398
:101F60000E5D1F4F0093700581E0A0960FB6F894A8
:101F7000DEBF0FBECDBFDF91CF911F910F91FF90BC
:101F8000EF90DF90CF90BF90AF909F908F907F9019
:101F90006F905F904F903F902F900895CF93DF9375
:101FA000FC01448155816081718189EA93E00E943E
:101FB0007A08EC018BE592E00E947D048C0F9D1F56
:101FC000DF91CF910895CF93DF93BC0180E090E043
:101FD0004AE00E94FD06EC018BE592E00E947D0440
:101FE0008C0F9D1FDF91CF910895CF93DF9300D089
:101FF000CDB7DEB789831A8241E050E0BE016F5F42
:102000007F4F80E995E00E942F0A0F900F90DF919B
:10201000CF9108951F93CF93DF931F92CDB7DEB773
:10202000182F69830E94C504698160956823812FF8
:102030000F90DF91CF911F910C94E3042F923F9268
:102040004F925F926F927F928F929F92AF92BF92C8
:10205000CF92DF92EF92FF920F931F93CF93DF9374
:10206000CDB7DEB72C970FB6F894DEBF0FBECDBF4D
:1020700060E88CE10E940A109924939444244394CC
:10208000512C22E0921651F033E0931661F081E07A
:102090009812ECC083E98983B12C09C085E9898352
:1020A00053E0B52E04C087E9898346E0B42E312C75
:1020B00033E0232E90E239121DC0E0E7EA839C81D1
:1020C0008B8189279D8189279E8189278F83AE01F6
:1020D000485F5F4F67E0CE0101960E94080581309E
:1020E00009F0C8C01B862A869E01295F3F4F39012F
:1020F00029E01EC0932D97709B87432D45954595EC
:10210000459582E0840F292F30E1839F200D112413
:102110002A8321E0911101C020E0280F66246394F6
:10212000712C6C0E7D1E680E711C87E0841B8A87E3
:10213000AB846A2D6295607F6A0D8AE12C870E94CC
:10214000E304812CCE010B966C01FE013A967F01CF
:1021500083012C85AE014F5F5F4F60E38CE00E94EE
:102160004505833091F58CE10E94C50485FD7CC056
:102170008F7109F480E2482F50E0632D330C770B08
:10218000641775070CF072C0382ECA01019787706A
:102190009927242F25952595259541E0420F21E08B
:1021A000009709F420E0240FE1E0F0E0EC0FFD1FC0
:1021B000E20FF11D920102C0220F331F8A95E2F750
:1021C000C9019081892B808375CF813009F052C07D
:1021D00030E2331619F020E2322E6FCF8B8188382F
:1021E00019F443E023E002C042E024E080E090E004
:1021F0006B2D70E0FC01E60FF71FEA56FA4F542FE3
:10220000580FA1E0B0E0AC0FBD1FA50FB11D5C9150
:1022100051830196821770F38A85833049F58B8547
:10222000811126C0AE014D5F5F4F61E0C3010E9486
:1022300008058130F9F49B81F301818198131CC05A
:102240009C818281981318C0808182FF02C0939480
:1022500018CF8093A105892D880F382F390D3F5F46
:102260003093960591E009C093E007C096E005C061
:1022700092E003C0982F01C098E081E0913009F00E
:1022800080E02C960FB6F894DEBF0FBECDBFDF9175
:10229000CF911F910F91FF90EF90DF90CF90BF9063
:1022A000AF909F908F907F906F905F904F903F90F6
:1022B0002F9008958F92AF92CF92DF92EF92FF927C
:1022C0000F931F93CF93DF9300D000D01F92CDB711
:1022D000DEB782E08D8386E28C8360E88CE10E9429
:1022E0000A1087E08B83812CA12CCE0103966C0110
:1022F00002967C018E010F5F1F4F21E0AE014C5F03
:102300005F4F60E38CE00E944505813039F48D8198
:10231000823019F48B81882331F082E091E08330A0
:1023200019F090E001C091E0892F0F900F900F906D
:102330000F900F90DF91CF911F910F91FF90EF9031
:10234000DF90CF90AF908F900895CF93DF93CDB76C
:10235000DEB7E1970FB6F894DEBF0FBECDBF78941D
:1023600084B5826084BD84B5816084BD85B582609A
:1023700085BD85B5816085BD80916E00816080934B
:102380006E001092810080918100826080938100B4
:1023900080918100816080938100809180008160C4
:1023A000809380008091B10084608093B10080911F
:1023B000B00081608093B00080917A008460809347
:1023C0007A0080917A00826080937A0080917A000E
:1023D0008E7F80937A0080917A00806880937A0063
:1023E0001092C100E091B903F091BA0382E08083BA
:1023F000E091B503F091B6031082E091B703F0913C
:10240000B80387E680831092C103E091BD03F09189
:10241000BE0386E08083E091BB03F091BC03808122
:1024200080618083E091BB03F091BC038081886070
:102430008083E091BB03F091BC038081806880833E
:10244000E091BB03F091BC0380818F7D80831FB737
:10245000F89480910C03811127C0EFE6F4E0849199
:10246000E3E8F4E09491E82FF0E0EE0FFF1FE6516F
:10247000FF4FA591B491EC91E92321F461E08AE04A
:102480000E944A0B61E08AE00E947A0B8CB5806161
:102490008CBD8CB580648CBD61E08DE00E947A0BB0
:1024A00061E08BE00E947A0B80910C038F5F809338
:1024B0000C031FBF61E08091A2050E947A0B61E0CE
:1024C0008091A2050E944A0B61E08091A3050E94C1
:1024D0007A0B8CB58F7D8CBD8CB5837F8CBD2091A4
:1024E000A30530E0F901EC50FF4F8491F901E75862
:1024F000FB4F0491F901EB59FB4F1491112381F02B
:1025000081110E94210BE12FF0E0EE0FFF1FE55A31
:10251000FB4FA591B491EC91E02311F00C94FA1BC0
:1025200061E08091A3050E944A0B62E370E080E0C5
:1025300090E00E94B60B60E884E50E94E30469EA3B
:1025400086E50E94E30463E088E50E94E30468EE08
:102550008AE50E94E30460E48AE20E94E3046DE3FA
:1025600082E20E94E30488E20E94C504982F9370DF
:10257000933029F0682F636088E20E94E3048DE5C0
:1025800092E00E94B5048CE391E00E94C30484EAC7
:1025900095E00E94CE0F85E591E00E94B50480E8A9
:1025A00091E00E94B5048DE592E00E94B50482EBB3
:1025B00091E00E94B50489EB91E00E94B5048DE59D
:1025C00092E00E94B5048FEF80934F0380935003F5
:1025D0008093510380935203809353038093540359
:1025E0001092000161E08DE00E947A0B61E08DE0C5
:1025F0000E944A0B61E083E00E947A0B10928D05E5
:1026000010928C0510928B0510928A051092890504
:1026100010928805109287051092860588E091E057
:1026200020E030E0FC014591559165917491443E64
:1026300055426105710509F034C04EE0429FC0016A
:10264000439F900D1124FC01E45FFE4F25913491CE
:102650003093850520938405FC01E25FFE4F2591B0
:1026600034913093870520938605FC01E05FFE4F8F
:10267000259134913093890520938805FC01EE5E05
:10268000FE4F2591349130938B0520938A05FC01F0
:10269000EC5EFE4F8591949190938D0580938C050F
:1026A0000BC02F5F3F4F0E962F30310509F0BACF88
:1026B0001092850510928405809188059091890576
:1026C000892B09F446C090917D059631E0F5209163
:1026D0006800983050F031E09E3008F430E081E03E
:1026E00001C0880F3A95EAF701C084E0822B8093FD
:1026F0006800983038F09E3040F0963148F4ECE6AF
:10270000F0E008C0EDE6F0E005C0EBE6F0E002C066
:10271000E0E0F0E04081983030F481E001C0880FC3
:102720009A95EAF70EC0292F30E09E3018F4285011
:10273000310902C02E50310981E001C0880F2A956D
:10274000EAF7842B808380918A0590918B050E9403
:10275000460C0E94230361E172E080E292E00E9455
:10276000140485E092E090934904809348048AED34
:1027700091E090936904809368048091460490915D
:1027800047049C012F5F3F4FF901EE0FFF1FE85BED
:10279000FB4F42E052E051834083FC01EE0FFF1FEC
:1027A000E659FB4F41E052E051834083FC01EE0FBC
:1027B000FF1FE656FB4F11821082F901E857FB4FCD
:1027C00010822E5F3F4FF901EE0FFF1FEA5BFB4FB8
:1027D00048EF51E051834083FC01EE0FFF1FE459A5
:1027E000FB4F44EF51E051834083FC01EE0FFF1F8C
:1027F000E456FB4F11821082FC01E657FB4F10821A
:10280000AC014C5F5F4FFA01EE0FFF1FEA5BFB4F1D
:102810006DEE71E071836083FC01EE0FFF1FE259E2
:10282000FB4F6CEE71E071836083FC01EE0FFF1FC4
:10283000E256FB4F11821082F901E857FB4F1082DC
:102840002E5F3F4FF901EE0FFF1FEA5BFB4F66EE75
:1028500071E071836083FC01EE0FFF1FE059FB4FB5
:1028600065EE71E071836083FC01EE0FFF1FE0569F
:10287000FB4F11821082FA01E857FB4F10824E5F26
:102880005F4FFA01EE0FFF1FEA5BFB4F6DED71E04A
:1028900071836083FC01EE0FFF1FEE58FB4F6CED60
:1028A00071E071836083880F991FFC01EE55FB4F27
:1028B00011821082F901E857FB4F108250934704B0
:1028C0004093460488E293E090939B0480939A049B
:1028D0001092890486E293E090939D0480939C0477
:1028E00084E080938A0484E293E090939F04809331
:1028F0009E0410928B0482E293E09093A104809353
:10290000A00410928C0480E293E09093A30480933F
:10291000A20410928D0481E00E94C00D0E94960DC9
:102920006EE170E080E090E00E94B60B8091D305EC
:102930008111F1CF60E08DE00E944A0B10922903D3
:102940001092280310922703109226031092250359
:102950001092240310922303109222031092210359
:102960001092200310921A03109219031092180368
:10297000109217031092160310921503109212036F
:102980001092110363E6C62ED12C72E6A72EB12C4D
:1029900099249394EE24E394F12CF2E18F2E8E018E
:1029A0000D5E1F4F80912C03882321F180912B0312
:1029B000882301F10E945A110E945A1181111AC0F4
:1029C00010922B0310922A0310922C0310922903C9
:1029D00010922803109227031092260310922503C9
:1029E00010922403109223031092220310922103C9
:1029F0001092200380912C03882361F180911F03A2
:102A0000882341F168E080E10E940A100E945A1177
:102A10000E945A1181111EC010921F0310922A03A6
:102A200010922C0310921E0310921D031092290382
:102A30001092280310922703109226031092250368
:102A40001092240310922303109222031092210368
:102A5000109220030E94F00B0E94960D0E94F00B32
:102A60002B013C0160E083E00E947A0B62E084E08D
:102A70000E947A0B0E94230381E795E00E94BC0923
:102A800081E795E00E94CB09892B61F40E94F00B4D
:102A9000DC01CB0184199509A609B7090697A105A0
:102AA000B10570F381E795E00E94CB09181619066D
:102AB0000CF005C281E795E00E94E2092091010136
:102AC000309102012817390709F4F9C190930201E6
:102AD0008093010120911B0330911C0380399105E3
:102AE00009F4E4C044F48036910509F4B5C1803797
:102AF0009105F9F0E4C1803D9105B1F1803E910569
:102B000029F0803B910509F0DAC17DC029303105FB
:102B100009F4D5C12F5F3F4F30931C0320931B0353
:102B20002830310509F0CBC110921C0310921B0311
:102B3000C6C12336310521F4F0921C03E0921B0339
:102B400080911B0390911C038236910529F4F09229
:102B50001C03E0921B03B3C1019790931C03809365
:102B60001B030A970CF7ABC12230310569F4809141
:102B7000190390911A03019690931A0380931903F5
:102B800030931C0320931B0320911B0330911C03E3
:102B90002330310551F480911703909118038C591B
:102BA0009F4F909318038093170320911B0330913C
:102BB0001C032430310549F48091150390911603CC
:102BC0000196909316038093150320911B03309177
:102BD0001C032530310549F48091130390911403AF
:102BE0000196909314038093130320911B0330915B
:102BF0001C032630310509F062C1809111039091C8
:102C0000120301964EC02230310569F480911903F8
:102C100090911A030A9690931A03809319033093A4
:102C20001C0320931B0320911B0330911C032330B2
:102C3000310551F4809117039091180388519C4FEE
:102C4000909318038093170320911B0330911C036A
:102C50002430310549F480911503909116030A96AA
:102C6000909316038093150320911B0330911C034E
:102C70002530310549F480911303909114030A968D
:102C8000909314038093130320911B0330911C0332
:102C90002630310509F013C1809111039091120380
:102CA0000A96909312038093110309C123303105D2
:102CB00069F48091170390911803C29690931803BA
:102CC0008093170330931C0320931B0380911B03F5
:102CD00090911C03079709F0F2C0D0921C03C09298
:102CE0001B0380912C03882309F4A9C080911F0342
:102CF000882309F4A4C00E941E10809119039091AA
:102D00001A0390933F03809340038091170390919F
:102D1000180390934103809342038091150390918F
:102D20001603909343038093440380911103909181
:102D3000120390934503809346038CE390E00E9436
:102D40006507809113039091140390933F03809340
:102D500040038DE390E00E94650710922A038CE304
:102D600090E00E94250880912D0390E0982F8827FD
:102D700020912E03822B9093290380932803809126
:102D80002F0390E0982F882720913003822B909377
:102D90002703809326038091310390E0982F8827A2
:102DA00020913203822B90932503809324038091FA
:102DB000330390E0982F882720913403822B90933F
:102DC0002303809322038DE390E00E9425088091E5
:102DD0002D0390E0982F882720912E03822B90932B
:102DE00021038093200390922C0320912A03211128
:102DF00024C0209128033091290330931A03209393
:102E00001903209126033091270330931803209350
:102E10001703209124033091250330931603209348
:102E20001503209122033091230330931203209342
:102E30001103909314038093130390922A038091BB
:102E40002C038823E1F180912B038823C1F1B092F8
:102E50001C03A0921B0333C02230310541F41092B1
:102E60001A031092190330931C0320931B038091C3
:102E70001B0390911C03039721F4109218031092E6
:102E8000170380911B0390911C03049721F4109267
:102E900016031092150380911B0390911C03059754
:102EA00021F4109214031092130380911B0390914C
:102EB0001C03069721F41092120310921103209123
:102EC0001B0330911C032930310509F478C110929D
:102ED000100310920F032430310509F412C1A4F538
:102EE0002130310509F471C044F4232B09F06DC180
:102EF0006BE373E08AE493E066C12230310509F4A4
:102F0000E1C02330310509F060C1109265031092D1
:102F100055036FEF72E085E693E00E94372210922E
:102F20009503609117037091180380E090E00E9470
:102F300096220E94400365E973E085E693E00E94D3
:102F4000F8216FEE72E034C12730310509F417C162
:102F50003CF52530310509F4F3C02630310509F080
:102F600034C1109265031092550364EB72E085E65C
:102F700093E00E94372210929503609111037091A3
:102F8000120380E090E00E9496220E94400365E9CF
:102F900073E085E693E00E94F82164EA72E008C1DC
:102FA0002236310509F4F8C02336310509F00DC188
:102FB00010926503109255036FE572E085E693E089
:102FC0000E9437226FE472E0F3C010926503109202
:102FD000550368E373E085E693E00E943722109280
:102FE00095036091190370911A0380E090E00E94AC
:102FF00096220E94400365E973E085E693E00E9413
:10300000F82163E373E085E593E00E943722109294
:103010009503609117037091180380E090E00E947F
:1030200096220E94400365E973E085E593E00E94E3
:10303000F8216EE273E085E693E00E943722109259
:103040009503609115037091160380E090E00E9453
:1030500096220E94400365E973E085E693E00E94B2
:10306000F82168E273E085E593E00E943722109230
:103070009503609111037091120380E090E00E942B
:1030800096220E94400365E973E085E593E00E9483
:10309000F82164E273E085E693E00E943722109203
:1030A0009503609113037091140380E090E00E94F7
:1030B00096220E94400365E973E085E693E00E9452
:1030C000F8217AC010926503109255036AE173E00B
:1030D00085E693E00E9437221092950360911903D0
:1030E00070911A0380E090E00E9496220E944003B3
:1030F00065E973E085E693E00E94F8216AE073E0F9
:1031000057C0109265031092550366EE72E085E693
:1031100093E00E94372210929503609115037091FD
:10312000160380E090E00E9496220E94400365E929
:1031300073E085E693E00E94F82166ED72E038C006
:1031400010926503109255036CEC72E085E693E0F3
:103150000E9437221092950360911303709114031B
:1031600080E090E00E9496220E94400365E973E0AF
:1031700085E693E00E94F8216CEB72E019C0109292
:1031800065031092550364E972E085E693E00E94BE
:1031900037226CE872E00CC0109265031092550360
:1031A0006CE772E085E693E00E9437226CE672E0FD
:1031B00085E593E00E9437220E94420406C060E346
:1031C00072E08FE392E00E94140480910D039091CD
:1031D0000E03019690930E0380930D03059744F020
:1031E00081E00E94C00D10920E0310920D0303C0E7
:1031F00080E00E94C00D0E94F00B61E084E00E941C
:103200007A0B70902C0371101AC00E945A118823F7
:1032100009F4EDC20E941E10882309F4E8C28091CF
:10322000A10582FD0CC0882321F0883009F4F3C287
:1032300006C010921F0310922A0390922B038091D4
:103240001D0390911E03803F910509F07DC07720FA
:1032500009F47AC080911F03882309F475C00E9485
:103260001E1086ED91E00E94B50480912403909198
:10327000250301969093250380932403209128032E
:103280003091290330933F0320934003209126037C
:1032900030912703309341032093420390934303DB
:1032A00080934403809122039091230390934503DC
:1032B000809346038CE390E00E9465078091200391
:1032C0009091210390933F03809340038DE390E01E
:1032D0000E94650782EF91E00E94B50484E092E0CD
:1032E0000E94C30480912803909129030E94E30F58
:1032F00089E092E00E94C304809126039091270305
:103300000E94E30F84E192E00E94C30480912403B1
:10331000909125030E94E30F8DE192E00E94C30487
:1033200080912203909123030E94E30F85E292E0B3
:103330000E94C30480912003909121030E94E30F17
:103340008DE592E00E94B50480911D0390911E03CB
:1033500020912C03813F91055CF4222359F0309198
:103360001F03332329F0019690931E0380931D03BE
:103370002111B7C080911F03882309F4B2C08CE3E8
:1033800090E00E94250880912D0390E0982F8827D7
:1033900020912E03822B9093290380932803809100
:1033A0002F0390E0982F882720913003822B909351
:1033B0002703809326038091310390E0982F88277C
:1033C00020913203822B90932503809324038091D4
:1033D000330390E0982F882720913403822B909319
:1033E0002303809322038DE390E00E9425088091BF
:1033F0002D0390E0982F882720912E03822B909305
:103400002103809320038FE292E00E94B50482EFB3
:1034100091E00E94B50484E092E00E94C304809190
:103420002803909129030E94E30F89E092E00E9413
:10343000C30480912603909127030E94E30F84E147
:1034400092E00E94C30480912403909125030E947E
:10345000E30F8DE192E00E94C304809122039091DA
:1034600023030E94E30F85E292E00E94C30480914F
:103470002003909121030E94E30F8DE592E00E94CA
:10348000B50490922C0380912A03811128C0809169
:1034900028039091290390931A0380931903809134
:1034A000260390912703909318038093170380912C
:1034B0002403909125039093160380931503809124
:1034C0002203909123039093120380931103809120
:1034D00020039091210390931403809313039092FF
:1034E0002A0380912C0381116AC180912B038823C8
:1034F00009F465C189AAAE014F5C5F4FBE016F5FE1
:103500007F4F81E10E94ED0740E16D81CE018696FB
:103510000E94900A40E16C81CE0180960E94900A40
:103520001C8A1B8A1E8A1D8A188E1F8A6EA17FA183
:103530006115710529F04AA55BA5C8010E946F0AB3
:103540004CA15DA168A179A1C8010E942F0A811137
:1035500003C0C8010E945D0A1B8E1A8E1D8E1C8E30
:103560001F8E1E8E6B897C896115710531F04F8924
:10357000588DCE014A960E946F0A8B899C890E94C1
:1035800088206E8C7F8C6114710411F41CA615C008
:1035900084E06816710418F054E0652E712C6A8D71
:1035A0007B8DA301CE018C960E940A22ECE2F0E012
:1035B000EC0FFD1FE60DF71D1082CE018C960E94C8
:1035C0001922909329038093280340E050E06DE591
:1035D00072E080E995E00E946F0AAE014F5C5F4F98
:1035E000BE016F5F7F4F86E10E94ED078B810E94D5
:1035F000F50F8C810E94F50F8D810E94F50F8E8151
:103600000E94F50F8F810E94F50F88850E94F50FAB
:1036100089850E94F50F8A850E94F50F8B850E948F
:10362000F50F8C850E94F50FAE014F5C5F4FBE0118
:103630006F5F7F4F89E10E94ED0789810E94F50F3E
:103640008A810E94F50F8B810E94F50F8C810E9468
:10365000F50F8D810E94F50F8E810E94F50F41E0DC
:1036600050E062EF72E080E995E00E942F0AAE011F
:103670004F5C5F4FBE016F5F7F4F84E10E94ED079B
:103680008C8190E0982F88272B81822B90932103A7
:10369000809320034AE0B8010E946722F80101905C
:1036A0000020E9F73197AF01401B510BB80180E9C9
:1036B00095E00E942F0A41E050E060E472E080E96A
:1036C00095E00E942F0AAE014F5C5F4FBE016F5F15
:1036D0007F4F85E10E94ED078C8190E0982F88272D
:1036E0002B81822B90932703809326038E8190E079
:1036F0009093230380932203AE014F5C5F4FBE0182
:103700006F5F7F4F80E10E94ED078B8190E0982FE3
:1037100088272A81822B909325038093240382E4B7
:1037200092E00E94B5048CE492E00E94C30480E918
:1037300095E00E94CE0F84E092E00E94C304809145
:103740002803909129030E94E30F89E092E00E94F0
:10375000C30480912603909127030E94E30F84E124
:1037600092E00E94C30480912403909125030E945B
:10377000E30F8DE192E00E94C304809122039091B7
:1037800023030E94E30F85E292E00E94C30480912C
:103790002003909121030E94E30F8DE592E00E94A7
:1037A000B50490922C038A8D9B8D0E94882088A15D
:1037B00099A10E9488208EA19FA10E9488206090DC
:1037C00026037090270389E092E00E94C304B301AE
:1037D000770C880B990B97FF03C00E943E0703C02C
:1037E0004AE00E94FD068BE592E00E947D040E9463
:1037F0006709D8C86FE082E00E94E30462E370E0EA
:1038000080E090E00E94B60B82E00E94C50484FD37
:10381000FBCF0C949B1290921F0310922B031092DB
:103820001E0310921D030BCDCF92DF92EF92FF92F9
:10383000CF93DF93E9EAF3E01382128288EEC82E79
:1038400083E0D82EE12CF12CC482D582E682F78267
:1038500080E291E09183808385EC90E09587848776
:1038600084EC90E09787868780EC90E0918B808B4A
:1038700081EC90E0938B828B82EC90E0958B848B33
:1038800086EC90E0978B868B118E128E138E148EA1
:10389000E4EAF5E01182108213821282158214820A
:1038A00045E050E06EE572E0CF010E946F0AE6E964
:1038B000F5E08AE0848785E08587E0E9F5E011821C
:1038C0001082138212821582148243E050E060E07D
:1038D00072E0CF010E946F0AC1E7D5E01B821A8215
:1038E000CC82DD82EE82FF8280E391E0998388833F
:1038F0001C8A1B8A1E8A1D8A188E1F8A1A8E198E90
:103900001C8E1B8EEEE8F5E080818E7F808361E067
:1039100084E00E947A0B61E084E00E944A0BEDE7AC
:10392000F4E0E491E88BE9E6F4E0E491F0E0EE0FF6
:10393000FF1FEF5AFB4F859194919A8B898B62E020
:1039400083E00E947A0B83E08C87ECE7F4E0E4915B
:10395000ED87E8E6F4E0E491F0E0EE0FFF1FE55AB2
:10396000FB4F859194919F878E871092B804109297
:10397000470410924604109270051092B904DF912A
:10398000CF91FF90EF90DF90CF90089580E391E08A
:10399000909372058093710520917D05263140F545
:1039A000283028F02E3030F0ECE6F0E005C0EDE6EF
:1039B000F0E002C0EBE6F0E03081283038F481E03E
:1039C00090E001C0880F2A95EAF70FC0422F50E01F
:1039D0002E3018F44850510902C04E50510981E070
:1039E00090E001C0880F4A95EAF780958323808391
:1039F00080919005909191050E9488208091A40566
:103A00009091A5050C94882097FB072E16F400943E
:103A100007D077FD09D00E943A1D07FC05D03EF47F
:103A2000909581959F4F0895709561957F4F08956A
:103A3000A1E21A2EAA1BBB1BFD010DC0AA1FBB1FB2
:103A4000EE1FFF1FA217B307E407F50720F0A21B24
:103A5000B30BE40BF50B661F771F881F991F1A9491
:103A600069F760957095809590959B01AC01BD01BB
:103A7000CF010895AA1BBB1B51E107C0AA1FBB1FA2
:103A8000A617B70710F0A61BB70B881F991F5A95EA
:103A9000A9F780959095BC01CD010895EE0FFF1F09
:103AA0000590F491E02D09945058BB27AA270E9455
:103AB0006C1D0C947B230E946D2338F00E947423AC
:103AC00020F039F49F3F19F426F40C946A230EF485
:103AD000E095E7FB0C946423E92F0E948C2358F3B4
:103AE000BA17620773078407950720F079F4A6F5E3
:103AF0000C94AE230EF4E0950B2EBA2FA02D0B01E3
:103B0000B90190010C01CA01A0011124FF27591B22
:103B100099F0593F50F4503E68F11A16F040A22F28
:103B2000232F342F4427585FF3CF46953795279599
:103B3000A795F0405395C9F77EF41F16BA0B620B98
:103B4000730B840BBAF09150A1F0FF0FBB1F661FDF
:103B5000771F881FC2F70EC0BA0F621F731F841F22
:103B600048F4879577956795B795F7959E3F08F048
:103B7000B0CF9395880F08F09927EE0F979587950A
:103B800008950E94D51D0C947B230E94742358F045
:103B90000E946D2340F029F45F3F29F00C946423C8
:103BA00051110C94AF230C946A230E948C2368F368
:103BB0009923B1F3552391F3951B550BBB27AA27E6
:103BC00062177307840738F09F5F5F4F220F331F20
:103BD000441FAA1FA9F335D00E2E3AF0E0E832D0E8
:103BE00091505040E695001CCAF72BD0FE2F29D0EB
:103BF000660F771F881FBB1F261737074807AB07BD
:103C0000B0E809F0BB0B802DBF01FF2793585F4F31
:103C10003AF09E3F510578F00C9464230C94AF2346
:103C20005F3FE4F3983ED4F3869577956795B79513
:103C3000F7959F5FC9F7880F911D9695879597F91E
:103C40000895E1E0660F771F881FBB1F6217730797
:103C50008407BA0720F0621B730B840BBA0BEE1FAC
:103C600088F7E09508950E943A1E6894B1110C946B
:103C7000AF2308950E94942388F09F5798F0B92F9E
:103C80009927B751B0F0E1F0660F771F881F991F91
:103C90001AF0BA95C9F714C0B13091F00E94AE2362
:103CA000B1E008950C94AE23672F782F8827B85F72
:103CB00039F0B93FCCF3869577956795B395D9F7E9
:103CC0003EF490958095709561957F4F8F4F9F4FF3
:103CD00008950E94D32208F48FEF0895FA01EE0FA1
:103CE000FF1F309621053105A1F16115710561F4C1
:103CF0008038BFE39B0749F168949038810561F0F3
:103D00008038BFEF9B0741F099234AF5FF3FE1055B
:103D10003105210519F1E8940894E795D901AA2302
:103D200029F4AB2FBE2FF85FD0F310C0FF5F70F403
:103D3000A695E0F7F73950F019F0FF3A38F49F777D
:103D40009F930DD00F9007FC9058089546F00C9467
:103D50006A2360E070E080E89FE308954FE79F7773
:103D60005F934F933F932F930E94691F2F913F9131
:103D70004F915F910E94F7220C94C61E29F416F011
:103D80000C9464230C94AE230C946A230E94942315
:103D9000A8F39638A0F707F80F92E8942BE33AEAD5
:103DA00048EB5FE70E940D230F920F920F924DB7E1
:103DB0005EB70F920E94B11FE8E6F0E00E94F81E85
:103DC0004F915F91EF91FF91E595EE1FFF1F49F035
:103DD000FE57E0684427EE0F441FFA95E1F741953E
:103DE000550B0E942B1F0F9007FE0C941F1F089568
:103DF000DF93CF931F930F93FF92EF92DF927B019C
:103E00008C01689406C0DA2EEF010E940A23FE019D
:103E1000E894A5912591359145915591A6F3EF012F
:103E20000E946C1DFE019701A801DA9469F7DF90EA
:103E3000EF90FF900F911F91CF91DF9108959B011B
:103E4000AC0160E070E080E89FE30C94C11D0C942D
:103E500064230C94E51F0E949423D8F39923C9F39B
:103E6000940F511DA3F39150504094F059F08823C2
:103E700032F0660F771F881F91505040C1F79E3F68
:103E800051052CF7880F911D9695879597F9089500
:103E90005F3FACF0983E9CF0BB2786957795679581
:103EA000B79508F4B1609395C1F7BB0F58F711F4BB
:103EB00060FFE8CF6F5F7F4F8F4F9F4FE3CF0C9432
:103EC000AF2316F00C94E51F0C946A2368940C94AD
:103ED00064230E949423A8F39923C1F3AEF3DF93E4
:103EE000CF931F930F93FF92C92FDD2788232AF0CA
:103EF0002197660F771F881FDAF720E030E040E84F
:103F00005FEB9FE3883920F0803E38F021968F7771
:103F10000E94551DE0E9F0E004C00E94551DEDEB44
:103F2000F0E00E94F81E8B01BE01EC01FB2E6F57E2
:103F300071097595771F880B990B0E94982228E1CB
:103F400032E741E35FE30E940A23AF2D9801AE01FF
:103F5000FF900F911F91CF91DF910E946C1D0C94E7
:103F60007B23FA01DC01AA0FBB1F9B01AC01BF57E9
:103F700028F4222733274427507820C0B75190F4E3
:103F8000AB2F0024469537952795011CA395D2F3B6
:103F9000002071F0220F331F441FB395DAF30ED0C7
:103FA0000C94541D61307105A0E88A07B94630F4BD
:103FB0009B01AC016627772788279078309621F0FF
:103FC000208331834283538308959F3F31F0915082
:103FD00020F4879577956795B795880F911D9695ED
:103FE000879597F90895CF93DF938230910510F468
:103FF00082E090E0E091D605F091D70520E030E036
:10400000C0E0D0E0309711F1408151814817590745
:10401000C0F04817590761F482819381209719F005
:104020009B838A832BC09093D7058093D60526C0A7
:104030002115310519F04217530718F49A01BE01F2
:10404000DF01EF010280F381E02DDCCF2115310586
:1040500009F1281B390B2430310590F412968D910B
:104060009C9113976115710521F0FB019383828365
:1040700004C09093D7058093D605FD01329644C0C5
:10408000FD01E20FF31F81939193225031092D938B
:104090003C933AC02091D4053091D505232B41F4AF
:1040A00020910601309107013093D5052093D40566
:1040B00020910401309105012115310541F42DB7FE
:1040C0003EB74091080150910901241B350BE09146
:1040D000D405F091D505E217F307A0F42E1B3F0B92
:1040E0002817390778F0AC014E5F5F4F241735076A
:1040F00048F04E0F5F1F5093D5054093D405819330
:10410000919302C0E0E0F0E0CF01DF91CF910895FC
:104110000F931F93CF93DF93009709F48CC0FC019A
:104120003297138212820091D6051091D70501159E
:10413000110581F420813181820F931F2091D405D4
:104140003091D5052817390779F5F093D505E09317
:10415000D40571C0D80140E050E0AE17BF0750F45D
:1041600012962D913C911397AD012115310509F15E
:10417000D901F3CF9D01DA013383228360817181FC
:10418000860F971F8217930769F4EC012881398104
:10419000260F371F2E5F3F4F318320838A819B81FB
:1041A00093838283452B29F4F093D705E093D605BA
:1041B00042C01396FC93EE931297ED0149915991E9
:1041C0009E01240F351FE217F30771F4808191815E
:1041D000840F951F029611969C938E9382819381F2
:1041E00013969C938E931297E0E0F0E0D80112961C
:1041F0008D919C911397009719F0F8018C01F6CFDF
:104200008D919C9198012E5F3F4F820F931F2091BB
:10421000D4053091D5052817390769F4309729F46A
:104220001092D7051092D60502C013821282109305
:10423000D5050093D405DF91CF911F910F9108957B
:10424000A0E0B0E0E6E2F1E20C94B923EC010097C3
:1042500021F4CB010E94F31FB8C0FC01E60FF71F49
:104260009C0122503109E217F30708F4ACC0D901D0
:104270000D911C91119706171707B0F00530110525
:1042800008F49FC0C80104978617970708F499C0DF
:1042900002501109061B170B019311936D937C9328
:1042A000CF010E9488208DC05B01A01AB10A4C0189
:1042B000800E911EA091D605B091D70540E050E048
:1042C000E12CF12C109709F44AC0A815B905D1F5D5
:1042D0006D907C901197630182E0C80ED11CCA14C6
:1042E000DB0480F1A3014A195B096A0182E0C80E70
:1042F000D11C1296BC9012971396AC91B5E0CB16D8
:10430000D10440F0B282A38351834083D9016D93DD
:104310007C930AC00E5F1F4FC301800F911FF901EC
:1043200091838083EB2DFA2FE114F10431F0D70152
:104330001396FC93EE93129744C0F093D705E09345
:10434000D6053FC08D919C9111974817590708F4E5
:10435000AC017D0112960D90BC91A02DB3CF809140
:10436000D4059091D50588159905E1F446175707AE
:10437000C8F48091040190910501009741F48DB734
:104380009EB74091080150910901841B950BE817D5
:10439000F907C8F4F093D505E093D405F9017183CA
:1043A00060830FC0CB010E94F31F7C01009759F07E
:1043B000A801BE010E94EF21CE010E948820C70102
:1043C00004C0CE0102C080E090E0CDB7DEB7EEE0E1
:1043D0000C94D52381E090E0F8940C94EC23FB013D
:1043E000DC0102C001900D9241505040D8F7089571
:1043F000FB01DC010D900020E9F7119701900D926F
:104400000020E1F70895FB01DC0101900D920020EE
:10441000E1F70895FB01DC014150504048F0019064
:104420000D920020C9F701C01D9241505040E0F7A5
:104430000895FC0188279927E89421912032E9F317
:10444000293010F02E30C8F32B3241F02D3239F4E0
:10445000689404C00E945422820F911D2191205320
:104460002A30C0F31EF4909581959F4F0895FB016B
:10447000DC010D900020E9F7119705900D920020C6
:10448000E1F70895FB01DC0105900D920020E1F7B2
:104490000895BB274A3031F4992322F4BDE2909568
:1044A00081959F4F0C9468227AE0979F902D879F6B
:1044B000802D910D112408954532510520F442308C
:1044C00010F00C946722FB011082CB010895BB27EA
:1044D000FB015527AA27880F991FAA1FA41710F0C0
:1044E000A41B83955051B9F7A05DAA3308F0A95DCC
:1044F000A193009779F7B111B1931192CB010C946C
:104500008122DC01FC01672F71917723E1F732975B
:1045100004C07C916D9370836291AE17BF07C8F39E
:1045200008950E94D32208F481E00895E89409C018
:1045300097FB3EF490958095709561957F4F8F4FD6
:104540009F4F9923A9F0F92F96E9BB279395F695EC
:10455000879577956795B795F111F8CFFAF4BB0F6A
:1045600011F460FF1BC06F5F7F4F8F4F9F4F16C0CE
:10457000882311F096E911C0772321F09EE8872F58
:10458000762F05C0662371F096E8862F70E060E014
:104590002AF09A95660F771F881FDAF7880F96958D
:1045A000879597F90895990F0008550FAA0BE0E831
:1045B000FEEF16161706E807F907C0F012161306E5
:1045C000E407F50798F0621B730B840B950B39F425
:1045D0000A2661F0232B242B252B21F408950A268B
:1045E00009F4A140A6958FEF811D811D08950E94B9
:1045F0000A230C947B230E946D2338F00E947423BD
:1046000020F0952311F00C9464230C946A23112458
:104610000C94AF230E948C2370F3959FC1F3950FE8
:1046200050E0551F629FF001729FBB27F00DB11D36
:10463000639FAA27F00DB11DAA1F649F6627B00DC6
:10464000A11D661F829F2227B00DA11D621F739FAF
:10465000B00DA11D621F839FA00D611D221F749FBD
:104660003327A00D611D231F849F600D211D822F04
:10467000762F6A2F11249F5750409AF0F1F088232B
:104680004AF0EE0FFF1FBB1F661F771F881F915058
:104690005040A9F79E3F510580F00C9464230C9480
:1046A000AF235F3FE4F3983ED4F386957795679503
:1046B000B795F795E7959F5FC1F7FE2B880F911D82
:1046C0009695879597F9089597F99F6780E870E028
:1046D00060E008959FEF80EC089500240A94161678
:1046E000170618060906089500240A9412161306E0
:1046F000140605060895092E0394000C11F488236E
:1047000052F0BB0F40F4BF2B11F460FF04C06F5F89
:104710007F4F8F4F9F4F089557FD9058440F551F5F
:1047200059F05F3F71F04795880F97FB991F61F033
:104730009F3F79F087950895121613061406551FAA
:10474000F2CF4695F1DF08C0161617061806991F16
:10475000F1CF86957105610508940895E894BB270B
:1047600066277727CB0197F908952F923F924F92B2
:104770005F926F927F928F929F92AF92BF92CF92F1
:10478000DF92EF92FF920F931F93CF93DF93CDB7FA
:10479000DEB7CA1BDB0B0FB6F894DEBF0FBECDBF72
:1047A00009942A88398848885F846E847D848C8443
:1047B0009B84AA84B984C884DF80EE80FD800C814C
:1047C0001B81AA81B981CE0FD11D0FB6F894DEBF2F
:1047D0000FBECDBFED01089512E0C8ECD2E004C0D9
:1047E000FE010E944E1D2196C93CD107C9F7F894DD
:0247F000FFCFF9
:1047F20001F000060000D80580003A0422040D04EE
:10480200F303D703A80396037C035A0300000000B6
:10481200FE087A08C708A508B90845090000000083
:104822004D0C7A08CB09E209A209BC0952432D5466
:10483200686F756768747320524649442D53656EDC
:10484200736F72200064657369676E206279205409
:1048520065726F2053616C6D696E656E20402052E7
:10486200432D54686F756768747320323031370096
:104872004672656520616E64206F70656E2D736F80
:1048820075726365202D2052656C656173656420C5
:10489200756E646572204D49542D6C6963656E7343
:1048A200650052656164792100557365205246495D
:1048B200442D746167206E65787420746F2073656F
:1048C2006E736F72210057726974696E67206F751B
:1048D20074206E6577206379636C6520636F756EF3
:1048E200740042617474657279206E616D653A205C
:1048F2004E2F410049443A2000436170616369745C
:10490200793A20004379636C65733A200043656C01
:104912006C733A2000432D56616C75653A20005243
:10492200432D54686F756768747320496E666F0013
:1049320043005265766F2D496E666F004261747452
:10494200657279206E616D653A20000D0A00762E3F
:10495200322E3200206973206120747261696C65A5
:104962007220626C6F636B3A00206973206120646D
:1049720061746120626C6F636B3A005043445F4123
:10498200757468656E74696361746528292066614F
:10499200696C65643A20004D49464152455F577241
:1049A2006974652829206661696C65643A20006231
:1049B2006C6F636B20776173207772697474656EB4
:1049C200005043445F41757468656E746963617435
:1049D200652829206661696C6564202872656164B6
:1049E200293A20004D49464152455F72656164286B
:0C49F20029206661696C65643A200000B1
:00000001FF
