:100000000C94C2020C94EA020C94EA020C946A0D5D
:100010000C94460D0C94220D0C94EA020C94EA0206
:100020000C94EA020C94EA020C94EA020C94EA02A0
:100030000C94EA020C94EA020C94EA020C94EA0290
:100040000C94FB0B0C94EA020C94EE0A0C94C80A74
:100050000C94EA020C94EA020C94EA020C94EA0270
:100060000C94EA020C94EA0207634236B79BD8A7C5
:100070001A39685618AEBAAB558C1D3CB7CC5763CD
:10008000BD6DEDFD753EF6177231BF000000803F7B
:1000900008000000BE922449123EABAAAA2ABECD97
:1000A000CCCC4C3E00000080BEABAAAAAA3E000009
:1000B0000000BF000000803F000000000008417801
:1000C000D3BB4387D1133D190E3CC3BD4282AD2B38
:1000D0003E68EC8276BED98FE1A93E4C80EFFFBE30
:1000E00001C4FF7F3F00000000000000000024006A
:1000F00027002A0000000008000201000003040796
:10010000000000000000000000C201000100050026
:1001100005000300030000E1000001000F000F00D4
:100120000D000D0000960000020019001A001700D3
:100130001700127A00000700200021001D001D009A
:10014000807000000B002300230020002000004BE3
:10015000000014003700370034003400403800003D
:100160001E004B004B0048004800E4250000310011
:10017000700071006E006E00802500003200720079
:10018000720070007000C01200006E00E900E9000B
:10019000E600E60060090000E500D801D801D501BD
:1001A000D501B0040000D301B403B403B103B1031B
:1001B00058020000B40367076707620762072C0153
:1001C00000006707DD0EDD0EDA0EDA0E20000043B8
:1001D0002D56616C7565000043656C6C73000043BF
:1001E00079636C6573006D41680043617061636998
:1001F00074790000494400524649442D53656E739A
:100200006F72002020524649442D42617474657219
:10021000790020524354204A65746920546F6F6CF2
:1002200073002020524649442D42617474657279EE
:100230000020524354204A65746920546F6F6C73D8
:10024000005072657373203C20746F206578697468
:1002500000546167205772697474656E210052659D
:10026000766F21203C20746F2065786974004927DF
:100270006D206E6F742077726974696E67004261D9
:10028000636B3A203C00536176653A2055702061DB
:100290006E6420446E005365742055702B446E20AC
:1002A0004E6578743E0043656C6C733A200053656C
:1002B000742055702F446E204E6578743E00432D97
:1002C00056616C75653A20005365742055702F4453
:1002D0006E204E6578743E004379636C65733A20F6
:1002E000005365742055702F446E204E6578743E1F
:1002F0000043617061636974793A2000536574202A
:1003000055702F446E204E6578743E00546167200E
:100310004944233A200020433A002043656C3A00C8
:100320002043793A004361703A00233A002020527A
:100330004649442D426174746572790020524354D9
:10034000204A65746920546F6F6C730041204D49D9
:1003500046415245205049434320726573706F6E89
:100360006465642077697468204E414B2E005468A0
:1003700065204352435F4120646F6573206E6F7444
:10038000206D617463682E00496E76616C6964202B
:10039000617267756D656E742E00496E7465726E5C
:1003A000616C206572726F7220696E2074686520BE
:1003B000636F64652E2053686F756C64206E6F7474
:1003C0002068617070656E2E0041206275666665FA
:1003D00072206973206E6F742062696720656E6F8A
:1003E0007567682E0054696D656F757420696E209D
:1003F000636F6D6D756E69636174696F6E2E004316
:100400006F6C6C697373696F6E2064657465637477
:1004100065642E004572726F7220696E20636F6D85
:100420006D756E69636174696F6E2E0053756363D9
:100430006573732E00556E6B6E6F776E20657272EA
:100440006F720000000000250028002B0000000053
:100450000023002600290004040404040404040208
:100460000202020202030303030303010204081051
:10047000204080010204081020010204081020001E
:10048000070E091C1B1215383F363124232A2D7004
:10049000777E796C6B6265484F464154535A5DE0F4
:1004A000E7EEE9FCFBF2F5D8DFD6D1C4C3CACD90A4
:1004B000979E998C8B8285A8AFA6A1B4B3BABDC70D
:1004C000C0C9CEDBDCD5D2FFF8F1F6E3E4EDEAB744
:1004D000B0B9BEABACA5A28F88818693949D9A27B4
:1004E00020292E3B3C35321F18111603040D0A57E4
:1004F00050595E4B4C45426F68616673747D7A89D2
:100500008E878095929B9CB1B6BFB8ADAAA3A4F983
:10051000FEF7F0E5E2EBECC1C6CFC8DDDAD3D46973
:100520006E676075727B7C51565F584D4A43441923
:100530001E171005020B0C21262F283D3A33344E8E
:1005400049404752555C5B7671787F6A6D64633EC3
:1005500039303722252C2B0601080F1A1D1413AE33
:10056000A9A0A7B2B5BCBB9691989F8A8D8483DE63
:10057000D9D0D7C2C5CCCBE6E1E8EFFAFDF4F30061
:10058000DB1B8D1C11241FBECFEFD8E0DEBFCDBF1B
:1005900012E0A0E0B1E0E0E8F7E402C005900D92BF
:1005A000AE3FB107D9F725E0AEEFB2E001C01D9232
:1005B000AA3CB207E1F712E0C1ECD2E004C02197F7
:1005C000FE010E94151DC03CD107C9F70E9497117A
:1005D0000C94B3230C940000CF92DF92FF920F9300
:1005E0001F93CF93DF931F92CDB7DEB7082F162F3F
:1005F00060E08091940579830E94490B82E10E941A
:100600008E0DF12EC12E7981D72E8C2D8F1980174A
:1006100030F4F60181916F010E948E0DF6CF61E0FA
:10062000809194050F90DF91CF911F910F91FF90D2
:10063000DF90CF900C94490B8091990390919A038D
:1006400083569540A1F0809180058E7F8093800530
:100650008FB7F894109298031092970323E635E031
:1006600030939A03209399038FBF81E0089580E02F
:1006700008952F923F924F925F926F927F928F9246
:100680009F92AF92BF92CF92DF92EF92FF920F9321
:100690001F93CF93DF9300D000D0CDB7DEB72B01EF
:1006A0003C0120E030E0A9010E94582287FF05C0EC
:1006B00020E030E040E05FEB04C020E030E040E0CC
:1006C0005FE3C301B2010E941C1D6B017C0120E0AD
:1006D00030E0A901C301B2010E94582287FF04C083
:1006E000F7FAF094F7F8F094A12CB12C8DEC282EA9
:1006F0009CEC392E8CEC8B839DE39C8320E030E0D6
:1007000040E251E4B1018B819C810E94BE224B01E9
:100710008C01A70196010E94582218163CF0AFEFF9
:10072000AA1ABA0A14010B831C83E8CF20E030E038
:10073000A901C301B2010E94582287FF06C08DE2C1
:100740008093870301E010E002C000E010E0A114F4
:10075000B10439F4F801E957FC4F80E380830F5F5F
:100760001F4F812C912CF401E00FF11FFA83E983D4
:100770008A149B04B1F191014B815C81C701B601E0
:100780000E94881D0E94FA1D2B013C0169817A811B
:1007900069577C4F4AE0C2010E941022B201550CF9
:1007A000880B990B0E945F2291014B815C810E9412
:1007B000BE229B01AC01C701B6010E941B1D6B014B
:1007C0007C0120E030E040E251E4B1018B819C816A
:1007D0000E94881D1B018B839C83BFEF8B1A9B0A91
:1007E000C2CFE957FC4F108287E893E00F900F903B
:1007F0000F900F90DF91CF911F910F91FF90EF908D
:10080000DF90CF90BF90AF909F908F907F906F9030
:100810005F904F903F902F900895A7E6B3E020E0BF
:1008200040E250E15A0F21111FC0FC0134913323E3
:10083000D9F03C93119601965A13F5CF80E090E0E1
:1008400020E030E2DC01A959BC4F211110C0FB01AE
:10085000E80FF91FE491EE2351F05096EC930196C6
:100860008031910579F708954C9321E0E3CF5096BC
:100870003C9321E0F4CFCF93DF93E7E5F3E00190E1
:100880000020E9F73197E755F340C7E5D3E0A7E645
:10089000B3E080E090E28E1718F428812C9301C019
:1008A0009C938F5F219611968031A9F7E7E4F3E0DE
:1008B00001900020E9F73197E754F34080E090E0A1
:1008C00020E2DC01A959BC4F8E1738F4EC01C95B5A
:1008D000DC4F388150963C9302C050962C93019681
:1008E0008031910571F7DF91CF910895009769F0FC
:1008F000FC0101900020E9F73197AF01481B590B2B
:10090000BC018BE993E00C94790880E090E00895B5
:100910000F931F93CF93DF938C01C0E0D0E0F801D9
:10092000EC0FFD1F6491662371F0E0919B03F09141
:100930009C030190F081E02D8BE993E00995892BD0
:1009400011F02196ECCF84E492E00E9476048C0FA3
:100950009D1FDF91CF911F910F910895CF93DF934A
:100960000E947604EC0184E492E00E9476048C0FED
:100970009D1FDF91CF9108950C9476040F931F93E0
:10098000CF93C82F08E815E060E0F80184850E9445
:10099000490B8C2F8E7780680E948E0D80E00E941C
:1009A0008E0DC82F61E0F80184850E94490B8C2FC1
:1009B000CF911F910F9108950F931F93CF93DF93C2
:1009C000082F162FC8E8D5E060E08C850E94490BFF
:1009D000802F8E770E948E0D812F0E948E0D61E0F8
:1009E0008C85DF91CF911F910F910C94490BCF9380
:1009F000C82F0E94BE04682F60688C2FCF910C9482
:100A0000DC04EF92FF920F931F93CF93DF937C014F
:100A1000C62F8A0160E082E00E94DC0464E08AE084
:100A20000E94DC0484E10E94F704B7018C2F0E942D
:100A3000EC0263E082E00E94DC04C8E8D3E18AE0D3
:100A40000E94BE0482FD04C02197C9F784E00FC054
:100A500060E082E00E94DC0484E40E94BE04F801AD
:100A6000808382E40E94BE04F801818381E0DF91EB
:100A7000CF911F910F91FF90EF9008952F923F9289
:100A80004F925F926F927F928F929F92AF92BF929E
:100A9000CF92DF92EF92FF920F931F93CF93DF934A
:100AA00000D01F92CDB7DEB7982E762E2A01C11442
:100AB000D10419F0F601608101C060E0662EF0E11A
:100AC000AF9E600C112460E082E02B830E94DC0466
:100AD0006FE788E00E94DC0484E10E94F704B20121
:100AE0002B81822F0E94EC02662D8AE10E94DC0499
:100AF000692D82E00E94DC048CE0981203C08AE138
:100B00000E94F70490ED492E97E0592E88E00E944C
:100B1000BE04982F972139F480FDA2C0E1E04E1A5F
:100B20005108A1F79DC08CE00E94BE04382E83714D
:100B300009F098C00115110509F45FC0E114F10432
:100B400009F45BC084E10E94BE04982EF701808105
:100B5000891508F489C09082992009F444C060E0A6
:100B6000809194050E94490B9A9482E90E948E0D0F
:100B7000202E380144244394512C862D8219891546
:100B800028F581111AC0AA20C1F08A2DB12C883015
:100B900048F49201082E01C0220F0A94EAF7B22A03
:100BA0008F5FF5CF82E90E948E0D2B2D2095F801E5
:100BB000908192238B21892B04C082E90E948E0DA3
:100BC000F3018083FFEF6F1A7F0AD7CF5801A90C7A
:100BD000B11C80E00E948E0DF501808361E0809160
:100BE00094050E94490B88E10E94BE048770B82ECC
:100BF000C114D10411F0F601808333FC37C0011514
:100C00001105B1F1E114F10499F1882089F1F7019E
:100C10006081613021F4F4E0BF1203C01FC0623074
:100C200010F488E026C0B110FCCF6250AE014F5FD7
:100C30005F4FC8010E9401058130D9F4F70180811E
:100C4000080F111DF8013297908189819813E9CF1F
:100C5000319690818A819813E4CF0AC089E009C057
:100C600084E007C082E005C085E003C083E001C0E6
:100C700081E00F900F900F90DF91CF911F910F9116
:100C8000FF90EF90DF90CF90BF90AF909F908F90AC
:100C90007F906F905F904F903F902F9008958F922C
:100CA000AF92CF92DF92EF92FF920F931F93CF9369
:100CB000DF93CDB7DEB764970FB6F894DEBF0FBEF3
:100CC000CDBF162FE62EF12CA701BC01CE01019657
:100CD0000E94B62141E050E04C0F5D1F4E0D5F1D9C
:100CE000612FCE0101960E940105813011F582E14C
:100CF0008C8B1B8A22E0210F812CA12CCE014396E4
:100D00006C0101967C018E010F5F1F4FA80160E30B
:100D10008CE00E943E05813061F48C89813041F481
:100D20009B89943029F499819A3019F089E001C0A7
:100D300082E064960FB6F894DEBF0FBECDBFDF91A0
:100D4000CF911F910F91FF90EF90DF90CF90AF90D8
:100D50008F9008958F92AF92CF92DF92EF92FF9291
:100D60000F931F93CF93DF93CDB7DEB72C970FB6BA
:100D7000F894DEBF0FBECDBF90E699838A83DE0173
:100D80001396E1E4F3E086E08E0F91919D938E132C
:100D9000FCCF80918905898780918A058A87809117
:100DA0008B058B8780918C058C87812CA12CC12C85
:100DB000D12CE12CF12C00E010E02CE0AE014F5FD3
:100DC0005F4F60E18EE00E943E052C960FB6F894CE
:100DD000DEBF0FBECDBFDF91CF911F910F91FF906E
:100DE000EF90DF90CF90AF908F9008958F929F9269
:100DF000AF92BF920F931F93CF93DF93CDB7DEB720
:100E0000A1970FB6F894DEBF0FBECDBF19A2423036
:100E100008F44AE08E010F5D1F4F842E912CA12C07
:100E2000B12CA50194010E94DF1CE62FB901CA0173
:100E300001501109EA3014F4E05D01C0E95CD80109
:100E4000EC93232B242B252B61F7C8010E947604F9
:100E5000A1960FB6F894DEBF0FBECDBFDF91CF9144
:100E60001F910F91BF90AF909F908F900895CF9258
:100E7000DF92EF92FF92CF93DF936C01990FEE0810
:100E8000FF08F7FE1FC0E0919B03F0919C030190C7
:100E9000F081E02D6DE28BE993E00995EC01662786
:100EA0007727CB016C197D098E099F094AE00E94C2
:100EB000F6068C0F9D1FDF91CF91FF90EF90DF9092
:100EC000CF9008954AE0C701B601DF91CF91FF901E
:100ED000EF90DF90CF900C94F606EF92FF920F9375
:100EE0001F93CF93DF9300D0CDB7DEB77C01F7FC23
:100EF00003968C01036083E0E816F1047CF0C701DF
:100F0000019683709927892B49F4C7010E943707FE
:100F100087E492E00E94AE0482E04BC0C7010E94C9
:100F200037078CE592E00E94AE04802F0E94AA064B
:100F3000182F8130B1F08EE692E00E94BC0411506F
:100F4000193048F4E12FF0E0EE0FFF1FE65FFE4F8F
:100F50008081918102C085E394E00E94880483E04F
:100F600028C080EA8983EA8262E0CE0101960E946D
:100F70004F06182F813031F460E181E393E00E9445
:100F80004F06182F1130B9F08AE892E00E94BC0495
:100F90001150193048F4E12FF0E0EE0FFF1FE65F2B
:100FA000FE4F8081918102C085E394E00E94880415
:100FB00084E090E004C082EA92E00E94AE040F90C8
:100FC0000F90DF91CF911F910F91FF90EF900895B7
:100FD0008F92AF92CF92DF92EF92FF920F931F9377
:100FE000CF93DF9361157105F9F0FA019081923189
:100FF000D8F07A01EB0190E398838983AB014E5FCF
:101000005F4F62E0CE010E940105813071F48824B7
:101010008394A12CC12CD12C8E0124E0AE0160E37D
:101020008CE00E943E0501C085E0DF91CF911F91C9
:101030000F91FF90EF90DF90CF90AF908F90089539
:101040000F931F93CF93DF931F92CDB7DEB7082F77
:10105000282F392F37FF02C02D5F3F4F822F83602B
:101060000E94AA06182F8130B1F084EB92E00E9412
:10107000BC041150193048F4E12FF0E0EE0FFF1FCF
:10108000E65FFE4F8081918102C085E394E00E947B
:10109000880483E022C082E18983AE014F5F5F4F05
:1010A0006FE173E0802F0E94E807182F8130B9F0BC
:1010B00087ED92E00E94BC041150193048F4E12FF2
:1010C000F0E0EE0FFF1FE65FFE4F8081918102C0CE
:1010D00085E394E00E94880484E090E004C08EEEF2
:1010E00092E00E94AE040F90DF91CF911F910F917B
:1010F0000895CF92DF92EF92FF920F931F93CF93B9
:10110000DF936C017A018B01C0E0D0E0CE15DF05E2
:1011100089F0D8016D918D01D601ED91FC9101907E
:10112000F081E02DC6010995892B11F47E0102C0E2
:101130002196ECCFC701DF91CF911F910F91FF90C6
:10114000EF90DF90CF900895FC01918D828D9817DC
:1011500061F0828DDF01A80FB11D5D968C91928D9B
:101160009F5F9F73928F90E008958FEF9FEF089598
:10117000FC01918D828D981731F0828DE80FF11D61
:10118000858D90E008958FEF9FEF0895FC01918D7C
:10119000228D892F90E0805C9F4F821B91098F7375
:1011A000992708958BE993E00E94C60821E0892BD6
:1011B00009F420E0822F0895FC01848DDF01A80F3F
:1011C000B11DA35ABF4F2C91848D90E001968F736F
:1011D0009927848FA689B7892C93A089B1898C918E
:1011E00080648C93938D848D981306C00288F38954
:1011F000E02D80818F7D80830895EF92FF920F9381
:101200001F93CF93DF93EC0181E0888F9B8D8C8DB2
:10121000981305C0E889F989808185FD24C0F62EE0
:101220000B8D10E00F5F1F4F0F731127E02E8C8D79
:10123000E8120CC00FB607FCFACFE889F989808163
:1012400085FFF5CFCE010E94DC08F1CF8B8DFE012A
:10125000E80FF11DE35AFF4FF0820B8FEA89FB89FB
:101260008081806207C0EE89FF896083E889F989FF
:1012700080818064808381E090E0DF91CF911F9135
:101280000F91FF90EF900895CF93DF93EC01888D3D
:101290008823C9F0EA89FB89808185FD05C0A8897A
:1012A000B9898C9186FD0FC00FB607FCF5CF808100
:1012B00085FFF2CFA889B9898C9185FFEDCFCE014A
:1012C0000E94DC08E7CFDF91CF91089580E090E0A5
:1012D000892B29F00E94D20881110C9400000895F6
:1012E0003FB7F8948091C1059091C205A091C305C4
:1012F000B091C40526B5A89B05C02F3F19F00196F3
:10130000A11DB11D3FBFBA2FA92F982F8827820F8B
:10131000911DA11DB11DBC01CD0143E0660F771FDA
:10132000881F991F4A95D1F70895DC015196ED91D8
:10133000FC915297908150968C918095892380835F
:1013400008952091990330919A032817390781F461
:101350009091970380919803981751F0E09197032B
:10136000F0E0E456FA4F8081082E000C990B0895A6
:101370008FEF9FEF08952091990330919A032817DA
:10138000390739F48FB7F8941092980310929703A5
:101390008FBF08952091990330919A032817390738
:1013A00069F4809198032091970390E08096821BC6
:1013B000910960E270E00E94CB1C08958FEF9FEFCF
:1013C00008952091990330919A0328173907B9F4A9
:1013D00090919703809198039817A1F0E09197035B
:1013E000F0E0E456FA4F80812091970330E02F5FC0
:1013F0003F4F2F7133272093970390E008958FEF8D
:101400009FEF08958EEF9FEF08950E94B1210F93F3
:101410001F93CF93DF93EC0188819981009729F086
:101420002A813B812617370788F48B016F5F7F4F36
:101430000E94E720009761F0998388831B830A83C9
:101440002C813D81232B11F4FC01108281E001C02D
:1014500080E0DF91CF911F910F910895EF92FF925D
:101460000F931F93CF93DF93FC0124813581611586
:10147000710511F480E019C041155105A9F07B01F7
:10148000EC018A01020F131FB8010E94070A88238A
:1014900089F3288139818C819D81B701820F931F47
:1014A0000E94CA211D830C8381E0DF91CF911F919F
:1014B0000F91FF90EF900895CF93DF93EC01888117
:1014C0009981009711F00E944F20198218821D8285
:1014D0001C821B821A82DF91CF910895EF92FF92B6
:1014E0000F931F93CF93DF93EC017B018A01BA0125
:1014F0000E94070A811104C0CE010E945C0A07C045
:101500001D830C83B701888199810E94CA21CE0175
:10151000DF91CF911F910F91FF90EF900895EF927F
:10152000FF920F931F93CF93DF93CDB7DEB7299729
:101530000FB6F894DEBF0FBECDBF8C01862FF80129
:1015400011821082138212821582148250E09E0151
:101550002F5F3F4F7901B90190E00E942322F701EC
:1015600001900020E9F73197AF014E195F09B701EB
:10157000C8010E946E0A29960FB6F894DEBF0FBE0E
:10158000CDBFDF91CF911F910F91FF90EF90089504
:101590001F920F920FB60F9211242F933F934F93E8
:1015A0005F936F937F938F939F93AF93BF93EF93CB
:1015B000FF938BE993E00E94DC08FF91EF91BF91CC
:1015C000AF919F918F917F916F915F914F913F91DB
:1015D0002F910F900FBE0F901F9018951F920F9292
:1015E0000FB60F9211242F938F939F93EF93FF9336
:1015F000E091AB03F091AC038081E091B103F091F5
:10160000B20382FD12C090818091B4038F5F8F730B
:101610002091B503821751F0E091B403F0E0E55654
:10162000FC4F958F8093B40301C08081FF91EF91AF
:101630009F918F912F910F900FBE0F901F90189533
:10164000833081F028F4813099F08230A1F0089540
:101650008730A9F08830B9F08430D1F480918000CF
:101660008F7D03C0809180008F77809380000895E4
:1016700084B58F7702C084B58F7D84BD0895809135
:10168000B0008F7703C08091B0008F7D8093B00051
:1016900008951F93CF93DF93282F30E0F901EC508A
:1016A000FF4F8491F901E559FB4FD491F901E95AB3
:1016B000FB4FC491CC23C9F0162F81110E94200B3F
:1016C000EC2FF0E0EE0FFF1FED5BFB4FA591B49107
:1016D0008FB7F894111105C09C91ED2FE095E92387
:1016E00002C0EC91ED2BEC938FBFDF91CF911F9156
:1016F0000895CF93DF9390E0FC01E559FB4F2491CF
:10170000FC01E95AFB4F8491882361F190E0880F36
:10171000991FFC01E651FF4FC591D491FC01ED5B8F
:10172000FB4FA591B491611109C09FB7F8948881CE
:10173000209582238883EC912E230BC0623061F4C4
:101740009FB7F8943881822F809583238883EC910A
:101750002E2B2C939FBF06C08FB7F894E8812E2BB9
:1017600028838FBFDF91CF9108958F929F92AF9280
:10177000BF92CF92DF92EF92FF926B017C010E94A9
:1017800070094B015C01C114D104E104F104F1F0D2
:101790000E947009DC01CB0188199909AA09BB09CB
:1017A000883E9340A105B10570F321E0C21AD1082B
:1017B000E108F10888EE880E83E0981EA11CB11C98
:1017C000C114D104E104F10419F7DDCFFF90EF90CB
:1017D000DF90CF90BF90AF909F908F9008952FB7DC
:1017E000F8946091BD057091BE058091BF05909100
:1017F000C0052FBF08951F920F920FB60F921124AC
:101800002F933F938F939F93AF93BF938091BD0589
:101810009091BE05A091BF05B091C0053091BC0567
:1018200026E0230F2D3720F40296A11DB11D05C01F
:1018300029E8230F0396A11DB11D2093BC058093B9
:10184000BD059093BE05A093BF05B093C0058091E0
:10185000C1059091C205A091C305B091C405019640
:10186000A11DB11D8093C1059093C205A093C3052E
:10187000B093C405BF91AF919F918F913F912F91EC
:101880000F900FBE0F901F90189520E001972FEF3B
:101890008F3F9207D9F70895CF92DF92EF92FF9290
:1018A0000F931F93CF93DF93EC01898D9A8D00974F
:1018B00029F421E030E03B832A8364C0FFB6F8942A
:1018C00028E030E090E081E0482F462309F09F5F58
:1018D000880F21503109C1F78E8D81119F5FE62E4F
:1018E000192F1095CE010E949509898D9A8D049625
:1018F0000E94450C88E0C82ED12C01E0802F8E215B
:1019000039F0E989FA8990818889892B808303C01D
:10191000CE010E949509898D9A8D0E94450C000F79
:1019200081E0C81AD10851F78E8D882339F0E989F2
:10193000FA8990818889892B808303C0CE010E9417
:101940009509898D9A8D0E94450C10FF07C0E98981
:10195000FA8990818889892B808303C0CE010E94F7
:101960009509898D9A8D0E94450CE989FA899081A3
:101970008889892B8083FFBE8B8D9C8D0E94450CAE
:1019800081E090E0DF91CF911F910F91FF90EF9058
:10199000DF90CF900895EF92FF920F931F93CF9314
:1019A000DF93C0919903D0919A03209709F443C023
:1019B0008B899C890E94450C88E0E82EF12C10E070
:1019C00001E08D899E890E94450CEE85FF859081FE
:1019D0008D85892311F0102B03C0802F809518234B
:1019E000000F81E0E81AF10861F78D899E890E9455
:1019F000450C8F89988D0E94450C80919803209109
:101A0000970390E001968F71992730E08217930732
:101A100079F0E0919803F0E0E456FA4F108380915A
:101A2000980390E001968F7199278093980303C0E3
:101A30008D8D81608D8FDF91CF911F910F91FF90E0
:101A4000EF9008951F920F920FB60F9211242F93CB
:101A50003F934F935F936F937F938F939F93AF9336
:101A6000BF93EF93FF930E94CB0CFF91EF91BF9137
:101A7000AF919F918F917F916F915F914F913F9126
:101A80002F910F900FBE0F901F9018951F920F92DD
:101A90000FB60F9211242F933F934F935F936F9341
:101AA0007F938F939F93AF93BF93EF93FF930E9486
:101AB000CB0CFF91EF91BF91AF919F918F917F914F
:101AC0006F915F914F913F912F910F900FBE0F90AB
:101AD0001F9018951F920F920FB60F9211242F93FB
:101AE0003F934F935F936F937F938F939F93AF93A6
:101AF000BF93EF93FF930E94CB0CFF91EF91BF91A7
:101B0000AF919F918F917F916F915F914F913F9195
:101B10002F910F900FBE0F901F9018958EBD000053
:101B20000DB407FEFDCF8EB50895CF93DF93C0E0CF
:101B3000D0E08091620590E0C817D907ECF42097B7
:101B400061F00197C817D90741F081E02091600545
:101B500030916105C217D30709F480E0FE01E45516
:101B6000FB4F60818093810583E695E00E944C0CD9
:101B7000109281052196DDCFDF91CF9108952F92AC
:101B80003F924F925F926F927F928F929F92AF920D
:101B9000BF92CF92DF92EF92FF920F931F93CF935A
:101BA000DF93CDB7DEB7A0970FB6F894DEBF0FBEB8
:101BB000CDBF9091AA049923C9F02EE72093AC04DD
:101BC00022E92093AD0423E22093AE049093AF0466
:101BD00090910301992311F0915003C01092AA042F
:101BE00096E09093030104E010E002C000E010E0F2
:101BF0009091AA0491118AC19EE79093AC049FE949
:101C00009093AD041092AE0495E19093AF0494EAE2
:101C10009093B0049CEA9093B10498E09093B2043E
:101C20001092B3048111DBC080E48093AE04709005
:101C3000AB04809038049090390408E010E0612CE7
:101C4000D62CD70CED2DF0E0E815F9050CF0BAC054
:101C5000DF01AA0FBB1FA657BB4FAD90BC90A114CC
:101C6000B10409F4ABC0D29430EFD322C801885C30
:101C70009B4F7C01DC01AC58BF4FDC92E658FB4F18
:101C8000C080CC2021F093E09C1590F104C0D501D8
:101C90006D917C9130C06C2D70E080E090E00E94EE
:101CA0005D229B01AC0160E070E080E291E40E9463
:101CB000351EF50120813181428153810E94BE226F
:101CC0001B012C0120E030E0A9010E94301E20E021
:101CD00030E040E05FE387FD05C0C201B1010E9432
:101CE0001C1D04C0C201B1010E941B1D0E94FA1DEF
:101CF000F3E0FC15B0F0F701EC58FF4F8D2D81603B
:101D000080837F79D12C20E2C29ED02CCC24112458
:101D10006C297D2931966083319670830D5F1F4F4A
:101D20004DC035E03C1508F1F701EC58FF4F8D2D03
:101D300085608083D50112968C91129731968083AD
:101D400011968C911197319680832C912F71C80137
:101D5000855C9B4FB4E0FC01EC58FF4FCB1201C0F7
:101D6000206220830C5F1F4F29C0E9E0CE1226C0FD
:101D7000F701EC58FF4F8D2D89608083D5011396B4
:101D80008C9113973196808312968C91129731968D
:101D9000808311968C911197319680838C91F801F4
:101DA000E055FB4F80838C91853421F08E3421F4F3
:101DB000108202C0B0E2B0830B5F1F4F6394E6E075
:101DC0006E123ECF86E0870D282F30E028153905AA
:101DD0001CF48093AB047BC01092AB0478C0E091FC
:101DE000C505F0E0EE0FFF1FE65CFB4F60817181DF
:101DF0007E01F1E1EF0EF11CC7010E940922E09182
:101E0000C505F0E0EE0FFF1FE65AFB4F60817181C0
:101E10008E010F5F1F4FC8010E9409228091C505E6
:101E20008093B404F70101900020E9F73197EE198F
:101E3000FF09EE0FEE0FEE0FD8010D900020E9F72D
:101E40001197A01BB10BA370EA2BE093B504D70147
:101E50002AE030E0F70101900020E9F73197AF0167
:101E60004E195F09F901EC58FF4FBD016E197F094A
:101E70006417750738F49D91E85CFB4F90832F5FE2
:101E80003F4FE8CFE85CFB4FA801201B310BB901A5
:101E9000640F751FD8010D900020E9F71197A01B62
:101EA000B10B7A01E01AF10AEA16FB0628F4DA010E
:101EB0009D91AD019193EBCF8B018F5F90E060918D
:101EC0003804709139040E94CB1C8093C505809121
:101ED000AE049EEF900F892B8093AE0422E0E0E0E9
:101EE000822F90E0801791075CF4DC01A455BB4F72
:101EF0008C91E827F0E0E158FB4FE4912F5FF0CFA1
:101F0000D801A455BB4FEC930F5F1F4FC801885CED
:101F10009B4FFC01EC58FF4F2EEF2083109361057F
:101F200000936005D801A355BB4FE7E6F3E020E23C
:101F30002E0F31913D932E13FCCFFC01EB56FF4F3A
:101F40008FEF80830E5D1F4F0093620581E0A096A6
:101F50000FB6F894DEBF0FBECDBFDF91CF911F91BA
:101F60000F91FF90EF90DF90CF90BF90AF909F9038
:101F70008F907F906F905F904F903F902F9008953B
:101F8000CF93DF93FC0144815581608171818BE99E
:101F900093E00E947908EC0184E492E00E947604C8
:101FA0008C0F9D1FDF91CF910895CF93DF93BC01DC
:101FB00080E090E04AE00E94F606EC0184E492E0C2
:101FC0000E9476048C0F9D1FDF91CF910895CF93CF
:101FD000DF9300D0CDB7DEB789831A8241E050E0AD
:101FE000BE016F5F7F4F82E895E00E942E0A0F903E
:101FF0000F90DF91CF9108951F93CF93DF931F929E
:10200000CDB7DEB7182F69830E94BE046981609541
:102010006823812F0F90DF91CF911F910C94DC04E6
:102020002F923F924F925F926F927F928F929F92E8
:10203000AF92BF92CF92DF92EF92FF920F931F93D6
:10204000CF93DF93CDB7DEB72C970FB6F894DEBFF2
:102050000FBECDBF60E88CE10E94FC0F99249394E1
:1020600044244394512C22E0921651F033E093160D
:1020700061F081E09812ECC083E98983B12C09C03A
:1020800085E9898353E0B52E04C087E9898346E05A
:10209000B42E312C33E0232E90E239121DC0E0E73C
:1020A000EA839C818B8189279D8189279E8189274D
:1020B0008F83AE01485F5F4F67E0CE0101960E94BB
:1020C0000105813009F0C8C01B862A869E01295F60
:1020D0003F4F390129E01EC0932D97709B87432DF8
:1020E00045954595459582E0840F292F30E1839FE2
:1020F000200D11242A8321E0911101C020E0280F36
:1021000066246394712C6C0E7D1E680E711C87E032
:10211000841B8A87AB846A2D6295607F6A0D8AE191
:102120002C870E94DC04812CCE010B966C01FE01F1
:102130003A967F0183012C85AE014F5F5F4F60E3CC
:102140008CE00E943E05833091F58CE10E94BE0434
:1021500085FD7CC08F7109F480E2482F50E0632D2B
:10216000330C770B641775070CF072C0382ECA0158
:10217000019787709927242F25952595259541E06E
:10218000420F21E0009709F420E0240FE1E0F0E0A5
:10219000EC0FFD1FE20FF11D920102C0220F331F51
:1021A0008A95E2F7C9019081892B808375CF8130B0
:1021B00009F052C030E2331619F020E2322E6FCF10
:1021C0008B81883819F443E023E002C042E024E028
:1021D00080E090E06B2D70E0FC01E60FF71FE85700
:1021E000FA4F542F580FA1E0B0E0AC0FBD1FA50F60
:1021F000B11D5C9151830196821770F38A858330FB
:1022000049F58B85811126C0AE014D5F5F4F61E0BE
:10221000C3010E9401058130F9F49B81F3018181A2
:1022200098131CC09C818281981318C0808182FF02
:1022300002C0939418CF80939305892D880F382F6F
:10224000390D3F5F3093880591E009C093E007C0E6
:1022500096E005C092E003C0982F01C098E081E0AD
:10226000913009F080E02C960FB6F894DEBF0FBED7
:10227000CDBFDF91CF911F910F91FF90EF90DF9035
:10228000CF90BF90AF909F908F907F906F905F9016
:102290004F903F902F9008958F92AF92CF92DF9200
:1022A000EF92FF920F931F93CF93DF9300D000D054
:1022B0001F92CDB7DEB782E08D8386E28C8360E823
:1022C0008CE10E94FC0F87E08B83812CA12CCE0136
:1022D00003966C0102967C018E010F5F1F4F21E077
:1022E000AE014C5F5F4F60E38CE00E943E058130A1
:1022F00039F48D81823019F48B81882331F082E0AA
:1023000091E0833019F090E001C091E0892F0F90A7
:102310000F900F900F900F90DF91CF911F910F9121
:10232000FF90EF90DF90CF90AF908F900895CF9374
:10233000DF93CDB7DEB7E1970FB6F894DEBF0FBEDF
:10234000CDBF789484B5826084BD84B5816084BD3E
:1023500085B5826085BD85B5816085BD80916E0043
:10236000816080936E001092810080918100826074
:1023700080938100809181008160809381008091B1
:1023800080008160809380008091B10084608093A0
:10239000B1008091B00081608093B00080917A009C
:1023A000846080937A0080917A00826080937A00C2
:1023B00080917A008E7F80937A0080917A00806885
:1023C00080937A001092C100E091AB03F091AC03CE
:1023D00082E08083E091A703F091A8031082E0914E
:1023E000A903F091AA0387E680831092B303E091DA
:1023F000AF03F091B00386E08083E091AD03F091EC
:10240000AE03808180618083E091AD03F091AE03E3
:10241000808188608083E091AD03F091AE0380817C
:1024200080688083E091AD03F091AE0380818F7D61
:1024300080831FB7F8948091FE02811127C0E1E6E6
:10244000F4E08491E5E7F4E09491E82FF0E0EE0FFA
:10245000FF1FE651FF4FA591B491EC91E92321F4C0
:1024600061E08AE00E94490B61E08AE00E94790BFA
:102470008CB580618CBD8CB580648CBD61E08DE0D5
:102480000E94790B61E08BE00E94790B8091FE0243
:102490008F5F8093FE021FBF61E0809194050E94D0
:1024A000790B61E0809194050E94490B61E0809175
:1024B00095050E94790B8CB58F7D8CBD8CB5837F83
:1024C0008CBD2091950530E0F901EC50FF4F8491CF
:1024D000F901E559FB4F0491F901E95AFB4F1491B9
:1024E000112381F081110E94200BE12FF0E0EE0F0B
:1024F000FF1FE35BFB4FA591B491EC91E02311F03A
:102500000C94CA1B61E0809195050E94490B62E31F
:1025100070E080E090E00E94B50B60E884E50E94E6
:10252000DC0469EA86E50E94DC0463E088E50E9439
:10253000DC0468EE8AE50E94DC0460E48AE20E9422
:10254000DC046DE382E20E94DC0488E20E94BE04A7
:10255000982F9370933029F0682F636088E20E946F
:10256000DC048CE391E00E94BC0486E995E00E94C3
:10257000C00F85E591E00E94AE048BE691E00E94D9
:10258000AE0486E492E00E94AE0485E991E00E94E8
:10259000AE048CE991E00E94AE048FEF809341037A
:1025A00080934203809343038093440380934503C5
:1025B000809346031092000161E08DE00E94790B48
:1025C00061E08DE00E94490B61E083E00E94790B9D
:1025D00010927F0510927E0510927D0510927C0569
:1025E00010927B0510927A05109279051092780569
:1025F00088E091E020E030E0FC0145915591659143
:102600007491443E55426105710509F034C04EE0B5
:10261000429FC001439F900D1124FC01E45FFE4FD7
:10262000259134913093770520937605FC01E25F84
:10263000FE4F259134913093790520937805FC0164
:10264000E05FFE4F2591349130937B0520937A050E
:10265000FC01EE5EFE4F2591349130937D05209371
:102660007C05FC01EC5EFE4F8591949190937F0573
:1026700080937E050BC02F5F3F4F0E962E303105A5
:1026800009F0BACF109277051092760580917A05FD
:1026900090917B05892B09F446C090916F05963186
:1026A000E0F520916800983050F031E09E3008F459
:1026B00030E081E001C0880F3A95EAF701C084E07C
:1026C000822B80936800983038F09E3040F096312D
:1026D00048F4ECE6F0E008C0EDE6F0E005C0EBE61B
:1026E000F0E002C0E0E0F0E04081983030F481E0BA
:1026F00001C0880F9A95EAF70EC0292F30E09E306E
:1027000018F42850310902C02E50310981E001C06F
:10271000880F2A95EAF7842B808380917C0590911D
:102720007D050E94450C0E941C0363E072E082E17B
:1027300092E00E940D0487EF91E090933B04809318
:102740003A048CEC91E090935B0480935A0480915E
:102750003804909139049C012F5F3F4FF901EE0F2F
:10276000FF1FE65CFB4F44EF51E051834083FC01C7
:10277000EE0FFF1FE45AFB4F43EF51E051834083BC
:10278000FC01EE0FFF1FE457FB4F11821082F9018D
:10279000E658FB4F10822E5F3F4FF901EE0FFF1FEF
:1027A000E85CFB4F4AEE51E051834083FC01EE0FA1
:1027B000FF1FE25AFB4F46EE51E051834083FC017C
:1027C000EE0FFF1FE257FB4F11821082FC01E4580D
:1027D000FB4F1082AC014C5F5F4FFA01EE0FFF1F01
:1027E000E85CFB4F6FED71E071836083FC01EE0FDD
:1027F000FF1FE05AFB4F6EED71E071836083FC01B7
:10280000EE0FFF1FE057FB4F11821082F901E658CF
:10281000FB4F10822E5F3F4FF901EE0FFF1FE85C68
:10282000FB4F68ED71E071836083FC01EE0FFF1FC9
:10283000EE59FB4F67ED71E071836083FC01EE0F91
:10284000FF1FEE56FB4F11821082FA01E658FB4F34
:1028500010824E5F5F4FFA01EE0FFF1FE85CFB4FE7
:102860006FEC71E071836083FC01EE0FFF1FEC5988
:10287000FB4F6EEC71E071836083880F991FFC0140
:10288000EC56FB4F11821082F901E658FB4F108283
:1028900050933904409338048AE193E090938D0477
:1028A00080938C0410927B0488E193E090938F04D2
:1028B00080938E0410927C0486E193E090939104BF
:1028C0008093900410927D0484E193E090939304AC
:1028D0008093920410927E0482E193E09093950499
:1028E0008093940410927F0481E00E94BF0D0E94A7
:1028F000950D6EE170E080E090E00E94B50B809154
:10290000C5058111F1CF60E08DE00E94490B109266
:102910001B0310921A0310921903109218031092BD
:1029200017031092160310921503109214031092BD
:1029300013031092120310920C0310920B031092C7
:102940000A031092090310920803109207031092D1
:1029500004031092030363E6C62ED12C72E6A72E61
:10296000B12C99249394EE24E394F12CF2E18F2E70
:102970008E010D5E1F4F80911E03882321F18091EF
:102980001D03882301F10E944C110E944C118111FA
:102990001AC010921D0310921C0310921E03109275
:1029A0001B0310921A03109219031092180310922D
:1029B000170310921603109215031092140310922D
:1029C00013031092120380911E03882361F18091FA
:1029D0001103882341F168E080E10E94FC0F0E940E
:1029E0004C110E944C1181111EC0109211031092C3
:1029F0001C0310921E031092100310920F031092EA
:102A00001B0310921A0310921903109218031092CC
:102A100017031092160310921503109214031092CC
:102A20001303109212030E94EF0B0E94950D0E9457
:102A3000EF0B2B013C0160E083E00E94790B62E028
:102A400084E00E94790B0E941C0383E695E00E94BB
:102A5000BB0983E695E00E94CA09892B61F40E94B4
:102A6000EF0BDC01CB0184199509A609B70906977C
:102A7000A105B10570F383E695E00E94CA09181616
:102A800019060CF005C283E695E00E94E109209149
:102A90000101309102012817390709F4F9C1909317
:102AA00002018093010120910D0330910E038039C2
:102AB000910509F4E4C044F48036910509F4B5C1E8
:102AC00080379105F9F0E4C1803D9105B1F1803E78
:102AD000910529F0803B910509F0DAC17DC02930CC
:102AE000310509F4D5C12F5F3F4F30930E0320937A
:102AF0000D032830310509F0CBC110920E0310925E
:102B00000D03C6C12336310521F4F0920E03E09285
:102B10000D0380910D0390910E038236910529F4E7
:102B2000F0920E03E0920D03B3C1019790930E0350
:102B300080930D030A970CF7ABC12230310569F47D
:102B400080910B0390910C03019690930C0380935A
:102B50000B0330930E0320930D0320910D0330914E
:102B60000E032330310551F48091090390910A033B
:102B70008C599F4F90930A038093090320910D0372
:102B800030910E032430310549F480910703909170
:102B900008030196909308038093070320910D0387
:102BA00030910E032530310549F480910503909151
:102BB00006030196909306038093050320910D036D
:102BC00030910E032630310509F062C18091030374
:102BD0009091040301964EC02230310569F4809132
:102BE0000B0390910C030A9690930C0380930B03B4
:102BF00030930E0320930D0320910D0330910E03AB
:102C00002330310551F48091090390910A038851D2
:102C10009C4F90930A038093090320910D033091F8
:102C20000E032430310549F4809107039091080385
:102C30000A96909308038093070320910D03309127
:102C40000E032530310549F4809105039091060368
:102C50000A96909306038093050320910D0330910B
:102C60000E032630310509F013C1809103039091C2
:102C700004030A96909304038093030309C123304D
:102C8000310569F48091090390910A03C2969093EB
:102C90000A038093090330930E0320930D03809160
:102CA0000D0390910E03079709F0F2C0D0920E0326
:102CB000C0920D0380911E03882309F4A9C080915E
:102CC0001103882309F4A4C00E94101080910B0303
:102CD00090910C0390933103809332038091090308
:102CE00090910A03909333038093340380910703F8
:102CF00090910803909335038093360380910303EA
:102D000090910403909337038093380384E090E01C
:102D10000E946D0780910503909106039093310303
:102D20008093320385E090E00E946D0710921C03AF
:102D300084E090E00E94200880911F0390E0982F8B
:102D4000882720912003822B90931B0380931A03E2
:102D50008091210390E0982F882720912203822BD5
:102D600090931903809318038091230390E0982F88
:102D7000882720912403822B9093170380931603B6
:102D80008091250390E0982F882720912603822B9D
:102D9000909315038093140385E090E00E9420082F
:102DA00080911F0390E0982F882720912003822B89
:102DB000909313038093120390921E0320911C039F
:102DC000211124C020911A0330911B0330930C036E
:102DD00020930B03209118033091190330930A03B9
:102DE00020930903209116033091170330930803B1
:102DF00020930703209114033091150330930403AB
:102E000020930303909306038093050390921C0381
:102E100080911E038823E1F180911D038823C1F175
:102E2000B0920E03A0920D0333C02230310541F45D
:102E300010920C0310920B0330930E0320930D039A
:102E400080910D0390910E03039721F410920A03D1
:102E50001092090380910D0390910E03049721F4C1
:102E6000109208031092070380910D0390910E03B6
:102E7000059721F4109206031092050380910D032B
:102E800090910E03069721F410920403109203030D
:102E900020910D0330910E032930310509F478C1DA
:102EA00010920203109201032430310509F412C17B
:102EB000A4F52130310509F471C044F4232B09F045
:102EC0006DC16DE273E08CE393E066C122303105A1
:102ED00009F4E1C02330310509F060C110925703B5
:102EE0001092470361EF72E087E593E00E94FE21B4
:102EF000109287036091090370910A0380E090E0CB
:102F00000E945D220E94390367E873E087E593E041
:102F10000E94BF2161EE72E034C12730310509F40F
:102F200017C13CF52530310509F4F3C026303105D1
:102F300009F034C1109257031092470366EA72E019
:102F400087E593E00E94FE211092870360910303BE
:102F50007091040380E090E00E945D220E9439039A
:102F600067E873E087E593E00E94BF2166E972E0BD
:102F700008C12236310509F4F8C02336310509F0BD
:102F80000DC1109257031092470361E572E087E587
:102F900093E00E94FE2161E472E0F3C010925703B7
:102FA000109247036AE273E087E593E00E94FE21F6
:102FB0001092870360910B0370910C0380E090E006
:102FC0000E945D220E94390367E873E087E593E081
:102FD0000E94BF2165E273E087E493E00E94FE2136
:102FE000109287036091090370910A0380E090E0DA
:102FF0000E945D220E94390367E873E087E493E052
:103000000E94BF2160E273E087E593E00E94FE2109
:1030100010928703609107037091080380E090E0AD
:103020000E945D220E94390367E873E087E593E020
:103030000E94BF216AE173E087E493E00E94FE21D1
:1030400010928703609103037091040380E090E085
:103050000E945D220E94390367E873E087E493E0F1
:103060000E94BF2166E173E087E593E00E94FE21A4
:1030700010928703609105037091060380E090E051
:103080000E945D220E94390367E873E087E593E0C0
:103090000E94BF217AC010925703109247036CE040
:1030A00073E087E593E00E94FE2110928703609110
:1030B0000B0370910C0380E090E00E945D220E945F
:1030C000390367E873E087E593E00E94BF216CEF66
:1030D00072E057C0109257031092470368ED72E0F8
:1030E00087E593E00E94FE21109287036091070319
:1030F0007091080380E090E00E945D220E943903F5
:1031000067E873E087E593E00E94BF2168EC72E016
:1031100038C010925703109247036EEB72E087E5B8
:1031200093E00E94FE211092870360910503709145
:10313000060380E090E00E945D220E94390367E868
:1031400073E087E593E00E94BF216EEA72E019C048
:10315000109257031092470366E872E087E593E008
:103160000E94FE216EE772E00CC01092570310928D
:1031700047036EE672E087E593E00E94FE216EE56C
:1031800072E087E493E00E94FE210E943B0406C0A7
:1031900062E272E081E392E00E940D048091FF02FE
:1031A000909100030196909300038093FF0205978E
:1031B00044F081E00E94BF0D109200031092FF02C4
:1031C00003C080E00E94BF0D0E94EF0B61E084E02D
:1031D0000E94790B70901E03711025C00E944C1143
:1031E000882309F4D4C20E941010882309F4CFC2A6
:1031F0008091930582FD17C08930A9F0A0F4813039
:1032000091F058F0883079F49092110310921D03D8
:103210001092100310920F0306C010921103109227
:103220001C0390921D0380910F0390911003803F27
:10323000910509F079C0772009F476C080911103D7
:10324000882309F471C00E94101089EB91E00E945C
:10325000AE04809116039091170301969093170383
:103260008093160320911A0330911B03309331038E
:1032700020933203209118033091190330933303C4
:103280002093340390933503809336038091140385
:1032900090911503909337038093380384E090E076
:1032A0000E946D0780911203909113039093310354
:1032B0008093320385E090E00E946D0785ED91E0F8
:1032C0000E94AE0487EE91E00E94BC0480911A0334
:1032D00090911B030E94D50F8CEE91E00E94BC04DC
:1032E00080911803909119030E94D50F87EF91E008
:1032F0000E94BC0480911603909117030E94D50F81
:1033000080E092E00E94BC04809114039091150328
:103310000E94D50F88E092E00E94BC0480911203C5
:10332000909113030E94D50F80910F039091100389
:1033300020911E03813F91055CF4222359F03091C6
:103340001103332329F001969093100380930F0308
:103350002111B3C080911103882309F4AEC084E029
:1033600090E00E94200880911F0390E0982F88270A
:1033700020912003822B90931B0380931A0380914A
:10338000210390E0982F882720912203822B90938D
:103390001903809318038091230390E0982F8827C6
:1033A00020912403822B909317038093160380911E
:1033B000250390E0982F882720912603822B909355
:1033C00015038093140385E090E00E94200880910B
:1033D0001F0390E0982F882720912003822B909341
:1033E00013038093120382E192E00E94AE0485ED04
:1033F00091E00E94AE0487EE91E00E94BC048091AF
:103400001A0390911B030E94D50F8CEE91E00E944D
:10341000BC0480911803909119030E94D50F87EF87
:1034200091E00E94BC0480911603909117030E94C2
:10343000D50F80E092E00E94BC048091140390912B
:1034400015030E94D50F88E092E00E94BC04809191
:103450001203909113030E94D50F90921E03809146
:103460001C03811128C080911A0390911B03909333
:103470000C0380930B038091180390911903909390
:103480000A03809309038091160390911703909388
:103490000803809307038091140390911503909380
:1034A000040380930303809112039091130390937C
:1034B00006038093050390921C0380911E038111E3
:1034C00066C180911D03882309F461C189AAAE01F8
:1034D0004F5C5F4FBE016F5F7F4F81E10E94E80745
:1034E00040E16D81CE0186960E948F0A40E16C8199
:1034F000CE0180960E948F0A1C8A1B8A1E8A1D8A12
:10350000188E1F8A6EA17FA16115710529F04AA549
:103510005BA5C8010E946E0A4CA15DA168A179A1BA
:10352000C8010E942E0A811103C0C8010E945C0AD2
:103530001B8E1A8E1D8E1C8E1F8E1E8E6B897C8993
:103540006115710531F04F89588DCE014A960E9460
:103550006E0A8B899C890E944F206E8C7F8C61142F
:10356000710411F41CA615C084E06816710418F0EB
:1035700054E0652E712C6A8D7B8DA301CE018C9653
:103580000E94D121ECE2F0E0EC0FFD1FE60DF71DEB
:103590001082CE018C960E94E02190931B038093B1
:1035A0001A0340E050E066E472E082E895E00E9491
:1035B0006E0AAE014F5C5F4FBE016F5F7F4F86E1C9
:1035C0000E94E8078B810E94E70F8C810E94E70F21
:1035D0008D810E94E70F8E810E94E70F8F810E94EC
:1035E000E70F88850E94E70F89850E94E70F8A858B
:1035F0000E94E70F8B850E94E70F8C850E94E70FE2
:10360000AE014F5C5F4FBE016F5F7F4F89E10E944B
:10361000E80789810E94E70F8A810E94E70F8B816A
:103620000E94E70F8C810E94E70F8D810E94E70FB7
:103630008E810E94E70F41E050E065ED72E082E884
:1036400095E00E942E0AAE014F5C5F4FBE016F5F96
:103650007F4F84E10E94E8078C8190E0982F8827B3
:103660002B81822B90931303809312034AE0B801BD
:103670000E942E22F80101900020E9F73197AF0156
:10368000401B510BB80182E895E00E942E0A41E0F0
:1036900050E063E272E082E895E00E942E0AAE01FB
:1036A0004F5C5F4FBE016F5F7F4F85E10E94E8076F
:1036B0008C8190E0982F88272B81822B909319037F
:1036C000809318038E8190E09093150380931403E8
:1036D000AE014F5C5F4FBE016F5F7F4F80E10E9484
:1036E000E8078B8190E0982F88272A81822B90937E
:1036F00017038093160385E292E00E94AE048FE2E6
:1037000092E00E94BC0482E895E00E94C00F87EE20
:1037100091E00E94BC0480911A0390911B030E94C7
:10372000D50F8CEE91E00E94BC048091180390911B
:1037300019030E94D50F87EF91E00E94BC0480918D
:103740001603909117030E94D50F80E092E00E942B
:10375000BC0480911403909115030E94D50F88E05A
:1037600092E00E94BC0480911203909113030E9486
:10377000D50F90921E038A8D9B8D0E944F2088A1A9
:1037800099A10E944F208EA19FA10E944F200E94CC
:103790006609F1C86FE082E00E94DC0462E370E039
:1037A00080E090E00E94B50B82E00E94BE0484FDA0
:1037B000FBCF0C948D12CF92DF92EF92FF92CF93BA
:1037C000DF93EBE9F3E01382128288EEC82E83E0E8
:1037D000D82EE12CF12CC482D582E682F78280E2D9
:1037E00091E09183808385EC90E09587848784ECD9
:1037F00090E09787868780EC90E0918B808B81ECBE
:1038000090E0938B828B82EC90E0958B848B86EC9E
:1038100090E0978B868B118E128E138E148EE6E9B4
:10382000F5E011821082138212821582148245E023
:1038300050E06EE372E0CF010E946E0AE8E8F5E026
:103840008AE0848785E08587E2E8F5E011821082CE
:10385000138212821582148243E050E063EE71E01D
:10386000CF010E946E0AC3E6D5E01B821A82CC8289
:10387000DD82EE82FF8280E391E0998388831C8A57
:103880001B8A1E8A1D8A188E1F8A1A8E198E1C8EFC
:103890001B8EE0E8F5E080818E7F808361E084E02C
:1038A0000E94790B61E084E00E94490BEFE6F4E0AE
:1038B000E491E88BEBE5F4E0E491F0E0EE0FFF1F1C
:1038C000ED5BFB4F859194919A8B898B62E083E04D
:1038D0000E94790B83E08C87EEE6F4E0E491ED87BB
:1038E000EAE5F4E0E491F0E0EE0FFF1FE35BFB4F4D
:1038F000859194919F878E871092AA041092390423
:1039000010923804109262051092AB04DF91CF91AF
:10391000FF90EF90DF90CF90089580E391E0909337
:1039200064058093630520916F05263140F52830AA
:1039300028F02E3030F0ECE6F0E005C0EDE6F0E0E7
:1039400002C0EBE6F0E03081283038F481E090E00E
:1039500001C0880F2A95EAF70FC0422F50E02E30A1
:1039600018F44850510902C04E50510981E090E0CE
:1039700001C0880F4A95EAF7809583238083809160
:103980008205909183050E944F2080919605909129
:1039900097050C944F2097FB072E16F4009407D040
:1039A00077FD09D00E94011D07FC05D03EF49095DB
:1039B00081959F4F0895709561957F4F0895A1E27D
:1039C0001A2EAA1BBB1BFD010DC0AA1FBB1FEE1F99
:1039D000FF1FA217B307E407F50720F0A21BB30BE4
:1039E000E40BF50B661F771F881F991F1A9469F760
:1039F00060957095809590959B01AC01BD01CF01BC
:103A00000895AA1BBB1B51E107C0AA1FBB1FA61725
:103A1000B70710F0A61BB70B881F991F5A95A9F777
:103A200080959095BC01CD010895EE0FFF1F059084
:103A3000F491E02D09945058BB27AA270E94331D0A
:103A40000C9442230E94342338F00E943B2320F040
:103A500039F49F3F19F426F40C9431230EF4E095C9
:103A6000E7FB0C942B23E92F0E94532358F3BA173A
:103A7000620773078407950720F079F4A6F50C9484
:103A800075230EF4E0950B2EBA2FA02D0B01B90172
:103A900090010C01CA01A0011124FF27591B99F0C4
:103AA000593F50F4503E68F11A16F040A22F232FD0
:103AB000342F4427585FF3CF469537952795A79520
:103AC000F0405395C9F77EF41F16BA0B620B730BC7
:103AD000840BBAF09150A1F0FF0FBB1F661F771F38
:103AE000881FC2F70EC0BA0F621F731F841F48F4ED
:103AF000879577956795B795F7959E3F08F0B0CF76
:103B00009395880F08F09927EE0F9795879508955C
:103B10000E949C1D0C9442230E943B2358F00E945B
:103B2000342340F029F45F3F29F00C942B235111EA
:103B30000C9476230C9431230E94532368F3992329
:103B4000B1F3552391F3951B550BBB27AA27621799
:103B50007307840738F09F5F5F4F220F331F441FA6
:103B6000AA1FA9F335D00E2E3AF0E0E832D09150DA
:103B70005040E695001CCAF72BD0FE2F29D0660FC7
:103B8000771F881FBB1F261737074807AB07B0E80A
:103B900009F0BB0B802DBF01FF2793585F4F3AF010
:103BA0009E3F510578F00C942B230C9476235F3FB5
:103BB000E4F3983ED4F3869577956795B795F79596
:103BC0009F5FC9F7880F911D9695879597F908957E
:103BD000E1E0660F771F881FBB1F6217730784071A
:103BE000BA0720F0621B730B840BBA0BEE1F88F729
:103BF000E09508950E94011E6894B1110C947623FB
:103C000008950E945B2388F09F5798F0B92F992759
:103C1000B751B0F0E1F0660F771F881F991F1AF0B7
:103C2000BA95C9F714C0B13091F00E947523B1E084
:103C300008950C947523672F782F8827B85F39F083
:103C4000B93FCCF3869577956795B395D9F73EF450
:103C500090958095709561957F4F8F4F9F4F0895F8
:103C60000E949A2208F48FEF0895FA01EE0FFF1FC9
:103C7000309621053105A1F16115710561F4803897
:103C8000BFE39B0749F168949038810561F0803863
:103C9000BFEF9B0741F099234AF5FF3FE10531054E
:103CA000210519F1E8940894E795D901AA2329F48C
:103CB000AB2FBE2FF85FD0F310C0FF5F70F4A69556
:103CC000E0F7F73950F019F0FF3A38F49F779F93F7
:103CD0000DD00F9007FC9058089546F00C943123B6
:103CE00060E070E080E89FE308954FE79F775F937F
:103CF0004F933F932F930E94301F2F913F914F91ED
:103D00005F910E94BE220C948D1E29F416F00C9433
:103D10002B230C9475230C9431230E945B23A8F36E
:103D20009638A0F707F80F92E8942BE33AEA48EBAD
:103D30005FE70E94D4220F920F920F924DB75EB7A9
:103D40000F920E94781FE8E6F0E00E94BF1E4F919C
:103D50005F91EF91FF91E595EE1FFF1F49F0FE5730
:103D6000E0684427EE0F441FFA95E1F74195550BA3
:103D70000E94F21E0F9007FE0C94E61E0895DF933A
:103D8000CF931F930F93FF92EF92DF927B018C01F1
:103D9000689406C0DA2EEF010E94D122FE01E89459
:103DA000A5912591359145915591A6F3EF010E947A
:103DB000331DFE019701A801DA9469F7DF90EF90B7
:103DC000FF900F911F91CF91DF9108959B01AC015E
:103DD00060E070E080E89FE30C94881D0C942B2336
:103DE0000C94AC1F0E945B23D8F39923C9F3940F62
:103DF000511DA3F39150504094F059F0882332F0B4
:103E0000660F771F881F91505040C1F79E3F5105A4
:103E10002CF7880F911D9695879597F908955F3F28
:103E2000ACF0983E9CF0BB27869577956795B79543
:103E300008F4B1609395C1F7BB0F58F711F460FF18
:103E4000E8CF6F5F7F4F8F4F9F4FE3CF0C94762368
:103E500016F00C94AC1F0C94312368940C942B2313
:103E60000E945B23A8F39923C1F3AEF3DF93CF93B2
:103E70001F930F93FF92C92FDD2788232AF02197E4
:103E8000660F771F881FDAF720E030E040E85FEB2D
:103E90009FE3883920F0803E38F021968F770E948A
:103EA0001C1DE0E9F0E004C00E941C1DEDEBF0E0F9
:103EB0000E94BF1E8B01BE01EC01FB2E6F577109E2
:103EC0007595771F880B990B0E945F2228E132E7D6
:103ED00041E35FE30E94D122AF2D9801AE01FF9034
:103EE0000F911F91CF91DF910E94331D0C944223BB
:103EF000FA01DC01AA0FBB1F9B01AC01BF5728F4DC
:103F0000222733274427507820C0B75190F4AB2F95
:103F10000024469537952795011CA395D2F30020E0
:103F200071F0220F331F441FB395DAF30ED00C94B7
:103F30001B1D61307105A0E88A07B94630F49B016A
:103F4000AC016627772788279078309621F0208368
:103F500031834283538308959F3F31F0915020F481
:103F6000879577956795B795880F911D9695879555
:103F700097F90895CF93DF938230910510F482E092
:103F800090E0E091C805F091C90520E030E0C0E084
:103F9000D0E0309711F14081518148175907C0F0A6
:103FA0004817590761F482819381209719F09B8308
:103FB0008A832BC09093C9058093C80526C021151C
:103FC000310519F04217530718F49A01BE01DF01B9
:103FD000EF010280F381E02DDCCF2115310509F1DD
:103FE000281B390B2430310590F412968D919C9149
:103FF00013976115710521F0FB019383828304C03F
:104000009093C9058093C805FD01329644C0FD0117
:10401000E20FF31F81939193225031092D933C932A
:104020003AC02091C6053091C705232B41F4209159
:104030000601309107013093C7052093C6052091F2
:104040000401309105012115310541F42DB73EB72A
:104050004091080150910901241B350BE091C605E0
:10406000F091C705E217F307A0F42E1B3F0B2817AA
:10407000390778F0AC014E5F5F4F2417350748F0E1
:104080004E0F5F1F5093C7054093C60581939193D0
:1040900002C0E0E0F0E0CF01DF91CF9108950F93EF
:1040A0001F93CF93DF93009709F48CC0FC013297E4
:1040B000138212820091C8051091C90501151105DE
:1040C00081F420813181820F931F2091C6053091A8
:1040D000C7052817390779F5F093C705E093C6059A
:1040E00071C0D80140E050E0AE17BF0750F41296FF
:1040F0002D913C911397AD012115310509F1D9019D
:10410000F3CF9D01DA013383228360817181860FB1
:10411000971F8217930769F4EC0128813981260FD4
:10412000371F2E5F3F4F318320838A819B8193838A
:104130008283452B29F4F093C905E093C80542C05A
:104140001396FC93EE931297ED01499159919E01BC
:10415000240F351FE217F30771F480819181840FDA
:10416000951F029611969C938E938281938113964C
:104170009C938E931297E0E0F0E0D80112968D9117
:104180009C911397009719F0F8018C01F6CF8D914F
:104190009C9198012E5F3F4F820F931F2091C6057F
:1041A0003091C7052817390769F4309729F4109220
:1041B000C9051092C80502C0138212821093C70568
:1041C0000093C605DF91CF911F910F910895A0E054
:1041D000B0E0EDEEF0E20C948023EC01009721F4C6
:1041E000CB010E94BA1FB8C0FC01E60FF71F9C016B
:1041F00022503109E217F30708F4ACC0D9010D9140
:104200001C91119706171707B0F00530110508F437
:104210009FC0C80104978617970708F499C00250F9
:104220001109061B170B019311936D937C93CF011A
:104230000E944F208DC05B01A01AB10A4C01800E74
:10424000911EA091C805B091C90540E050E0E12C55
:10425000F12C109709F44AC0A815B905D1F56D9055
:104260007C901197630182E0C80ED11CCA14DB0454
:1042700080F1A3014A195B096A0182E0C80ED11CD2
:104280001296BC9012971396AC91B5E0CB16D10460
:1042900040F0B282A38351834083D9016D937C9314
:1042A0000AC00E5F1F4FC301800F911FF901918358
:1042B0008083EB2DFA2FE114F10431F0D70113962E
:1042C000FC93EE93129744C0F093C905E093C805A0
:1042D0003FC08D919C9111974817590708F4AC0184
:1042E0007D0112960D90BC91A02DB3CF8091C60593
:1042F0009091C70588159905E1F446175707C8F44A
:104300008091040190910501009741F48DB79EB70B
:104310004091080150910901841B950BE817F9079A
:10432000C8F4F093C705E093C605F9017183608373
:104330000FC0CB010E94BA1F7C01009759F0A80161
:10434000BE010E94B621CE010E944F20C70104C0C9
:10435000CE0102C080E090E0CDB7DEB7EEE00C9475
:104360009C2381E090E0F8940C94B323FB01DC01E2
:1043700002C001900D9241505040D8F70895FB01C2
:10438000DC010D900020E9F7119701900D920020BB
:10439000E1F70895FB01DC0101900D920020E1F7A7
:1043A0000895FB01DC014150504048F001900D920E
:1043B0000020C9F701C01D9241505040E0F7089518
:1043C000FC0188279927E89421912032E9F32930CC
:1043D00010F02E30C8F32B3241F02D3239F46894AE
:1043E00004C00E941B22820F911D219120532A306C
:1043F000C0F31EF4909581959F4F0895FB01DC0159
:104400000D900020E9F7119705900D920020E1F73B
:104410000895FB01DC0105900D920020E1F708955D
:10442000BB274A3031F4992322F4BDE2909581955F
:104430009F4F0C942F227AE0979F902D879F802D7D
:10444000910D112408954532510520F4423010F0A9
:104450000C942E22FB011082CB010895BB27FB0197
:104460005527AA27880F991FAA1FA41710F0A41B6D
:1044700083955051B9F7A05DAA3308F0A95DA193C7
:10448000009779F7B111B1931192CB010C944822A6
:10449000DC01FC01672F71917723E1F7329704C0AB
:1044A0007C916D9370836291AE17BF07C8F3089536
:1044B0000E949A2208F481E00895E89409C097FBCD
:1044C0003EF490958095709561957F4F8F4F9F4FEB
:1044D0009923A9F0F92F96E9BB279395F69587952F
:1044E00077956795B795F111F8CFFAF4BB0F11F4F2
:1044F00060FF1BC06F5F7F4F8F4F9F4F16C0882399
:1045000011F096E911C0772321F09EE8872F762FCE
:1045100005C0662371F096E8862F70E060E02AF00F
:104520009A95660F771F881FDAF7880F96958795FB
:1045300097F90895990F0008550FAA0BE0E8FEEFD0
:1045400016161706E807F907C0F012161306E40757
:10455000F50798F0621B730B840B950B39F40A2650
:1045600061F0232B242B252B21F408950A2609F42E
:10457000A140A6958FEF811D811D08950E94D12233
:104580000C9442230E94342338F00E943B2320F0F5
:10459000952311F00C942B230C94312311240C94AB
:1045A00076230E94532370F3959FC1F3950F50E03B
:1045B000551F629FF001729FBB27F00DB11D639FD5
:1045C000AA27F00DB11DAA1F649F6627B00DA11D7B
:1045D000661F829F2227B00DA11D621F739FB00D21
:1045E000A11D621F839FA00D611D221F749F332791
:1045F000A00D611D231F849F600D211D822F762F2A
:104600006A2F11249F5750409AF0F1F088234AF006
:10461000EE0FFF1FBB1F661F771F881F9150504072
:10462000A9F79E3F510580F00C942B230C94762320
:104630005F3FE4F3983ED4F3869577956795B795F9
:10464000F795E7959F5FC1F7FE2B880F911D969513
:10465000879597F9089597F99F6780E870E060E083
:1046600008959FEF80EC089500240A94161617060B
:1046700018060906089500240A9412161306140653
:1046800005060895092E0394000C11F4882352F0B6
:10469000BB0F40F4BF2B11F460FF04C06F5F7F4F6E
:1046A0008F4F9F4F089557FD9058440F551F59F055
:1046B0005F3F71F04795880F97FB991F61F09F3F0F
:1046C00079F087950895121613061406551FF2CF38
:1046D0004695F1DF08C0161617061806991FF1CF88
:1046E00086957105610508940895E894BB276627AF
:1046F0007727CB0197F908952F923F924F925F92BF
:104700006F927F928F929F92AF92BF92CF92DF92E1
:10471000EF92FF920F931F93CF93DF93CDB7DEB746
:10472000CA1BDB0B0FB6F894DEBF0FBECDBF0994DA
:104730002A88398848885F846E847D848C849B8431
:10474000AA84B984C884DF80EE80FD800C811B813F
:10475000AA81B981CE0FD11D0FB6F894DEBF0FBE6E
:10476000CDBFED01089512E0C1ECD2E004C0FE011E
:104770000E94151D2196C23CD107C9F7F894FFCFBE
:1047800001F000060000CA0580002C041404FF0399
:10479000E503C9039A0388036E034C03000000007D
:1047A000FD087908C608A408B808440900000000FC
:1047B0004C0C7908CA09E109A109BB0952432D54DF
:1047C000686F756768747320524649442D53656E4F
:1047D000736F72200064657369676E20627920527E
:1047E000432D54686F756768747300536861726510
:1047F0006420756E646572204D49542D6C69636543
:104800006E7365206279205465726F2053616C6D00
:10481000696E656E0052656164792100557365208B
:10482000524649442D746167206E65787420746F18
:104830002073656E736F72210057726974696E67B9
:10484000206F7574206E6577206379636C652063D3
:104850006F756E740042617474657279206E616D5B
:10486000653A204E2F410049443A2000436170616F
:10487000636974793A20004379636C65733A200068
:1048800043656C6C733A2000432D56616C75653A34
:10489000200052432D54686F756768747320496E09
:1048A000666F0043005265766F2D496E666F004259
:1048B000617474657279206E616D653A2000762EA0
:1048C000312E39000D0A0020697320612074726155
:1048D000696C657220626C6F636B3A0020697320AB
:1048E00061206461746120626C6F636B3A005043B5
:1048F000445F41757468656E7469636174652829E5
:10490000206661696C65643A20004D494641524514
:104910005F57726974652829206661696C65643A1D
:104920002000626C6F636B2077617320777269740B
:1049300074656E005043445F41757468656E7469B8
:10494000636174652829206661696C65642028723A
:10495000656164293A20004D49464152455F7265C0
:1049600061642829206661696C65643A2000626C84
:0E4970006F636B2077617320726561640000D5
:00000001FF
