:100000000C94DB020C9403030C9403030C94900DEA
:100010000C946C0D0C94480D0C9403030C94030386
:100020000C9403030C9403030C9403030C94030338
:100030000C9403030C9403030C9403030C94030328
:100040000C94210C0C9403030C94140B0C94EE0AE6
:100050000C9403030C9403030C9403030C94030308
:100060000C9403030C94030307634236B79BD8A791
:100070001A39685618AEBAAB558C1D3CB7CC5763CD
:10008000BD6DEDFD753EF6177231BF000000803F7B
:1000900008000000BE922449123EABAAAA2ABECD97
:1000A000CCCC4C3E00000080BEABAAAAAA3E000009
:1000B0000000BF000000803F000000000008417801
:1000C000D3BB4387D1133D190E3CC3BD4282AD2B38
:1000D0003E68EC8276BED98FE1A93E4C80EFFFBE30
:1000E00001C4FF7F3F00000000000000000024006A
:1000F00027002A0000000008000201000003040796
:10010000000000000000000000C20100010011001A
:1001100011000C000C0000E100000A002500250081
:100120002100210000960000190039003900360036
:100130003600127A00001F004600460044004400CA
:100140008070000022004D004D004A004A00004B24
:100150000000360075007500720072004038000023
:100160004A009C009C0099009900482600007100FC
:10017000E900E900E600E600E42500007100EB007C
:10018000EA00E700E700802500007200EC00EC00C8
:10019000E900E900C0120000E900DA01DA01D70144
:1001A000D70160090000D701B603B603B303B30358
:1001B000B0040000B3036E076E076B076B075802AD
:1001C00000006E07DC0EDC0ED80ED80E2C010000ED
:1001D000DC0EC11DC11DBE1DBE1D200000432D56DD
:1001E000616C7565000043656C6C73000043796356
:1001F0006C6573006D416800436170616369747977
:100200000000494400524649442D53656E736F7295
:10021000002020524649442D426174746572790071
:1002200020524354204A65746920546F6F6C7300E8
:100230002020524649442D42617474657279002031
:10024000524354204A65746920546F6F6C73005098
:1002500072657373203C20746F2065786974005454
:100260006167205772697474656E21005265766FFC
:1002700021203C20746F20657869740049276D2027
:100280006E6F742077726974696E67004261636B88
:100290003A203C00536176653A20557020616E64C7
:1002A00020446E005365742055702B446E204E65BB
:1002B00078743E004F4646004F4E004175746F43C0
:1002C00079636C65733A20005365742055702B4434
:1002D0006E204E6578743E0043656C6C733A200066
:1002E0005365742055702F446E204E6578743E001F
:1002F000432D56616C75653A200053657420557026
:100300002F446E204E6578743E004379636C6573AC
:100310003A20005365742055702F446E204E657846
:10032000743E0043617061636974793A20005365DB
:10033000742055702F446E204E6578743E005461D1
:1003400067204944233A200020433A002043656C4B
:100350003A002043793A004361703A00233A002082
:1003600020524649442D42617474657279002052CE
:100370004354204A65746920546F6F6C73004120A8
:100380004D494641524520504943432072657370A0
:100390006F6E6465642077697468204E414B2E004F
:1003A000546865204352435F4120646F6573206E3B
:1003B0006F74206D617463682E00496E76616C699C
:1003C0006420617267756D656E742E00496E746588
:1003D000726E616C206572726F7220696E20746833
:1003E0006520636F64652E2053686F756C64206EA2
:1003F0006F742068617070656E2E004120627566B2
:10040000666572206973206E6F742062696720656B
:100410006E6F7567682E0054696D656F757420691D
:100420006E20636F6D6D756E69636174696F6E2E9A
:1004300000436F6C6C697373696F6E2064657465DB
:10044000637465642E004572726F7220696E20635A
:100450006F6D6D756E69636174696F6E2E00537593
:1004600063636573732E00556E6B6E6F776E2065D8
:1004700072726F720000000000250028002B00003F
:1004800000000023002600290004040404040404DE
:100490000402020202020203030303030301020433
:1004A00008102040800102040810200102040810F6
:1004B0002000070E091C1B1215383F363124232A51
:1004C0002D70777E796C6B6265484F464154535A64
:1004D0005DE0E7EEE9FCFBF2F5D8DFD6D1C4C3CA94
:1004E000CD90979E998C8B8285A8AFA6A1B4B3BA04
:1004F000BDC7C0C9CEDBDCD5D2FFF8F1F6E3E4ED31
:10050000EAB7B0B9BEABACA5A28F88818693949DA3
:100510009A2720292E3B3C35321F18111603040D53
:100520000A5750595E4B4C45426F68616673747D43
:100530007A898E878095929B9CB1B6BFB8ADAAA3ED
:10054000A4F9FEF7F0E5E2EBECC1C6CFC8DDDAD3E3
:10055000D4696E676075727B7C51565F584D4A4313
:1005600044191E171005020B0C21262F283D3A3383
:10057000344E49404752555C5B7671787F6A6D64B2
:10058000633E39303722252C2B0601080F1A1D1423
:1005900013AEA9A0A7B2B5BCBB9691989F8A8D84D3
:1005A00083DED9D0D7C2C5CCCBE6E1E8EFFAFDF4C3
:1005B000F300D91C8B1D11241FBECFEFD8E0DEBF86
:1005C000CDBF26E0A8E3B3E001C01D92A630B2077C
:1005D000E1F713E0A0E0B1E0ECE7F9E402C0059038
:1005E0000D92A833B107D9F712E0CAEDD2E004C0EA
:1005F0002197FE010E948522C93DD107C9F70E94BB
:10060000CA110C94B1240C940000CF92DF92FF9297
:100610000F931F93CF93DF931F92CDB7DEB7082FB1
:10062000162F60E08091D00579830E946F0B82E1E4
:100630000E94B40DF12EC12E7981D72E8C2D8F19E9
:10064000801730F4F60181916F010E94B40DF6CF4E
:1006500061E08091D0050F90DF91CF911F910F91B4
:10066000FF90DF90CF900C946F0B8091D503909109
:10067000D6038F599540A1F08091BC058E7F809361
:10068000BC058FB7F8941092D4031092D3032FE9CE
:1006900035E03093D6032093D5038FBF81E00895D2
:1006A00080E008952F923F924F925F926F927F92D7
:1006B0008F929F92AF92BF92CF92DF92EF92FF9272
:1006C0000F931F93CF93DF9300D000D0CDB7DEB749
:1006D0002B013C0120E030E0A9010E94411E87FF70
:1006E00005C020E030E040E05FEB04C020E030E0F7
:1006F00040E05FE3C301B2010E949D1F6B017C01DA
:1007000020E030E0A901C301B2010E94411E87FF31
:1007100004C0F7FAF094F7F8F094A12CB12C8DEC0A
:10072000282E9CEC392E8CEC8B839DE39C8320E05F
:1007300030E040E251E4B1018B819C810E94A71E10
:100740004B018C01A70196010E94411E18163CF036
:10075000AFEFAA1ABA0A14010B831C83E8CF20E07A
:1007600030E0A901C301B2010E94411E87FF06C00B
:100770008DE28093C30301E010E002C000E010E0CE
:10078000A114B10439F4F801ED53FC4F80E38083E8
:100790000F5F1F4F812C912CF401E00FF11FFA83A2
:1007A000E9838A149B04B1F191014B815C81C701FB
:1007B000B6010E9409200E947B202B013C01698127
:1007C0007A816D537C4F4AE0C2010E94F91DB2014B
:1007D000550C880B990B0E94481E91014B815C813E
:1007E0000E94A71E9B01AC01C701B6010E949C1F7D
:1007F0006B017C0120E030E040E251E4B1018B81EB
:100800009C810E9409201B018B839C83BFEF8B1A64
:100810009B0AC2CFED53FC4F108283EC93E00F9004
:100820000F900F900F90DF91CF911F910F91FF903C
:10083000EF90DF90CF90BF90AF909F908F907F9080
:100840006F905F904F903F902F900895A3EAB3E090
:1008500020E040E250E15A0F21111FC0FC01349109
:100860003323D9F03C93119601965A13F5CF80E0CB
:1008700090E020E030E2DC01AD55BC4F211110C00A
:10088000FB01E80FF91FE491EE2351F05096EC9331
:1008900001968031910579F708954C9321E0E3CFDB
:1008A00050963C9321E0F4CFCF93DF93E3E9F3E05C
:1008B00001900020E9F73197E359F340C3E9D3E011
:1008C000A3EAB3E080E090E28E1718F428812C931D
:1008D00001C09C938F5F219611968031A9F7E3E8C0
:1008E000F3E001900020E9F73197E358F34080E00E
:1008F00090E020E2DC01AD55BC4F8E1738F4EC01DE
:10090000CD57DC4F388150963C9302C050962C93C3
:1009100001968031910571F7DF91CF91089500978D
:1009200069F0FC0101900020E9F73197AF01481B05
:10093000590BBC0187ED93E00C948C0880E090E0AB
:1009400008950F931F93CF93DF938C01C0E0D0E005
:10095000F801EC0FFD1F6491662371F0E091D7035D
:10096000F091D8030190F081E02D87ED93E0099597
:10097000892B11F02196ECCF88E892E00E948F0439
:100980008C0F9D1FDF91CF911F910F910895CF93F1
:10099000DF930E948F04EC0188E892E00E948F04AC
:1009A0008C0F9D1FDF91CF9108950C948F040F93AE
:1009B0001F93CF93C82F04EC15E060E0F801848505
:1009C0000E946F0B8C2F8E7780680E94B40D80E0A0
:1009D0000E94B40DC82F61E0F80184850E946F0B5E
:1009E0008C2FCF911F910F9108950F931F93CF9349
:1009F000DF93082F162FC4ECD5E060E08C850E94B1
:100A00006F0B802F8E770E94B40D812F0E94B40D42
:100A100061E08C85DF91CF911F910F910C946F0B4A
:100A2000CF93C82F0E94D704682F60688C2FCF9176
:100A30000C94F504EF92FF920F931F93CF93DF93E3
:100A40007C01C62F8A0160E082E00E94F50464E028
:100A50008AE00E94F50484E10E941005B7018C2F02
:100A60000E94050363E082E00E94F504C8E8D3E138
:100A70008AE00E94D70482FD04C02197C9F784E070
:100A80000FC060E082E00E94F50484E40E94D70475
:100A9000F801808382E40E94D704F801818381E019
:100AA000DF91CF911F910F91FF90EF9008952F92BA
:100AB0003F924F925F926F927F928F929F92AF92EE
:100AC000BF92CF92DF92EF92FF920F931F93CF933B
:100AD000DF9300D01F92CDB7DEB7982E762E2A0175
:100AE000C114D10419F0F601608101C060E0662EE6
:100AF000F0E1AF9E600C112460E082E02B830E9445
:100B0000F5046FE788E00E94F50484E10E94100577
:100B1000B2012B81822F0E940503662D8AE10E947B
:100B2000F504692D82E00E94F5048CE0981203C060
:100B30008AE10E94100590ED492E97E0592E88E039
:100B40000E94D704982F972139F480FDA2C0E1E0DC
:100B50004E1A5108A1F79DC08CE00E94D704382E90
:100B6000837109F098C00115110509F45FC0E11403
:100B7000F10409F45BC084E10E94D704982EF701C8
:100B80008081891508F489C09082992009F444C0B5
:100B900060E08091D0050E946F0B9A9482E90E94D8
:100BA000B40D202E380144244394512C862D8219F3
:100BB000891528F581111AC0AA20C1F08A2DB12CFF
:100BC000883048F49201082E01C0220F0A94EAF7F7
:100BD000B22A8F5FF5CF82E90E94B40D2B2D2095AC
:100BE000F801908192238B21892B04C082E90E9415
:100BF000B40DF3018083FFEF6F1A7F0AD7CF58013E
:100C0000A90CB11C80E00E94B40DF501808361E065
:100C10008091D0050E946F0B88E10E94D7048770F5
:100C2000B82EC114D10411F0F601808333FC37C013
:100C300001151105B1F1E114F10499F1882089F150
:100C4000F7016081613021F4F4E0BF1203C01FC0DE
:100C5000623010F488E026C0B110FCCF6250AE01C3
:100C60004F5F5F4FC8010E941A058130D9F4F70128
:100C70008081080F111DF8013297908189819813A6
:100C8000E9CF319690818A819813E4CF0AC089E038
:100C900009C084E007C082E005C085E003C083E0AE
:100CA00001C081E00F900F900F90DF91CF911F91C5
:100CB0000F91FF90EF90DF90CF90BF90AF909F90FB
:100CC0008F907F906F905F904F903F902F900895FE
:100CD0008F92AF92CF92DF92EF92FF920F931F937A
:100CE000CF93DF93CDB7DEB764970FB6F894DEBF2E
:100CF0000FBECDBF162FE62EF12CA701BC01CE01F1
:100D000001960E94872441E050E04C0F5D1F4E0D7C
:100D10005F1D612FCE0101960E941A05813011F5E9
:100D200082E18C8B1B8A22E0210F812CA12CCE0129
:100D300043966C0101967C018E010F5F1F4FA80145
:100D400060E38CE00E945705813061F48C8981302A
:100D500041F49B89943029F499819A3019F089E003
:100D600001C082E064960FB6F894DEBF0FBECDBF1F
:100D7000DF91CF911F910F91FF90EF90DF90CF9077
:100D8000AF908F9008958F92AF92CF92DF92EF92B3
:100D9000FF920F931F93CF93DF93CDB7DEB72C97BE
:100DA0000FB6F894DEBF0FBECDBF90E699838A835D
:100DB000DE011396EDE7F3E086E08E0F91919D93AF
:100DC0008E13FCCF8091C50589878091C6058A87DF
:100DD0008091C7058B878091C8058C87812CA12CB9
:100DE000C12CD12CE12CF12C00E010E02CE0AE0164
:100DF0004F5F5F4F60E18EE00E9457052C960FB663
:100E0000F894DEBF0FBECDBFDF91CF911F910F9140
:100E1000FF90EF90DF90CF90AF908F9008958F92DA
:100E20009F92AF92BF920F931F93CF93DF93CDB753
:100E3000DEB7A1970FB6F894DEBF0FBECDBF19A2E3
:100E4000423008F44AE08E010F5D1F4F842E912C32
:100E5000A12CB12CA50194010E944F22E62FB901CB
:100E6000CA0101501109EA3014F4E05D01C0E95CE7
:100E7000D801EC93232B242B252B61F7C8010E946A
:100E80008F04A1960FB6F894DEBF0FBECDBFDF91E1
:100E9000CF911F910F91BF90AF909F908F90089529
:100EA000CF92DF92EF92FF92CF93DF936B017C01A1
:100EB000E091D703F091D8030190F081E02D6DE22D
:100EC00087ED93E00995EC0166277727CB016C1934
:100ED0007D098E099F094AE00E940F078C0F9D1F14
:100EE000DF91CF91FF90EF90DF90CF900895EF9238
:100EF000FF920F931F93CF93DF9300D0CDB7DEB750
:100F00007C018C0197FF02C00D5F1F4F0360B7018A
:100F10000F2C000C880B990B23E0E216F10484F0EF
:100F200097012F5F3F4F23703327232B49F44AE06B
:100F30000E940F0781E992E00E94C70482E050C03E
:100F400097FF03C00E94500703C04AE00E940F07AA
:100F500086EA92E00E94C704802F0E94C306182FE1
:100F60008130B1F088EB92E00E94D5041150193025
:100F700048F4E12FF0E0EE0FFF1FE65FFE4F8081A7
:100F8000918102C087E694E00E94A10483E028C01A
:100F900080EA8983EA8262E0CE0101960E946806B7
:100FA000182F813031F460E18DE693E00E946806ED
:100FB000182F1130B9F084ED92E00E94D504115041
:100FC000193048F4E12FF0E0EE0FFF1FE65FFE4F0F
:100FD0008081918102C087E694E00E94A10484E0B0
:100FE00090E004C08CEE92E00E94C7040F900F9036
:100FF000DF91CF911F910F91FF90EF9008958F9205
:10100000AF92CF92DF92EF92FF920F931F93CF9305
:10101000DF9361157105F9F0FA0190819231D8F0F2
:101020007A01EB0190E398838983AB014E5F5F4FB8
:1010300062E0CE010E941A05813071F48824839405
:10104000A12CC12CD12C8E0124E0AE0160E38CE0F8
:101050000E94570501C085E0DF91CF911F910F914C
:10106000FF90EF90DF90CF90AF908F9008950F9307
:101070001F93CF93DF931F92CDB7DEB7082F282F92
:10108000392F37FF02C02D5F3F4F822F83600E94B0
:10109000C306182F8130B1F08EEF92E00E94D50484
:1010A0001150193048F4E12FF0E0EE0FFF1FE65F1A
:1010B000FE4F8081918102C087E694E00E94A104E6
:1010C00083E022C082E18983AE014F5F5F4F6BE511
:1010D00073E0802F0E94FF07182F8130B9F081E262
:1010E00093E00E94D5041150193048F4E12FF0E04C
:1010F000EE0FFF1FE65FFE4F8081918102C087E601
:1011000094E00E94A10484E090E000C00F90DF9181
:10111000CF911F910F910895CF92DF92EF92FF929E
:101120000F931F93CF93DF936C017A018B01C0E083
:10113000D0E0CE15DF0589F0D8016D918D01D60183
:10114000ED91FC910190F081E02DC6010995892B6C
:1011500011F47E0102C02196ECCFC701DF91CF913F
:101160001F910F91FF90EF90DF90CF900895FC01B9
:10117000538D448D252F30E0842F90E0821B930BFC
:10118000541710F0CF96089501970895FC01918DA2
:10119000828D981761F0828DDF01A80FB11D5D96D9
:1011A0008C91928D9F5F9F73928F90E008958FEF47
:1011B0009FEF0895FC01918D828D981731F0828DFB
:1011C000E80FF11D858D90E008958FEF9FEF089552
:1011D000FC01918D228D892F90E0805C9F4F821BB6
:1011E00091098F739927089587ED93E00E94E8088D
:1011F00021E0892B09F420E0822F0895FC01848DE1
:10120000DF01A80FB11DA35ABF4F2C91848D90E030
:1012100001968F739927848FA689B7892C93A0890B
:10122000B1898C9180648C93938D848D981306C0C2
:101230000288F389E02D80818F7D80830895EF926D
:10124000FF920F931F93CF93DF93EC0181E0888F80
:101250009B8D8C8D981305C0E889F989808185FD67
:1012600024C0F62E0B8D10E00F5F1F4F0F73112758
:10127000E02E8C8DE8120CC00FB607FCFACFE8897F
:10128000F989808185FFF5CFCE010E94FE08F1CF5C
:101290008B8DFE01E80FF11DE35AFF4FF0820B8F9B
:1012A000EA89FB898081806207C0EE89FF896083BB
:1012B000E889F98980818064808381E090E0DF9112
:1012C000CF911F910F91FF90EF900895CF93DF93EF
:1012D000EC01888D8823C9F0EA89FB89808185FD2E
:1012E00005C0A889B9898C9186FD0FC00FB607FC8F
:1012F000F5CF808185FFF2CFA889B9898C9185FFD0
:10130000EDCFCE010E94FE08E7CFDF91CF91089587
:1013100080E090E0892B29F00E94F40881110C9460
:10132000000008953FB7F8948091FD059091FE0567
:10133000A091FF05B091000626B5A89B05C02F3FE0
:1013400019F00196A11DB11D3FBFBA2FA92F982FEB
:101350008827820F911DA11DB11DBC01CD0142E066
:10136000660F771F881F991F4A95D1F70895DC01F2
:101370005196ED91FC915297908150968C91809569
:101380008923808308952091D5033091D6032817AF
:10139000390781F49091D3038091D403981751F0C9
:1013A000E091D303F0E0E852FA4F8081082E000C60
:1013B000990B08958FEF9FEF08952091D5033091F9
:1013C000D6032817390739F48FB7F8941092D4034D
:1013D0001092D3038FBF08952091D5033091D60387
:1013E0002817390769F48091D4032091D30390E042
:1013F0008096821B910960E270E00E943B22089572
:101400008FEF9FEF08952091D5033091D6032817D1
:101410003907B9F49091D3038091D4039817A1F0C0
:10142000E091D303F0E0E852FA4F80812091D3039A
:1014300030E02F5F3F4F2F7133272093D30390E08D
:1014400008958FEF9FEF08958EEF9FEF0895089511
:1014500080E090E008950E9482240F931F93CF9321
:10146000DF93EC0188819981009729F02A813B81E3
:101470002617370788F48B016F5F7F4F0E94B823D0
:10148000009761F0998388831B830A832C813D81B7
:10149000232B11F4FC01108281E001C080E0DF9178
:1014A000CF911F910F910895EF92FF920F931F9389
:1014B000CF93DF93FC01248135816115710511F40F
:1014C00080E019C041155105A9F07B01EC018A01AA
:1014D000020F131FB8010E942D0A882389F3288167
:1014E00039818C819D81B701820F931F0E949B24BB
:1014F0001D830C8381E0DF91CF911F910F91FF90AD
:10150000EF900895CF93DF93EC0188819981009744
:1015100011F00E942023198218821D821C821B82D6
:101520001A82DF91CF910895EF92FF920F931F934C
:10153000CF93DF93EC017B018A01BA010E942D0A4F
:10154000811104C0CE010E94820A07C01D830C8352
:10155000B701888199810E949B24CE01DF91CF91B0
:101560001F910F91FF90EF900895EF92FF920F93CC
:101570001F93CF93DF93CDB7DEB729970FB6F894BB
:10158000DEBF0FBECDBF8C01862FF8011182108205
:10159000138212821582148250E09E012F5F3F4F0A
:1015A0007901B90190E00E940C1EF7010190002022
:1015B000E9F73197AF014E195F09B701C8010E94E1
:1015C000940A29960FB6F894DEBF0FBECDBFDF9107
:1015D000CF911F910F91FF90EF9008951F920F925E
:1015E0000FB60F9211242F933F934F935F936F93F6
:1015F0007F938F939F93AF93BF93EF93FF9387ED69
:1016000093E00E94FE08FF91EF91BF91AF919F91EF
:101610008F917F916F915F914F913F912F910F909B
:101620000FBE0F901F9018951F920F920FB60F923A
:1016300011242F938F939F93EF93FF93E091E703F0
:10164000F091E8038081E091ED03F091EE0382FDDB
:1016500012C090818091F0038F5F8F732091F1030E
:10166000821751F0E091F003F0E0E952FC4F958FC2
:101670008093F00301C08081FF91EF919F918F9142
:101680002F910F900FBE0F901F901895833081F00F
:1016900028F4813099F08230A1F008958730A9F0C4
:1016A0008830B9F08430D1F4809180008F7D03C000
:1016B000809180008F7780938000089584B58F7724
:1016C00002C084B58F7D84BD08958091B0008F776E
:1016D00003C08091B0008F7D8093B00008951F9368
:1016E000CF93DF93282F30E0F901EC50FF4F849126
:1016F000F901E356FB4FD491F901E757FB4FC49131
:10170000CC23C9F0162F81110E94460BEC2FF0E07C
:10171000EE0FFF1FEB58FB4FA591B4918FB7F894D4
:10172000111105C09C91ED2FE095E92302C0EC91C9
:10173000ED2BEC938FBFDF91CF911F910895CF9345
:10174000DF9390E0FC01E356FB4F2491FC01E75747
:10175000FB4F8491882361F190E0880F991FFC0171
:10176000E651FF4FC591D491FC01EB58FB4FA59179
:10177000B491611109C09FB7F894888120958223A4
:101780008883EC912E230BC0623061F49FB7F894EC
:101790003881822F809583238883EC912E2B2C9384
:1017A0009FBF06C08FB7F894E8812E2B28838FBF88
:1017B000DF91CF9108958F929F92AF92BF92CF9277
:1017C000DF92EF92FF926B017C010E9492094B0124
:1017D0005C01C114D104E104F104F1F00E9492090A
:1017E000DC01CB0188199909AA09BB09883E9340FD
:1017F000A105B10570F321E0C21AD108E108F10892
:1018000088EE880E83E0981EA11CB11CC114D1047F
:10181000E104F10419F7DDCFFF90EF90DF90CF9056
:10182000BF90AF909F908F9008952FB7F8946091DC
:10183000F9057091FA058091FB059091FC052FBF89
:1018400008951F920F920FB60F9211242F933F937A
:101850008F939F93AF93BF938091F9059091FA0571
:10186000A091FB05B091FC053091F80523E0230F12
:101870002D3720F40196A11DB11D05C026E8230FC8
:101880000296A11DB11D2093F8058093F905909350
:10189000FA05A093FB05B093FC058091FD0590919E
:1018A000FE05A091FF05B09100060196A11DB11D96
:1018B0008093FD059093FE05A093FF05B09300066D
:1018C000BF91AF919F918F913F912F910F900FBE3C
:1018D0000F901F90189520E001972FEF8F3F9207F0
:1018E000D9F70895CF92DF92EF92FF920F931F9353
:1018F000CF93DF93EC01898D9A8D009729F421E035
:1019000030E03B832A8364C0FFB6F89428E030E0DF
:1019100090E081E0482F462309F09F5F880F215017
:101920003109C1F78E8D81119F5FE62E192F109519
:10193000CE010E94B709898D9A8D05960E946B0C85
:1019400088E0C82ED12C01E0802F8E2139F0E98962
:10195000FA8990818889892B808303C0CE010E94F7
:10196000B709898D9A8D0E946B0C000F81E0C81A0F
:10197000D10851F78E8D882339F0E989FA89908151
:101980008889892B808303C0CE010E94B709898D85
:101990009A8D0E946B0C10FF07C0E989FA8990812B
:1019A0008889892B808303C0CE010E94B709898D65
:1019B0009A8D0E946B0CE989FA8990818889892B1C
:1019C0008083FFBE8B8D9C8D0E946B0C81E090E02C
:1019D000DF91CF911F910F91FF90EF90DF90CF900B
:1019E0000895EF92FF920F931F93CF93DF93C091CF
:1019F000D503D091D603209709F443C08B899C89E5
:101A00000E946B0C88E0E82EF12C10E001E08D893B
:101A10009E890E946B0CEE85FF8590818D858923C0
:101A200011F0102B03C0802F80951823000F81E048
:101A3000E81AF10861F78D899E890E946B0C8F89E5
:101A4000988D0E946B0C8091D4032091D30390E079
:101A500001968F71992730E08217930779F0E09112
:101A6000D403F0E0E852FA4F10838091D40390E061
:101A700001968F7199278093D40303C08D8D816067
:101A80008D8FDF91CF911F910F91FF90EF9008956F
:101A90001F920F920FB60F9211242F933F934F93E3
:101AA0005F936F937F938F939F93AF93BF93EF93C6
:101AB000FF930E94F10CFF91EF91BF91AF919F9125
:101AC0008F917F916F915F914F913F912F910F90E7
:101AD0000FBE0F901F9018951F920F920FB60F9286
:101AE00011242F933F934F935F936F937F938F9323
:101AF0009F93AF93BF93EF93FF930E94F10CFF91DD
:101B0000EF91BF91AF919F918F917F916F915F9175
:101B10004F913F912F910F900FBE0F901F901895EE
:101B20001F920F920FB60F9211242F933F934F9352
:101B30005F936F937F938F939F93AF93BF93EF9335
:101B4000FF930E94F10CFF91EF91BF91AF919F9194
:101B50008F917F916F915F914F913F912F910F9056
:101B60000FBE0F901F9018958EBD00000DB407FE9C
:101B7000FDCF8EB50895CF93DF93C0E0D0E0809184
:101B80009E0590E0C817D907ECF4209761F0019703
:101B9000C817D90741F081E020919C0530919D053F
:101BA000C217D30709F480E0FE01E851FB4F6081C2
:101BB0008093BD058FE995E00E94720C1092BD05DF
:101BC0002196DDCFDF91CF9108952F923F924F92D2
:101BD0005F926F927F928F929F92AF92BF92CF92BD
:101BE000DF92EF92FF920F931F93CF93DF93CDB7C6
:101BF000DEB7A0970FB6F894DEBF0FBECDBF9091B1
:101C0000E6049923C9F02EE72093E80422E9209303
:101C1000E90423E22093EA049093EB0490910301FA
:101C2000992311F0915003C01092E60496E090932E
:101C3000030104E010E002C000E010E09091E6042F
:101C4000911197C19EE79093E8049FE99093E9046E
:101C50001092EA0491E29093EB0494EA9093EC04DE
:101C60009CEA9093ED0497E09093EE041092EF04B9
:101C70008111E8C080E48093EA047090E7048090CA
:101C800074049090750408E010E0612CD62CD70CF9
:101C9000ED2DF0E0E815F9050CF0C7C0DF01AA0F43
:101CA000BB1FAA53BB4FAD90BC90A114B10409F463
:101CB000B8C0D29430EFD322C8018C589B4F7C011E
:101CC000DC01AC58BF4FDC92EA54FB4FC080CC2003
:101CD00021F093E09C1590F104C0D5016D917C91A9
:101CE00030C06C2D70E080E090E00E94461E9B01A9
:101CF000AC0160E070E080E291E40E94B620F50162
:101D000020813181428153810E94A71E1B012C0139
:101D100020E030E0A9010E94B12020E030E040E066
:101D20005FE387FD05C0C201B1010E949D1F04C091
:101D3000C201B1010E949C1F0E947B20F3E0FC15B0
:101D4000B0F0F701EC58FF4F8D2D816080837F79D3
:101D5000D12C20E2C29ED02CCC2411246C297D29C8
:101D600031966083319670830D5F1F4F5AC084E0B7
:101D7000C81211C0F701EC58FF4F8D2D846080838D
:101D80003196D5018C918083319611968C91808308
:101D90003196108219C0B6E0BC15C8F0F701EC58B6
:101DA000FF4F8D2D85608083F5018281F701EB580F
:101DB000FF4F8083D50111968C91119731968083C6
:101DC00031968C918F7180830C5F1F4F2AC0B9E0D0
:101DD000CB1227C0F701EC58FF4F8D2D896080830F
:101DE000F5018381F701EB58FF4F8083D5011296EF
:101DF0008C9112973196808311968C911197319620
:101E000080838C91F801E451FB4F80838C91853461
:101E100021F08E3421F4108202C0B0E2B0830B5F57
:101E20001F4F6394E6E06E1231CF86E0870D282FB6
:101E300030E0281539051CF48093E7047BC010922C
:101E4000E70478C0E0910106F0E0EE0FFF1FEA58CA
:101E5000FB4F608171817E01F1E1EF0EF11CC70142
:101E60000E94F21DE0910106F0E0EE0FFF1FEA561E
:101E7000FB4F608171818E010F5F1F4FC8010E946F
:101E8000F21D809101068093F004F701019000207B
:101E9000E9F73197EE19FF09EE0FEE0FEE0FD801BB
:101EA0000D900020E9F71197A01BB10BA370EA2B4E
:101EB000E093F104D7012AE030E0F701019000201F
:101EC000E9F73197AF014E195F09F901EC58FF4F5F
:101ED000BD016E197F096417750738F49D91EC58A0
:101EE000FB4F90832F5F3F4FE8CFEC58FB4FA8018B
:101EF000201B310BB901640F751FD8010D90002014
:101F0000E9F71197A01BB10B7A01E01AF10AEA1662
:101F1000FB0628F4DA019D91AD019193EBCF8B0183
:101F20008F5F90E060917404709175040E943B2271
:101F3000809301068091EA049EEF900F892B809395
:101F4000EA0422E0E0E0822F90E0801791075CF441
:101F5000DC01A851BB4F8C91E827F0E0EF54FB4F18
:101F6000E4912F5FF0CFD801A851BB4FEC930F5FE6
:101F70001F4FC8018C589B4FFC01EC58FF4F2EEFB0
:101F8000208310939D0500939C05D801A751BB4F5A
:101F9000E3EAF3E020E22E0F31913D932E13FCCFC4
:101FA000FC01EB56FF4F8FEF80830E5D1F4F0093B8
:101FB0009E0581E0A0960FB6F894DEBF0FBECDBFA0
:101FC000DF91CF911F910F91FF90EF90DF90CF9015
:101FD000BF90AF909F908F907F906F905F904F9049
:101FE0003F902F900895CF93DF93FC01448155815A
:101FF0006081718187ED93E00E948C08EC0188E894
:1020000092E00E948F048C0F9D1FDF91CF91089565
:10201000CF93DF93BC0180E090E04AE00E940F077D
:10202000EC0188E892E00E948F048C0F9D1FDF91E5
:10203000CF910895CF93DF9300D0CDB7DEB78983DA
:102040001A8241E050E0BE016F5F7F4F8EEB95E05A
:102050000E94540A0F900F90DF91CF9108951F9323
:10206000CF93DF931F92CDB7DEB7182F69830E94FD
:10207000D704698160956823812F0F90DF91CF91FC
:102080001F910C94F5042F923F924F925F926F92A2
:102090007F928F929F92AF92BF92CF92DF92EF92F8
:1020A000FF920F931F93CF93DF93CDB7DEB72C979B
:1020B0000FB6F894DEBF0FBECDBF60E88CE10E9482
:1020C0002F109924939444244394512C22E0921687
:1020D00051F033E0931661F081E09812ECC083E98F
:1020E0008983B12C09C085E9898353E0B52E04C0EA
:1020F00087E9898346E0B42E312C33E0232E90E229
:1021000039121DC0E0E7EA839C818B8189279D817C
:1021100089279E8189278F83AE01485F5F4F67E0E3
:10212000CE0101960E941A05813009F0C8C01B86B5
:102130002A869E01295F3F4F390129E01EC0932D59
:1021400097709B87432D45954595459582E0840F73
:10215000292F30E1839F200D11242A8321E0911142
:1021600001C020E0280F66246394712C6C0E7D1E44
:10217000680E711C87E0841B8A87AB846A2D629588
:10218000607F6A0D8AE12C870E94F504812CCE01C4
:102190000B966C01FE013A967F0183012C85AE01FE
:1021A0004F5F5F4F60E38CE00E945705833091F5ED
:1021B0008CE10E94D70485FD7CC08F7109F480E218
:1021C000482F50E0632D330C770B641775070CF024
:1021D00072C0382ECA01019787709927242F259540
:1021E0002595259541E0420F21E0009709F420E074
:1021F000240FE1E0F0E0EC0FFD1FE20FF11D920172
:1022000002C0220F331F8A95E2F7C9019081892B02
:10221000808375CF813009F052C030E2331619F057
:1022200020E2322E6FCF8B81883819F443E023E00F
:1022300002C042E024E080E090E06B2D70E0FC0101
:10224000E60FF71FEC53FA4F542F580FA1E0B0E000
:10225000AC0FBD1FA50FB11D5C9151830196821774
:1022600070F38A85833049F58B85811126C0AE01D4
:102270004D5F5F4F61E0C3010E941A058130F9F4A0
:102280009B81F301818198131CC09C8182819813EA
:1022900018C0808182FF02C0939418CF8093CF052D
:1022A000892D880F382F390D3F5F3093C40591E099
:1022B00009C093E007C096E005C092E003C0982FE4
:1022C00001C098E081E0913009F080E02C960FB6D3
:1022D000F894DEBF0FBECDBFDF91CF911F910F915C
:1022E000FF90EF90DF90CF90BF90AF909F908F9036
:1022F0007F906F905F904F903F902F9008958F92B6
:10230000AF92CF92DF92EF92FF920F931F93CF93F2
:10231000DF9300D000D01F92CDB7DEB782E08D836F
:1023200086E28C8360E88CE10E942F1087E08B832B
:10233000812CA12CCE0103966C0102967C018E01AA
:102340000F5F1F4F21E0AE014C5F5F4F60E38CE0F9
:102350000E945705813039F48D81823019F48B81C8
:10236000882331F082E091E0833019F090E001C0E1
:1023700091E0892F0F900F900F900F900F90DF91A9
:10238000CF911F910F91FF90EF90DF90CF90AF9082
:102390008F900895CF93DF93CDB7DEB7E1970FB657
:1023A000F894DEBF0FBECDBF789484B5826084BD43
:1023B00084B5816084BD85B5826085BD85B5816049
:1023C00085BD80916E00816080936E0010928100C7
:1023D0008091810082608093810080918100816082
:1023E0008093810080918000816080938000809143
:1023F000B10084608093B1008091B00081608093CF
:10240000B00080917A00846080937A0080917A0095
:10241000826080937A0080917A00816080937A0054
:1024200080917A00806880937A001092C100E091D8
:10243000E703F091E80382E08083E091E303F09109
:10244000E4031082E091E503F091E6038FEC8083D2
:102450001092EF03E091EB03F091EC0386E08083B0
:10246000E091E903F091EA03808180618083E0914B
:10247000E903F091EA03808188608083E091E903B9
:10248000F091EA03808180688083E091E903F09114
:10249000EA0380818F7D80831FB7F8948091380391
:1024A000811127C0E3E9F4E08491E7EAF4E0949134
:1024B000E82FF0E0EE0FFF1FE651FF4FA591B4911A
:1024C000EC91E92321F461E08AE00E946F0B61E066
:1024D0008AE00E949F0B8CB580618CBD8CB58064B6
:1024E0008CBD61E08DE00E949F0B61E08BE00E945B
:1024F0009F0B809138038F5F809338031FBF61E08B
:102500008091D0050E949F0B61E08091D0050E94D0
:102510006F0B61E08091D1050E949F0B8CB58F7D80
:102520008CBD8CB5837F8CBD2091D10530E0F90145
:10253000EC50FF4F8491F901E356FB4F0491F901F0
:10254000E757FB4F1491112381F081110E94460B34
:10255000E12FF0E0EE0FFF1FE158FB4FA591B49182
:10256000EC91E02311F00C94BF1C61E08091D10547
:102570000E946F0B62E370E080E090E00E94DB0B52
:1025800060E884E50E94F50469EA86E50E94F504A6
:1025900063E088E50E94F50468EE8AE50E94F50490
:1025A00060E48AE20E94F5046DE382E20E94F50491
:1025B00088E20E94D704982F9370933029F0682FF7
:1025C000636088E20E94F5048AE892E00E94C704F2
:1025D00080E491E00E94D50482ED95E00E94F30F23
:1025E00089E591E00E94C70484E891E00E94C70455
:1025F0008AE892E00E94C70486EB91E00E94C7043B
:102600008DEB91E00E94C7048AE892E00E94C70423
:102610008FEF80937D0380937E0380937F0380936D
:10262000800380938103809382031092000161E014
:102630008DE00E949F0B61E08DE00E946F0B61E0D6
:1026400083E00E949F0B1092BB051092BA05109276
:10265000B9051092B8051092B7051092B605109200
:10266000B5051092B40588E091E020E030E0FC016F
:102670004591559165917491443E554261057105AE
:1026800009F034C04EE0429FC001439F900D1124D9
:10269000FC01E45FFE4F259134913093B305209304
:1026A000B205FC01E25FFE4F259134913093B505F0
:1026B0002093B405FC01E05FFE4F259134913093E7
:1026C000B7052093B605FC01EE5EFE4F25913491CF
:1026D0003093B9052093B805FC01EC5EFE4F85915F
:1026E00094919093BB058093BA050BC02F5F3F4F29
:1026F0000E962F30310509F0BACF1092B305109223
:10270000B2058091B6059091B705892B09F446C0B2
:102710009091AB059631E0F520916800983050F02B
:1027200031E09E3008F430E081E001C0880F3A9536
:10273000EAF701C084E0822B80936800983038F07B
:102740009E3040F0963148F4ECE6F0E008C0EDE64B
:10275000F0E005C0EBE6F0E002C0E0E0F0E0408130
:10276000983030F481E001C0880F9A95EAF70EC0E6
:10277000292F30E09E3018F42850310902C02E5025
:10278000310981E001C0880F2A95EAF7842B808304
:102790008091B8059091B9050E946B0C0E94350399
:1027A00061E172E080E292E00E94260485E092E01E
:1027B00090937704809376048AED91E09093970448
:1027C0008093960480917404909175049C012F5F0E
:1027D0003F4FF901EE0FFF1FEA58FB4F42E052E076
:1027E00051834083FC01EE0FFF1FE856FB4F41E091
:1027F00052E051834083FC01EE0FFF1FE853FB4F73
:1028000011821082F901EA54FB4F10822E5F3F4F74
:10281000F901EE0FFF1FEC58FB4F48EF51E05183D9
:102820004083FC01EE0FFF1FE656FB4F44EF51E0E3
:1028300051834083FC01EE0FFF1FE653FB4F1182D3
:102840001082FC01E854FB4F1082AC014C5F5F4FDB
:10285000FA01EE0FFF1FEC58FB4F6DEE71E0718334
:102860006083FC01EE0FFF1FE456FB4F6CEE71E03E
:1028700071836083FC01EE0FFF1FE453FB4F118255
:102880001082F901EA54FB4F10822E5F3F4FF9018D
:10289000EE0FFF1FEC58FB4F66EE71E07183608313
:1028A000FC01EE0FFF1FE256FB4F65EE71E07183F6
:1028B0006083FC01EE0FFF1FE253FB4F1182108279
:1028C000FA01EA54FB4F10824E5F5F4FFA01EE0FA0
:1028D000FF1FEC58FB4F6DED71E071836083FC01CD
:1028E000EE0FFF1FE056FB4F6CED71E071836083CC
:1028F000880F991FFC01E053FB4F11821082F901F0
:10290000EA54FB4F1082509375044093740486E59B
:1029100093E09093C9048093C8041092B70484E5AF
:1029200093E09093CB048093CA0484E08093B8042E
:1029300082E593E09093CD048093CC041092B90487
:1029400080E593E09093CF048093CE041092BA0474
:102950008EE493E09093D1048093D0041092BB0452
:1029600081E00E94E50D0E94BB0D6EE170E080E009
:1029700090E00E94DB0B809101068111F1CF60E0B5
:102980008DE00E946F0B1092570310925603109225
:102990005503109254031092530310925203109255
:1029A00051031092500310924F0310924E03109255
:1029B0004603109245031092440310924303109271
:1029C00042031092410310923E0310923D03109275
:1029D0004D0310924C03E3E6CE2ED12CF2E6AF2E3F
:1029E000B12C55245394A7E02A2E312CEE24E394E5
:1029F000F12C8E010D5E1F4F80915A03882341F107
:102A000080915903882321F10E947F110E947F1138
:102A100081111EC0109259031092580310925A034C
:102A200010925703109256031092550310925403BC
:102A300010925303109252031092510310925003BC
:102A400010924F0310924E0310924D0310924C03BC
:102A500080915A03882381F180914B03882361F18F
:102A600068E080E10E942F100E947F110E947F1178
:102A7000811122C010924B031092580310925A03F6
:102A800010924A0310924903109257031092560372
:102A90001092550310925403109253031092520354
:102AA000109251031092500310924F0310924E0354
:102AB00010924D0310924C030E94150C0E94BB0D06
:102AC0000E94150C3B014C0160E083E00E949F0BCB
:102AD00062E084E00E949F0B0E9435038FE995E03D
:102AE0000E94DD098FE995E00E94EC09892B61F4D1
:102AF0000E94150CDC01CB0186199709A809B909B8
:102B00000697A105B10570F38FE995E00E94EC09E5
:102B1000181619060CF032C28FE995E00E94030ADC
:102B200020910101309102012817390709F426C2CA
:102B30009093020180930101209147033091480353
:102B40008039910509F4FDC044F48036910509F4FB
:102B5000E2C180379105F9F011C2803D9105B1F1D4
:102B6000803E910529F0803B910509F007C29AC08B
:102B70002A30310509F402C22F5F3F4F30934803DA
:102B8000209347032930310509F0F8C1109248031A
:102B900010924703F3C12336310521F4F092480324
:102BA000E092470380914703909148038236910554
:102BB00029F4F0924803E0924703E0C10197909313
:102BC0004803809347030B970CF7D8C12230310597
:102BD00069F48091450390914603019690934603D2
:102BE0008093450330934803209347032091470384
:102BF000309148032330310551F480914303909183
:102C000044038C599F4F9093440380934303209136
:102C10004703309148032430310549F48091410342
:102C20009091420301969093420380934103209137
:102C30004703309148032530310549F480913F0323
:102C40009091400301969093400380933F0320911D
:102C50004703309148032630310549F480913D0304
:102C600090913E03019690933E0380933D038091A3
:102C7000470390914803079709F080C180914C0366
:102C800090914D03892B29F4F0924D03E0924C036F
:102C900004C010924D0310924C03309248032092CE
:102CA00047036CC12230310569F48091450390914E
:102CB00046030A9690934603809345033093480356
:102CC0002093470320914703309148032330310577
:102CD00051F4809143039091440388519C4F909309
:102CE00044038093430320914703309148032430E9
:102CF000310549F480914103909142030A969093E3
:102D000042038093410320914703309148032530CB
:102D1000310549F480913F03909140030A969093C6
:102D2000400380933F0320914703309148032630AE
:102D3000310509F09CCF80913D0390913E030A96A6
:102D400092CF2330310569F480914303909144037D
:102D5000C296909344038093430330934803209397
:102D600047038091470390914803089709F006C1F3
:102D7000D0924803C092470380915A03882309F4F4
:102D8000BDC080914B03882309F4B8C00E94431052
:102D9000809145039091460390936D0380936E0359
:102DA000809143039091440390936F038093700349
:102DB0008091410390914203909371038093720339
:102DC00080913D0390913E0390937303809374032D
:102DD0008CE390E00E94770780913F03909140033D
:102DE00090936D0380936E0380914C0390914D03FB
:102DF00090936F03809370038DE390E00E947707B8
:102E0000109258038CE390E00E94370880915B0396
:102E100090E0982F882720915C03822B9093570392
:102E20008093560380915D0390E0982F882720912E
:102E30005E03822B909355038093540380915F032C
:102E400090E0982F882720916003822B9093530362
:102E5000809352038091610390E0982F88272091FE
:102E60006203822B90935103809350038DE390E093
:102E70000E94370880915B0390E0982F882720916B
:102E80005C03822B90934F0380934E0320915D034C
:102E900030E0322F222740915E03242B30934D03E4
:102EA00020934C0350925A0320915803211124C0BF
:102EB00020915603309157033093460320934503E6
:102EC00020915403309155033093440320934303DE
:102ED00020915203309153033093420320934103D6
:102EE000209150033091510330933E0320933D03D2
:102EF0009093400380933F035092580380915A036C
:102F00008823E1F1809159038823C1F1B0924803ED
:102F1000A092470333C02230310541F4109246039A
:102F20001092450330934803209347038091470351
:102F300090914803039721F41092440310924303A5
:102F40008091470390914803049721F41092420323
:102F5000109241038091470390914803059721F413
:102F60001092400310923F038091470390914803D1
:102F7000069721F410923E0310923D03809147037F
:102F8000909148038A30910509F4A1C110923C0345
:102F900010923B038530910509F416C10CF0AFC0C7
:102FA0008230910509F4D2C00CF083C0009709F477
:102FB000C8C0019709F091C1109293031092830346
:102FC0006CE573E083E993E00E94E71D1092C30370
:102FD000609145037091460380E090E00E94461E98
:102FE0000E94520363EC73E083E993E00E94902413
:102FF00067E573E083E893E00E94E71D1092C30346
:10300000609143037091440380E090E00E94461E6B
:103010000E94520363EC73E083E893E00E949024E3
:1030200062E573E083E993E00E94E71D1092C30319
:10303000609141037091420380E090E00E94461E3F
:103040000E94520363EC73E083E993E00E949024B2
:103050006CE473E083E893E00E94E71D1092C303E1
:1030600060913D0370913E0380E090E00E94461E17
:103070000E94520363EC73E083E893E00E94902483
:1030800068E473E083E993E00E94E71D1092C303B4
:1030900060913F037091400380E090E00E94461EE3
:1030A0000E94520363EC73E083E993E00E94902452
:1030B0000BC18330910509F468C0049709F00DC174
:1030C00010929303109283036AE073E083E993E024
:1030D0000E94E71D1092C303609141037091420367
:1030E00080E090E00E94461E0E94520363EC73E071
:1030F00083E993E00E9490246AEF72E0E1C0883097
:10310000910509F4C4C044F48630910509F47BC0EC
:10311000079709F497C0E1C08236910509F4C4C04D
:103120008336910509F0D9C010929303109283035E
:103130006FE572E083E993E00E94E71D6FE472E0BF
:10314000BFC06FE573E08EE693E0C5C010929303B5
:10315000109283036EE373E083E993E00E94E71D1E
:103160001092C303609145037091460380E090E0A4
:103170000E94461E0E94520363EC73E083E993E0D1
:103180000E9490246EE273E09BC010929303109211
:10319000830363E273E083E993E00E94E71D1092EA
:1031A000C303609143037091440380E090E00E9468
:1031B000461E0E94520363EC73E083E993E00E9491
:1031C000902463E173E07CC0109293031092830318
:1031D00060EF72E083E993E00E94E71D1092C30361
:1031E00060913F037091400380E090E00E94461E92
:1031F0000E94520363EC73E083E993E00E94902401
:1032000060EE72E05DC0109293031092830368ED4C
:1032100072E083E993E00E94E71D1092C30360917E
:103220003D0370913E0380E090E00E94461E0E94A4
:10323000520363EC73E083E993E00E94902468EC0E
:1032400072E03EC010929303109283036BEB72E026
:1032500083E993E00E94E71D80914C0390914D0318
:10326000892B31F468EB72E083E993E00E94E71D5B
:1032700080914C0390914D03019731F464EB72E01F
:1032800083E993E00E94E71D64EA72E019C010929E
:1032900093031092830364E972E083E993E00E9450
:1032A000E71D6CE872E00CC0109293031092830348
:1032B0006CE772E083E993E00E94E71D6CE672E040
:1032C00083E893E00E94E71D0E94540406C060E377
:1032D00072E08FE392E00E9426048091390390917E
:1032E0003A03019690933A0380933903059744F08B
:1032F00081E00E94E50D10923A031092390303C059
:1033000080E00E94E50D0E94150C61E084E00E94BF
:103310009F0B70905A0371101AC00E947F1188236E
:1033200009F42AC30E944310882309F425C380911D
:10333000CF0582FD0CC0882321F0883009F430C30A
:1033400006C010924B03109258035092590380917B
:103350004C0390914D03892B09F0AEC08091490335
:1033600090914A03803F910509F092C0772009F4BB
:103370008FC080914B03882309F48AC00E944310B8
:103380008AED91E00E94C70480915203909153030B
:1033900001969093530380935203209156033091EA
:1033A000570330936D0320936E03209154033091A3
:1033B000550330936F0320937003909371038093B0
:1033C0007203809150039091510390937303809303
:1033D00074038CE390E00E94770780914E039091F4
:1033E0004F0390936D0380936E0380914C039091F3
:1033F0004D0390936F03809370038DE390E00E94E0
:10340000770786EF91E00E94C70488E092E00E946F
:10341000D50480915603909157030E9408108DE0C7
:1034200092E00E94D50480915403909155030E942C
:10343000081088E192E00E94D50480915203909197
:1034400053030E94081081E292E00E94D50480910B
:103450005003909151030E94081089E292E00E946B
:10346000D50480914E0390914F030E9408108091E3
:103470004C0390914D03892B19F483E392E002C031
:1034800081E492E00E94C7048AE892E00E94C704A7
:103490008091490390914A03813F91056CF42091FA
:1034A0005A03222349F020914B03222329F001964D
:1034B00090934A038093490380915A038111D5C0A8
:1034C00080914B03882309F4D0C08CE390E00E94E4
:1034D000370880915B0390E0982F882720915C0348
:1034E000822B909357038093560380915D0390E065
:1034F000982F882720915E03822B90935503809309
:10350000540380915F0390E0982F882720916003F7
:10351000822B90935303809352038091610390E038
:10352000982F882720916203822B909351038093D8
:1035300050038DE390E00E94370880915B0390E098
:10354000982F882720915C03822B90934F038093C0
:103550004E0380915D0390E0982F882720915E03B1
:10356000822B8230910528F490934D0380934C0375
:1035700004C010924D0310924C0380E592E00E942B
:10358000C70486EF91E00E94C70488E092E00E94A1
:10359000D50480915603909157030E9408108DE046
:1035A00092E00E94D50480915403909155030E94AB
:1035B000081088E192E00E94D50480915203909116
:1035C00053030E94081081E292E00E94D50480918A
:1035D0005003909151030E94081089E292E00E94EA
:1035E000D50480914E0390914F030E94081081E60C
:1035F00092E00E94D50480914C0390914D030E946B
:1036000008108AE892E00E94C70450925A03809101
:103610005803811128C080915603909157039093CD
:1036200046038093450380915403909155039093F2
:1036300044038093430380915203909153039093EA
:1036400042038093410380915003909151039093E2
:103650003E0380933D0380914E0390914F039093DE
:10366000400380933F035092580380915A03811185
:103670006BC180915903882309F466C182E189AB4B
:10368000AE014F5C5F4FBE016F5F7F4F81E10E94D3
:10369000FF0740E16D81CE0186960E94B50A40E1A8
:1036A0006C81CE0180960E94B50A1C8A1B8A1E8AF4
:1036B0001D8A188E1F8A6EA17FA16115710529F0E0
:1036C0004AA55BA5C8010E94940A4CA15DA168A10E
:1036D00079A1C8010E94540A811103C0C8010E9447
:1036E000820A1B8E1A8E1D8E1C8E1F8E1E8E6B895B
:1036F0007C896115710531F04F89588DCE014A964C
:103700000E94940A8B899C890E9420236E8C7F8C56
:103710006114710411F41CA615C084E068167104CC
:1037200018F054E0652E712C6A8D7B8DA301CE01BB
:103730008C960E94A224ECE2F0E0EC0FFD1FE60D57
:10374000F71D1082CE018C960E94C91D90935703DD
:103750008093560340E050E06AE872E08EEB95E01B
:103760000E94940AAE014F5C5F4FBE016F5F7F4FB6
:1037700086E10E94FF078B810E941A108C810E94B3
:103780001A108D810E941A108E810E941A108F814A
:103790000E941A1088850E941A1089850E941A10AA
:1037A0008A850E941A108B850E941A108C850E94AF
:1037B0001A10AE014F5C5F4FBE016F5F7F4F89E112
:1037C0000E94FF0789810E941A108A810E941A10A4
:1037D0008B810E941A108C810E941A108D810E9488
:1037E0001A108E810E941A1041E050E06FE173E0E0
:1037F0008EEB95E00E94540AAE014F5C5F4FBE0114
:103800006F5F7F4F84E10E94FF078C8190E0982FCB
:1038100088272B81822B90934F0380934E034AE09D
:10382000B8010E94171EF80101900020E9F73197B6
:10383000AF01401B510BB8018EEB95E00E94540A7A
:1038400041E050E06DE672E08EEB95E00E94540A94
:10385000AE014F5C5F4FBE016F5F7F4F85E10E94FD
:10386000FF078C8190E0982F88272B81822B9093E3
:103870005503809354038E8190E09093510380937D
:103880005003AE014F5C5F4FBE016F5F7F4F80E121
:103890000E94FF078B8190E0982F88272A81822B36
:1038A00090935303809352038FE692E00E94C704E3
:1038B00089E792E00E94D5048EEB95E00E94F30F19
:1038C00088E092E00E94D5048091560390915703BE
:1038D0000E9408108DE092E00E94D504809154036C
:1038E000909155030E94081088E192E00E94D5044F
:1038F00080915203909153030E94081081E292E05C
:103900000E94D50480915003909151030E940810A9
:1039100089E292E00E94D50480914E0390914F037A
:103920000E9408108AE892E00E94C70450925A034D
:103930008A8D9B8D0E94202388A199A10E9420231B
:103940008EA19FA10E942023609054037090550384
:103950008DE092E00E94D504B301770C880B990B9F
:1039600097FF03C00E94500703C04AE00E940F0760
:1039700088E892E00E948F040E9488093DC86FE0A9
:1039800082E00E94F50462E370E080E090E00E9433
:10399000DB0B82E00E94D70484FDFBCF0C94C012A5
:1039A00050924B031092590310924A03109249030C
:1039B000CECCCF92DF92EF92FF92CF93DF93E7EDE1
:1039C000F3E01382128288EEC82E83E0D82EE12C19
:1039D000F12CC482D582E682F78280E291E0918365
:1039E000808385EC90E09587848784EC90E09787CE
:1039F000868780EC90E0918B808B81EC90E0938BBC
:103A0000828B82EC90E0958B848B86EC90E0978B98
:103A1000868B118E128E138E148EE2EDF5E01182DC
:103A20001082138212821582148245E050E06BE806
:103A300072E0CF010E94940AE4ECF5E08AE084870A
:103A400085E08587EEEBF5E0118210821382128209
:103A50001582148243E050E064E072E0CF010E94DE
:103A6000940ACFE9D5E01B821A82CC82DD82EE82F5
:103A7000FF8282E391E0998388831C8A1B8A1E8AD5
:103A80001D8A188E1F8A1A8E198E1C8E1B8EECEBC7
:103A9000F5E080818E7F808361E084E00E949F0B4F
:103AA00061E084E00E946F0BE1EAF4E0E491E88BCE
:103AB000EDE8F4E0E491F0E0EE0FFF1FEB58FB4F70
:103AC000859194919A8B898B62E083E00E949F0B91
:103AD00083E08C87E0EAF4E0E491ED87ECE8F4E041
:103AE000E491F0E0EE0FFF1FE158FB4F85919491B8
:103AF0009F878E871092E6041092750410927404CA
:103B000010929E051092E704DF91CF91FF90EF9005
:103B1000DF90CF90089582E391E09093A005809389
:103B20009F052091AB05263140F5283028F02E3036
:103B300030F0ECE6F0E005C0EDE6F0E002C0EBE6C8
:103B4000F0E03081283038F481E090E001C0880F47
:103B50002A95EAF70FC0422F50E02E3018F4485053
:103B6000510902C04E50510981E090E001C0880F18
:103B70004A95EAF78095832380838091BE059091D2
:103B8000BF050E9420238091D2059091D3050C940B
:103B90002023FC0188279927E89421912032E9F31A
:103BA000293010F02E30C8F32B3241F02D3239F489
:103BB000689404C00E94041E820F911D219120531D
:103BC0002A30C0F31EF4909581959F4F0895FB0114
:103BD000DC010D900020E9F7119705900D9200206F
:103BE000E1F70895FB01DC0105900D920020E1F75B
:103BF0000895BB274A3031F4992322F4BDE2909511
:103C000081959F4F0C94181E7AE0979F902D879F67
:103C1000802D910D112408954532510520F4423034
:103C200010F00C94171EFB011082CB010895BB27E6
:103C3000FB015527AA27880F991FAA1FA41710F068
:103C4000A41B83955051B9F7A05DAA3308F0A95D74
:103C5000A193009779F7B111B1931192CB010C9414
:103C6000311EDC01FC01672F71917723E1F7329758
:103C700004C07C916D9370836291AE17BF07C8F347
:103C800008950E94831E08F481E00895E89409C015
:103C900097FB3EF490958095709561957F4F8F4F7F
:103CA0009F4F9923A9F0F92F96E9BB279395F69595
:103CB000879577956795B795F111F8CFFAF4BB0F13
:103CC00011F460FF1BC06F5F7F4F8F4F9F4F16C077
:103CD000882311F096E911C0772321F09EE8872F01
:103CE000762F05C0662371F096E8862F70E060E0BD
:103CF0002AF09A95660F771F881FDAF7880F969536
:103D0000879597F90895990F0008550FAA0BE0E8D9
:103D1000FEEF16161706E807F907C0F0121613068D
:103D2000E407F50798F0621B730B840B950B39F4CD
:103D30000A2661F0232B242B252B21F408950A2633
:103D400009F4A140A6958FEF811D811D08950E9461
:103D5000BA1E0C942B1F0E941D1F38F00E94241FB6
:103D600020F0952311F00C94141F0C941A1F1124A9
:103D70000C945F1F0E943C1F70F3959FC1F3950F39
:103D800050E0551F629FF001729FBB27F00DB11DDF
:103D9000639FAA27F00DB11DAA1F649F6627B00D6F
:103DA000A11D661F829F2227B00DA11D621F739F58
:103DB000B00DA11D621F839FA00D611D221F749F66
:103DC0003327A00D611D231F849F600D211D822FAD
:103DD000762F6A2F11249F5750409AF0F1F08823D4
:103DE0004AF0EE0FFF1FBB1F661F771F881F915001
:103DF0005040A9F79E3F510580F00C94141F0C947D
:103E00005F1F5F3FE4F3983ED4F3869577956795FF
:103E1000B795F795E7959F5FC1F7FE2B880F911D2A
:103E20009695879597F9089597F99F6780E870E0D0
:103E300060E008959FEF80EC089500240A94161620
:103E4000170618060906089500240A941216130688
:103E5000140605060895092E0394000C11F4882316
:103E600052F0BB0F40F4BF2B11F460FF04C06F5F32
:103E70007F4F8F4F9F4F089557FD9058440F551F08
:103E800059F05F3F71F04795880F97FB991F61F0DC
:103E90009F3F79F087950895121613061406551F53
:103EA000F2CF4695F1DF08C0161617061806991FBF
:103EB000F1CF86957105610508940895E894BB27B4
:103EC00066277727CB0197F908952F923F924F925B
:103ED0005F926F927F928F929F92AF92BF92CF929A
:103EE000DF92EF92FF920F931F93CF93DF93CDB7A3
:103EF000DEB7CA1BDB0B0FB6F894DEBF0FBECDBF1B
:103F000009942A88398848885F846E847D848C84EB
:103F10009B84AA84B984C884DF80EE80FD800C81F4
:103F20001B81AA81B981CE0FD11D0FB6F894DEBFD7
:103F30000FBECDBFED0108955058BB27AA270E94A0
:103F4000B41F0C942B1F0E941D1F38F00E94241FC9
:103F500020F039F49F3F19F426F40C941A1F0EF444
:103F6000E095E7FB0C94141FE92F0E943C1F58F3C7
:103F7000BA17620773078407950720F079F4A6F54E
:103F80000C945E1F0EF4E0950B2EBA2FA02D0B01A2
:103F9000B90190010C01CA01A0011124FF27591B8E
:103FA00099F0593F50F4503E68F11A16F040A22F94
:103FB000232F342F4427585FF3CF46953795279505
:103FC000A795F0405395C9F77EF41F16BA0B620B04
:103FD000730B840BBAF09150A1F0FF0FBB1F661F4B
:103FE000771F881FC2F70EC0BA0F621F731F841F8E
:103FF00048F4879577956795B795F7959E3F08F0B4
:10400000B0CF9395880F08F09927EE0F9795879575
:1040100008950E941D200C942B1F0E94241F58F00D
:104020000E941D1F40F029F45F3F29F00C94141FDB
:1040300051110C945F1F0C941A1F0E943C1F68F3CF
:104040009923B1F3552391F3951B550BBB27AA2751
:1040500062177307840738F09F5F5F4F220F331F8B
:10406000441FAA1FA9F335D00E2E3AF0E0E832D053
:1040700091505040E695001CCAF72BD0FE2F29D056
:10408000660F771F881FBB1F261737074807AB0728
:10409000B0E809F0BB0B802DBF01FF2793585F4F9D
:1040A0003AF09E3F510578F00C94141F0C945F1F5A
:1040B0005F3FE4F3983ED4F3869577956795B7957F
:1040C000F7959F5FC9F7880F911D9695879597F98A
:1040D0000895E1E0660F771F881FBB1F6217730703
:1040E0008407BA0720F0621B730B840BBA0BEE1F18
:1040F00088F7E09508950E9482206894B1110C948D
:104100005F1F08950E94441F88F09F5798F0B92FB1
:104110009927B751B0F0E1F0660F771F881F991FFC
:104120001AF0BA95C9F714C0B13091F00E945E1F21
:10413000B1E008950C945E1F672F782F8827B85F31
:1041400039F0B93FCCF3869577956795B395D9F754
:104150003EF490958095709561957F4F8F4F9F4F5E
:1041600008950E94831E08F48FEF0895FA01EE0F60
:10417000FF1F309621053105A1F16115710561F42C
:104180008038BFE39B0749F168949038810561F05E
:104190008038BFEF9B0741F099234AF5FF3FE105C7
:1041A0003105210519F1E8940894E795D901AA236E
:1041B00029F4AB2FBE2FF85FD0F310C0FF5F70F46F
:1041C000A695E0F7F73950F019F0FF3A38F49F77E9
:1041D0009F930DD00F9007FC9058089546F00C94D3
:1041E0001A1F60E070E080E89FE308954FE79F7733
:1041F0005F934F933F932F930E94B1212F913F9153
:104200004F915F910E94A71E0C940E2129F416F085
:104210000C94141F0C945E1F0C941A1F0E94441FD0
:10422000A8F39638A0F707F80F92E8942BE33AEA40
:1042300048EB5FE70E94BD1E0F920F920F924DB7A1
:104240005EB70F920E94F921E8E6F0E00E9440215B
:104250004F915F91EF91FF91E595EE1FFF1F49F0A0
:10426000FE57E0684427EE0F441FFA95E1F74195A9
:10427000550B0E9473210F9007FE0C94672108953F
:10428000DF93CF931F930F93FF92EF92DF927B0107
:104290008C01689406C0DA2EEF010E94BA1EFE015E
:1042A000E894A5912591359145915591A6F3EF019B
:1042B0000E94B41FFE019701A801DA9469F7DF900C
:1042C000EF90FF900F911F91CF91DF9108959B0187
:1042D000AC0160E070E080E89FE30C9409200C944E
:1042E000141F0C942D220E94441FD8F39923C9F364
:1042F000940F511DA3F39150504094F059F088232E
:1043000032F0660F771F881F91505040C1F79E3FD3
:1043100051052CF7880F911D9695879597F908956B
:104320005F3FACF0983E9CF0BB27869577956795EC
:10433000B79508F4B1609395C1F7BB0F58F711F426
:1043400060FFE8CF6F5F7F4F8F4F9F4FE3CF0C949D
:104350005F1F16F00C942D220C941A1F68940C9475
:10436000141F0E94441FA8F39923C1F3AEF3DF93F7
:10437000CF931F930F93FF92C92FDD2788232AF035
:104380002197660F771F881FDAF720E030E040E8BA
:104390005FEB9FE3883920F0803E38F021968F77DD
:1043A0000E949D1FE0E9F0E004C00E949D1FEDEB1C
:1043B000F0E00E9440218B01BE01EC01FB2E6F5703
:1043C00071097595771F880B990B0E94481E28E18B
:1043D00032E741E35FE30E94BA1EAF2D9801AE01C0
:1043E000FF900F911F91CF91DF910E94B41F0C9409
:1043F0002B1FFA01DC01AA0FBB1F9B01AC01BF57A9
:1044000028F4222733274427507820C0B75190F44E
:10441000AB2F0024469537952795011CA395D2F321
:10442000002071F0220F331F441FB395DAF30ED032
:104430000C949C1F61307105A0E88A07B94630F4DE
:104440009B01AC016627772788279078309621F06A
:10445000208331834283538308959F3F31F09150ED
:1044600020F4879577956795B795880F911D969558
:10447000879597F9089597FB072E16F4009407D0B7
:1044800077FD09D00E94712207FC05D03EF490957B
:1044900081959F4F0895709561957F4F0895A1E292
:1044A0001A2EAA1BBB1BFD010DC0AA1FBB1FEE1FAE
:1044B000FF1FA217B307E407F50720F0A21BB30BF9
:1044C000E40BF50B661F771F881F991F1A9469F775
:1044D00060957095809590959B01AC01BD01CF01D1
:1044E0000895AA1BBB1B51E107C0AA1FBB1FA6173B
:1044F000B70710F0A61BB70B881F991F5A95A9F78D
:1045000080959095BC01CD010895EE0FFF1F059099
:10451000F491E02D0994CF93DF938230910510F44C
:1045200082E090E0E0910406F091050620E030E0A2
:10453000C0E0D0E0309711F1408151814817590710
:10454000C0F04817590761F482819381209719F0D0
:104550009B838A832BC0909305068093040626C014
:104560002115310519F04217530718F49A01BE01BD
:10457000DF01EF010280F381E02DDCCF2115310551
:1045800009F1281B390B2430310590F412968D91D6
:104590009C9113976115710521F0FB019383828330
:1045A00004C09093050680930406FD01329644C032
:1045B000FD01E20FF31F81939193225031092D9356
:1045C0003C933AC02091020630910306232B41F41C
:1045D00020910601309107013093030620930206D3
:1045E00020910401309105012115310541F42DB7C9
:1045F0003EB74091080150910901241B350BE09111
:104600000206F0910306E217F307A0F42E1B3F0BFE
:104610002817390778F0AC014E5F5F4F2417350734
:1046200048F04E0F5F1F509303064093020681939C
:10463000919302C0E0E0F0E0CF01DF91CF910895C7
:104640000F931F93CF93DF93009709F48CC0FC0165
:10465000329713821282009104061091050601150B
:10466000110581F420813181820F931F2091020670
:10467000309103062817390779F5F0930306E09384
:10468000020671C0D80140E050E0AE17BF0750F4F9
:1046900012962D913C911397AD012115310509F129
:1046A000D901F3CF9D01DA013383228360817181C7
:1046B000860F971F8217930769F4EC0128813981CF
:1046C000260F371F2E5F3F4F318320838A819B81C6
:1046D00093838283452B29F4F0930506E093040627
:1046E00042C01396FC93EE931297ED0149915991B4
:1046F0009E01240F351FE217F30771F48081918129
:10470000840F951F029611969C938E9382819381BC
:1047100013969C938E931297E0E0F0E0D8011296E6
:104720008D919C911397009719F0F8018C01F6CFA9
:104730008D919C9198012E5F3F4F820F931F209186
:104740000206309103062817390769F4309729F4D7
:10475000109205061092040602C013821282109372
:10476000030600930206DF91CF911F910F910895E8
:10477000A0E0B0E0EEEBF3E20C94691FEC010097CF
:1047800021F4CB010E948B22B8C0FC01E60FF71F79
:104790009C0122503109E217F30708F4ACC0D9019B
:1047A0000D911C91119706171707B0F005301105F0
:1047B00008F49FC0C80104978617970708F499C0AA
:1047C00002501109061B170B019311936D937C93F3
:1047D000CF010E9420238DC05B01A01AB10A4C01B9
:1047E000800E911EA0910406B091050640E050E0B5
:1047F000E12CF12C109709F44AC0A815B905D1F5A0
:104800006D907C901197630182E0C80ED11CCA1490
:10481000DB0480F1A3014A195B096A0182E0C80E3A
:10482000D11C1296BC9012971396AC91B5E0CB16A2
:10483000D10440F0B282A38351834083D9016D93A8
:104840007C930AC00E5F1F4FC301800F911FF901B7
:1048500091838083EB2DFA2FE114F10431F0D7011D
:104860001396FC93EE93129744C0F0930506E093E1
:1048700004063FC08D919C9111974817590708F481
:10488000AC017D0112960D90BC91A02DB3CF80910B
:1048900002069091030688159905E1F4461757071B
:1048A000C8F48091040190910501009741F48DB7FF
:1048B0009EB74091080150910901841B950BE817A0
:1048C000F907C8F4F0930306E0930206F901718337
:1048D00060830FC0CB010E948B227C01009759F0AE
:1048E000A801BE010E948724CE010E942023C70197
:1048F00004C0CE0102C080E090E0CDB7DEB7EEE0AC
:104900000C94851F81E090E0F8940C94B124FB0195
:10491000DC0102C001900D9241505040D8F708953B
:10492000FB01DC010D900020E9F7119701900D9239
:104930000020E1F70895FB01DC0101900D920020B9
:10494000E1F70895FB01DC014150504048F001902F
:104950000D920020C9F701C01D9241505040E0F770
:10496000089512E0CAEDD2E004C0FE010E94852243
:0C4970002196CB3DD107C9F7F894FFCF8A
:10497C0001F000060000060680005E0446043104C7
:10498C001704FB03CC03BA03A0037E030000000052
:10499C001F098C08B7086609E808C608DA08000081
:1049AC000000720C8C08280ADD09EC09030AC30903
:1049BC0052432D54686F756768747320524649448E
:1049CC002D53656E736F72200064657369676E207A
:1049DC006279205465726F2053616C6D696E656EDF
:1049EC0020402052432D54686F75676874732032D1
:1049FC00303137004672656520616E64206F7065DA
:104A0C006E2D736F75726365202D2052656C656118
:104A1C0073656420756E646572204D49542D6C6904
:104A2C0063656E7365005265616479210055736529
:104A3C0020524649442D746167206E657874207449
:104A4C006F2073656E736F72210057726974696E93
:104A5C0067206F7574206E6577206379636C6520B1
:104A6C00636F756E740042617474657279206E6147
:104A7C006D653A204E2F410049443A200043617045
:104A8C0061636974793A20004379636C65733A20E9
:104A9C000043656C6C733A2000432D56616C756550
:104AAC003A20004175746F4379636C653A204F4E20
:104ABC00004175746F4379636C653A204F4646002C
:104ACC0052432D54686F756768747320496E666F16
:104ADC00004175746F6379636C653A200043005232
:104AEC0065766F2D496E666F0042617474657279DC
:104AFC00206E616D653A20000D0A00762E322E3341
:104B0C0000206973206120747261696C6572206287
:104B1C006C6F636B3A00206973206120646174616F
:104B2C0020626C6F636B3A005043445F417574684C
:104B3C00656E7469636174652829206661696C65AA
:104B4C00643A20004D49464152455F57726974657D
:104B5C002829206661696C65643A2000626C6F6379
:104B6C006B20776173207772697474656E005043A3
:104B7C00445F41757468656E746963617465282956
:104B8C00206661696C6564202872656164293A202D
:104B9C00004D49464152455F726561642829206683
:084BAC0061696C65643A2000A8
:00000001FF
