:100000000C94C2020C94EA020C94EA020C946A0D5D
:100010000C94460D0C94220D0C94EA020C94EA0206
:100020000C94EA020C94EA020C94EA020C94EA02A0
:100030000C94EA020C94EA020C94EA020C94EA0290
:100040000C94FB0B0C94EA020C94EE0A0C94C80A74
:100050000C94EA020C94EA020C94EA020C94EA0270
:100060000C94EA020C94EA0207634236B79BD8A7C5
:100070001A39685618AEBAAB558C1D3CB7CC5763CD
:10008000BD6DEDFD753EF6177231BF000000803F7B
:1000900008000000BE922449123EABAAAA2ABECD97
:1000A000CCCC4C3E00000080BEABAAAAAA3E000009
:1000B0000000BF000000803F000000000008417801
:1000C000D3BB4387D1133D190E3CC3BD4282AD2B38
:1000D0003E68EC8276BED98FE1A93E4C80EFFFBE30
:1000E00001C4FF7F3F00000000000000000024006A
:1000F00027002A0000000008000201000003040796
:10010000000000000000000000C201000100050026
:1001100005000300030000E1000001000F000F00D4
:100120000D000D0000960000020019001A001700D3
:100130001700127A00000700200021001D001D009A
:10014000807000000B002300230020002000004BE3
:10015000000014003700370034003400403800003D
:100160001E004B004B0048004800E4250000310011
:10017000700071006E006E00802500003200720079
:10018000720070007000C01200006E00E900E9000B
:10019000E600E60060090000E500D801D801D501BD
:1001A000D501B0040000D301B403B403B103B1031B
:1001B00058020000B40367076707620762072C0153
:1001C00000006707DD0EDD0EDA0EDA0E20000043B8
:1001D0002D56616C7565000043656C6C73000043BF
:1001E00079636C6573006D41680043617061636998
:1001F00074790000494400524649442D53656E739A
:100200006F72002020524649442D42617474657219
:10021000790020524354204A65746920546F6F6CF2
:1002200073002020524649442D42617474657279EE
:100230000020524354204A65746920546F6F6C73D8
:10024000005072657373203C20746F206578697468
:1002500000546167205772697474656E210052659D
:10026000766F21203C20746F2065786974004927DF
:100270006D206E6F742077726974696E67004261D9
:10028000636B3A203C00536176653A2055702061DB
:100290006E6420446E005365742055702B446E20AC
:1002A0004E6578743E0043656C6C733A200053656C
:1002B000742055702F446E204E6578743E00432D97
:1002C00056616C75653A20005365742055702F4453
:1002D0006E204E6578743E004379636C65733A20F6
:1002E000005365742055702F446E204E6578743E1F
:1002F0000043617061636974793A2000536574202A
:1003000055702F446E204E6578743E00546167200E
:100310004944233A200020433A002043656C3A00C8
:100320002043793A004361703A00233A002020527A
:100330004649442D426174746572790020524354D9
:10034000204A65746920546F6F6C730041204D49D9
:1003500046415245205049434320726573706F6E89
:100360006465642077697468204E414B2E005468A0
:1003700065204352435F4120646F6573206E6F7444
:10038000206D617463682E00496E76616C6964202B
:10039000617267756D656E742E00496E7465726E5C
:1003A000616C206572726F7220696E2074686520BE
:1003B000636F64652E2053686F756C64206E6F7474
:1003C0002068617070656E2E0041206275666665FA
:1003D00072206973206E6F742062696720656E6F8A
:1003E0007567682E0054696D656F757420696E209D
:1003F000636F6D6D756E69636174696F6E2E004316
:100400006F6C6C697373696F6E2064657465637477
:1004100065642E004572726F7220696E20636F6D85
:100420006D756E69636174696F6E2E0053756363D9
:100430006573732E00556E6B6E6F776E20657272EA
:100440006F720000000000250028002B0000000053
:100450000023002600290004040404040404040208
:100460000202020202030303030303010204081051
:10047000204080010204081020010204081020001E
:10048000070E091C1B1215383F363124232A2D7004
:10049000777E796C6B6265484F464154535A5DE0F4
:1004A000E7EEE9FCFBF2F5D8DFD6D1C4C3CACD90A4
:1004B000979E998C8B8285A8AFA6A1B4B3BABDC70D
:1004C000C0C9CEDBDCD5D2FFF8F1F6E3E4EDEAB744
:1004D000B0B9BEABACA5A28F88818693949D9A27B4
:1004E00020292E3B3C35321F18111603040D0A57E4
:1004F00050595E4B4C45426F68616673747D7A89D2
:100500008E878095929B9CB1B6BFB8ADAAA3A4F983
:10051000FEF7F0E5E2EBECC1C6CFC8DDDAD3D46973
:100520006E676075727B7C51565F584D4A43441923
:100530001E171005020B0C21262F283D3A33344E8E
:1005400049404752555C5B7671787F6A6D64633EC3
:1005500039303722252C2B0601080F1A1D1413AE33
:10056000A9A0A7B2B5BCBB9691989F8A8D8483DE63
:10057000D9D0D7C2C5CCCBE6E1E8EFFAFDF4F30061
:10058000BA1B5D1C11241FBECFEFD8E0DEBFCDBF6C
:1005900012E0A0E0B1E0E4E1F7E402C005900D92C2
:1005A000A238B107D9F725E0A2E8B2E001C01D9258
:1005B000A834B207E1F712E0C1ECD2E004C0219701
:1005C000FE010E94DF1CC03CD107C9F70E948211C6
:1005D0000C947D230C940000CF92DF92FF920F9336
:1005E0001F93CF93DF931F92CDB7DEB7082F162F3F
:1005F00060E08091180579830E94490B82E10E9496
:100600008E0DF12EC12E7981D72E8C2D8F1980174A
:1006100030F4F60181916F010E948E0DF6CF61E0FA
:10062000809118050F90DF91CF911F910F91FF904E
:10063000DF90CF900C94490B80911D0390911E0385
:10064000875E9440A1F0809104058E7F809304051D
:100650008FB7F89410921C0310921B0327EE34E01E
:1006600030931E0320931D038FBF81E0089580E027
:1006700008952F923F924F925F926F927F928F9246
:100680009F92AF92BF92CF92DF92EF92FF920F9321
:100690001F93CF93DF9300D000D0CDB7DEB72B01EF
:1006A0003C0120E030E0A9010E94222287FF05C022
:1006B00020E030E040E05FEB04C020E030E040E0CC
:1006C0005FE3C301B2010E94E61C6B017C0120E0E4
:1006D00030E0A901C301B2010E94222287FF04C0B9
:1006E000F7FAF094F7F8F094A12CB12C8DEC282EA9
:1006F0009CEC392E8CEC8B839DE39C8320E030E0D6
:1007000040E251E4B1018B819C810E9488224B011F
:100710008C01A70196010E94222218163CF0AFEF2F
:10072000AA1ABA0A14010B831C83E8CF20E030E038
:10073000A901C301B2010E94222287FF06C08DE2F7
:1007400080930B0301E010E002C000E010E0A11470
:10075000B10439F4F801E55FFC4F80E380830F5F5B
:100760001F4F812C912CF401E00FF11FFA83E983D4
:100770008A149B04B1F191014B815C81C701B601E0
:100780000E94521D0E94C41D2B013C0169817A8187
:10079000655F7C4F4AE0C2010E94DA21B201550C2C
:1007A000880B990B0E94292291014B815C810E9448
:1007B00088229B01AC01C701B6010E94E51C6B01B8
:1007C0007C0120E030E040E251E4B1018B819C816A
:1007D0000E94521D1B018B839C83BFEF8B1A9B0AC7
:1007E000C2CFE55FFC4F10828BE093E00F900F903B
:1007F0000F900F90DF91CF911F910F91FF90EF908D
:10080000DF90CF90BF90AF909F908F907F906F9030
:100810005F904F903F902F900895ABEEB2E020E0B4
:1008200040E250E15A0F21111FC0FC0134913323E3
:10083000D9F03C93119601965A13F5CF80E090E0E1
:1008400020E030E2DC01A551BD4F211110C0FB01B9
:10085000E80FF91FE491EE2351F05096EC930196C6
:100860008031910579F708954C9321E0E3CF5096BC
:100870003C9321E0F4CFCF93DF93EBEDF2E00190D6
:100880000020E9F73197EB5DF240CBEDD2E0ABEE23
:10089000B2E080E090E28E1718F428812C9301C01A
:1008A0009C938F5F219611968031A9F7EBECF2E0D3
:1008B00001900020E9F73197EB5CF24080E090E096
:1008C00020E2DC01A551BD4F8E1738F4EC01C55371
:1008D000DD4F388150963C9302C050962C93019680
:1008E0008031910571F7DF91CF910895009769F0FC
:1008F000FC0101900020E9F73197AF01481B590B2B
:10090000BC018FE193E00C94790880E090E00895B9
:100910000F931F93CF93DF938C01C0E0D0E0F801D9
:10092000EC0FFD1F6491662371F0E0911F03F091BD
:1009300020030190F081E02D8FE193E00995892B50
:1009400011F02196ECCF88EC91E00E9476048C0F98
:100950009D1FDF91CF911F910F910895CF93DF934A
:100960000E947604EC0188EC91E00E9476048C0FE2
:100970009D1FDF91CF9108950C9476040F931F93E0
:10098000CF93C82F0CE015E060E0F80184850E9449
:10099000490B8C2F8E7780680E948E0D80E00E941C
:1009A0008E0DC82F61E0F80184850E94490B8C2FC1
:1009B000CF911F910F9108950F931F93CF93DF93C2
:1009C000082F162FCCE0D5E060E08C850E94490B03
:1009D000802F8E770E948E0D812F0E948E0D61E0F8
:1009E0008C85DF91CF911F910F910C94490BCF9380
:1009F000C82F0E94BE04682F60688C2FCF910C9482
:100A0000DC04EF92FF920F931F93CF93DF937C014F
:100A1000C62F8A0160E082E00E94DC0464E08AE084
:100A20000E94DC0484E10E94F704B7018C2F0E942D
:100A3000EC0263E082E00E94DC04C8E8D3E18AE0D3
:100A40000E94BE0482FD04C02197C9F784E00FC054
:100A500060E082E00E94DC0484E40E94BE04F801AD
:100A6000808382E40E94BE04F801818381E0DF91EB
:100A7000CF911F910F91FF90EF9008952F923F9289
:100A80004F925F926F927F928F929F92AF92BF929E
:100A9000CF92DF92EF92FF920F931F93CF93DF934A
:100AA00000D01F92CDB7DEB7982E762E2A01C11442
:100AB000D10419F0F601608101C060E0662EF0E11A
:100AC000AF9E600C112460E082E02B830E94DC0466
:100AD0006FE788E00E94DC0484E10E94F704B20121
:100AE0002B81822F0E94EC02662D8AE10E94DC0499
:100AF000692D82E00E94DC048CE0981203C08AE138
:100B00000E94F70490ED492E97E0592E88E00E944C
:100B1000BE04982F972139F480FDA2C0E1E04E1A5F
:100B20005108A1F79DC08CE00E94BE04382E83714D
:100B300009F098C00115110509F45FC0E114F10432
:100B400009F45BC084E10E94BE04982EF701808105
:100B5000891508F489C09082992009F444C060E0A6
:100B6000809118050E94490B9A9482E90E948E0D8B
:100B7000202E380144244394512C862D8219891546
:100B800028F581111AC0AA20C1F08A2DB12C883015
:100B900048F49201082E01C0220F0A94EAF7B22A03
:100BA0008F5FF5CF82E90E948E0D2B2D2095F801E5
:100BB000908192238B21892B04C082E90E948E0DA3
:100BC000F3018083FFEF6F1A7F0AD7CF5801A90C7A
:100BD000B11C80E00E948E0DF501808361E0809160
:100BE00018050E94490B88E10E94BE048770B82E48
:100BF000C114D10411F0F601808333FC37C0011514
:100C00001105B1F1E114F10499F1882089F1F7019E
:100C10006081613021F4F4E0BF1203C01FC0623074
:100C200010F488E026C0B110FCCF6250AE014F5FD7
:100C30005F4FC8010E9401058130D9F4F70180811E
:100C4000080F111DF8013297908189819813E9CF1F
:100C5000319690818A819813E4CF0AC089E009C057
:100C600084E007C082E005C085E003C083E001C0E6
:100C700081E00F900F900F90DF91CF911F910F9116
:100C8000FF90EF90DF90CF90BF90AF909F908F90AC
:100C90007F906F905F904F903F902F9008958F922C
:100CA000AF92CF92DF92EF92FF920F931F93CF9369
:100CB000DF93CDB7DEB764970FB6F894DEBF0FBEF3
:100CC000CDBF162FE62EF12CA701BC01CE01019657
:100CD0000E94802141E050E04C0F5D1F4E0D5F1DD2
:100CE000612FCE0101960E940105813011F582E14C
:100CF0008C8B1B8A22E0210F812CA12CCE014396E4
:100D00006C0101967C018E010F5F1F4FA80160E30B
:100D10008CE00E943E05813061F48C89813041F481
:100D20009B89943029F499819A3019F089E001C0A7
:100D300082E064960FB6F894DEBF0FBECDBFDF91A0
:100D4000CF911F910F91FF90EF90DF90CF90AF90D8
:100D50008F9008958F92AF92CF92DF92EF92FF9291
:100D60000F931F93CF93DF93CDB7DEB72C970FB6BA
:100D7000F894DEBF0FBECDBF90E699838A83DE0173
:100D80001396E5ECF2E086E08E0F91919D938E1321
:100D9000FCCF80910D05898780910E058A8780910F
:100DA0000F058B87809110058C87812CA12CC12C7D
:100DB000D12CE12CF12C00E010E02CE0AE014F5FD3
:100DC0005F4F60E18EE00E943E052C960FB6F894CE
:100DD000DEBF0FBECDBFDF91CF911F910F91FF906E
:100DE000EF90DF90CF90AF908F9008958F929F9269
:100DF000AF92BF920F931F93CF93DF93CDB7DEB720
:100E0000A1970FB6F894DEBF0FBECDBF19A2423036
:100E100008F44AE08E010F5D1F4F842E912CA12C07
:100E2000B12CA50194010E94A91CE62FB901CA01A9
:100E300001501109EA3014F4E05D01C0E95CD80109
:100E4000EC93232B242B252B61F7C8010E947604F9
:100E5000A1960FB6F894DEBF0FBECDBFDF91CF9144
:100E60001F910F91BF90AF909F908F900895CF9258
:100E7000DF92EF92FF92CF93DF936C01990FEE0810
:100E8000FF08F7FE1FC0E0911F03F09120030190BF
:100E9000F081E02D6DE28FE193E00995EC0166278A
:100EA0007727CB016C197D098E099F094AE00E94C2
:100EB000F6068C0F9D1FDF91CF91FF90EF90DF9092
:100EC000CF9008954AE0C701B601DF91CF91FF901E
:100ED000EF90DF90CF900C94F606EF92FF920F9375
:100EE0001F93CF93DF9300D0CDB7DEB77C01F7FC23
:100EF00003968C01036083E0E816F1047CF0C701DF
:100F0000019683709927892B49F4C7010E943707FE
:100F10008BEC91E00E94AE0482E04BC0C7010E94BE
:100F2000370780EE91E00E94AE04802F0E94AA064F
:100F3000182F8130B1F082EF91E00E94BC04115073
:100F4000193048F4E12FF0E0EE0FFF1FE65FFE4F8F
:100F50008081918102C085E394E00E94880483E04F
:100F600028C080EA8983EA8262E0CE0101960E946D
:100F70004F06182F813031F460E185EB92E00E943A
:100F80004F06182F1130B9F08EE092E00E94BC0499
:100F90001150193048F4E12FF0E0EE0FFF1FE65F2B
:100FA000FE4F8081918102C085E394E00E94880415
:100FB00084E090E004C086E292E00E94AE040F90CC
:100FC0000F90DF91CF911F910F91FF90EF900895B7
:100FD0008F92AF92CF92DF92EF92FF920F931F9377
:100FE000CF93DF9361157105F9F0FA019081923189
:100FF000D8F07A01EB0190E398838983AB014E5FCF
:101000005F4F62E0CE010E940105813071F48824B7
:101010008394A12CC12CD12C8E0124E0AE0160E37D
:101020008CE00E943E0501C085E0DF91CF911F91C9
:101030000F91FF90EF90DF90CF90AF908F90089539
:101040000F931F93CF93DF931F92CDB7DEB7082F77
:10105000282F392F37FF02C02D5F3F4F822F83602B
:101060000E94AA06182F8130B1F088E392E00E9416
:10107000BC041150193048F4E12FF0E0EE0FFF1FCF
:10108000E65FFE4F8081918102C085E394E00E947B
:10109000880483E022C082E18983AE014F5F5F4F05
:1010A00063EA72E0802F0E94E807182F8130B9F0C0
:1010B0008BE592E00E94BC041150193048F4E12FF6
:1010C000F0E0EE0FFF1FE65FFE4F8081918102C0CE
:1010D00085E394E00E94880484E090E004C082E705
:1010E00092E00E94AE040F90DF91CF911F910F917B
:1010F0000895CF92DF92EF92FF920F931F93CF93B9
:10110000DF936C017A018B01C0E0D0E0CE15DF05E2
:1011100089F0D8016D918D01D601ED91FC9101907E
:10112000F081E02DC6010995892B11F47E0102C0E2
:101130002196ECCFC701DF91CF911F910F91FF90C6
:10114000EF90DF90CF900895FC01918D828D9817DC
:1011500061F0828DDF01A80FB11D5D968C91928D9B
:101160009F5F9F73928F90E008958FEF9FEF089598
:10117000FC01918D828D981731F0828DE80FF11D61
:10118000858D90E008958FEF9FEF0895FC01918D7C
:10119000228D892F90E0805C9F4F821B91098F7375
:1011A000992708958FE193E00E94C60821E0892BDA
:1011B00009F420E0822F0895FC01848DDF01A80F3F
:1011C000B11DA35ABF4F2C91848D90E001968F736F
:1011D0009927848FA689B7892C93A089B1898C918E
:1011E00080648C93938D848D981306C00288F38954
:1011F000E02D80818F7D80830895EF92FF920F9381
:101200001F93CF93DF93EC0181E0888F9B8D8C8DB2
:10121000981305C0E889F989808185FD24C0F62EE0
:101220000B8D10E00F5F1F4F0F731127E02E8C8D79
:10123000E8120CC00FB607FCFACFE889F989808163
:1012400085FFF5CFCE010E94DC08F1CF8B8DFE012A
:10125000E80FF11DE35AFF4FF0820B8FEA89FB89FB
:101260008081806207C0EE89FF896083E889F989FF
:1012700080818064808381E090E0DF91CF911F9135
:101280000F91FF90EF900895CF93DF93EC01888D3D
:101290008823C9F0EA89FB89808185FD05C0A8897A
:1012A000B9898C9186FD0FC00FB607FCF5CF808100
:1012B00085FFF2CFA889B9898C9185FFEDCFCE014A
:1012C0000E94DC08E7CFDF91CF91089580E090E0A5
:1012D000892B29F00E94D20881110C9400000895F6
:1012E0003FB7F89480913F0590914005A09141054A
:1012F000B091420526B5A89B05C02F3F19F0019675
:10130000A11DB11D3FBFBA2FA92F982F8827820F8B
:10131000911DA11DB11DBC01CD0143E0660F771FDA
:10132000881F991F4A95D1F70895DC015196ED91D8
:10133000FC915297908150968C918095892380835F
:10134000089520911D0330911E032817390781F459
:1013500090911B0380911C03981751F0E0911B039F
:10136000F0E0E65EFA4F8081082E000C990B08959C
:101370008FEF9FEF089520911D0330911E032817D2
:10138000390739F48FB7F89410921C0310921B039D
:101390008FBF089520911D0330911E032817390730
:1013A00069F480911C0320911B0390E08096821BBE
:1013B000910960E270E00E94951C08958FEF9FEF05
:1013C000089520911D0330911E0328173907B9F4A1
:1013D00090911B0380911C039817A1F0E0911B03CF
:1013E000F0E0E65EFA4F808120911B0330E02F5F32
:1013F0003F4F2F71332720931B0390E008958FEF09
:101400009FEF08958EEF9FEF08950E947B210F9329
:101410001F93CF93DF93EC0188819981009729F086
:101420002A813B812617370788F48B016F5F7F4F36
:101430000E94B120009761F0998388831B830A83FF
:101440002C813D81232B11F4FC01108281E001C02D
:1014500080E0DF91CF911F910F910895EF92FF925D
:101460000F931F93CF93DF93FC0124813581611586
:10147000710511F480E019C041155105A9F07B01F7
:10148000EC018A01020F131FB8010E94070A88238A
:1014900089F3288139818C819D81B701820F931F47
:1014A0000E9494211D830C8381E0DF91CF911F91D5
:1014B0000F91FF90EF900895CF93DF93EC01888117
:1014C0009981009711F00E941920198218821D82BB
:1014D0001C821B821A82DF91CF910895EF92FF92B6
:1014E0000F931F93CF93DF93EC017B018A01BA0125
:1014F0000E94070A811104C0CE010E945C0A07C045
:101500001D830C83B701888199810E949421CE01AB
:10151000DF91CF911F910F91FF90EF900895EF927F
:10152000FF920F931F93CF93DF93CDB7DEB7299729
:101530000FB6F894DEBF0FBECDBF8C01862FF80129
:1015400011821082138212821582148250E09E0151
:101550002F5F3F4F7901B90190E00E94ED21F70123
:1015600001900020E9F73197AF014E195F09B701EB
:10157000C8010E946E0A29960FB6F894DEBF0FBE0E
:10158000CDBFDF91CF911F910F91FF90EF90089504
:101590001F920F920FB60F9211242F933F934F93E8
:1015A0005F936F937F938F939F93AF93BF93EF93CB
:1015B000FF938FE193E00E94DC08FF91EF91BF91D0
:1015C000AF919F918F917F916F915F914F913F91DB
:1015D0002F910F900FBE0F901F9018951F920F9292
:1015E0000FB60F9211242F938F939F93EF93FF9336
:1015F000E0912F03F09130038081E0913503F09169
:10160000360382FD12C09081809138038F5F8F7303
:1016100020913903821751F0E0913803F0E0E15E48
:10162000FC4F958F8093380301C08081FF91EF912B
:101630009F918F912F910F900FBE0F901F90189533
:10164000833081F028F4813099F08230A1F0089540
:101650008730A9F08830B9F08430D1F480918000CF
:101660008F7D03C0809180008F77809380000895E4
:1016700084B58F7702C084B58F7D84BD0895809135
:10168000B0008F7703C08091B0008F7D8093B00051
:1016900008951F93CF93DF93282F30E0F901EC508A
:1016A000FF4F8491F901E559FB4FD491F901E95AB3
:1016B000FB4FC491CC23C9F0162F81110E94200B3F
:1016C000EC2FF0E0EE0FFF1FED5BFB4FA591B49107
:1016D0008FB7F894111105C09C91ED2FE095E92387
:1016E00002C0EC91ED2BEC938FBFDF91CF911F9156
:1016F0000895CF93DF9390E0FC01E559FB4F2491CF
:10170000FC01E95AFB4F8491882361F190E0880F36
:10171000991FFC01E651FF4FC591D491FC01ED5B8F
:10172000FB4FA591B491611109C09FB7F8948881CE
:10173000209582238883EC912E230BC0623061F4C4
:101740009FB7F8943881822F809583238883EC910A
:101750002E2B2C939FBF06C08FB7F894E8812E2BB9
:1017600028838FBFDF91CF9108958F929F92AF9280
:10177000BF92CF92DF92EF92FF926B017C010E94A9
:1017800070094B015C01C114D104E104F104F1F0D2
:101790000E947009DC01CB0188199909AA09BB09CB
:1017A000883E9340A105B10570F321E0C21AD1082B
:1017B000E108F10888EE880E83E0981EA11CB11C98
:1017C000C114D104E104F10419F7DDCFFF90EF90CB
:1017D000DF90CF90BF90AF909F908F9008952FB7DC
:1017E000F89460913B0570913C0580913D05909186
:1017F0003E052FBF08951F920F920FB60F9211242E
:101800002F933F938F939F93AF93BF9380913B050B
:1018100090913C05A0913D05B0913E0530913A056F
:1018200026E0230F2D3720F40296A11DB11D05C01F
:1018300029E8230F0396A11DB11D20933A0580933B
:101840003B0590933C05A0933D05B0933E058091E8
:101850003F0590914005A0914105B0914205019648
:10186000A11DB11D80933F0590934005A0934105B4
:10187000B0934205BF91AF919F918F913F912F916E
:101880000F900FBE0F901F90189520E001972FEF3B
:101890008F3F9207D9F70895CF92DF92EF92FF9290
:1018A0000F931F93CF93DF93EC01898D9A8D00974F
:1018B00029F421E030E03B832A8364C0FFB6F8942A
:1018C00028E030E090E081E0482F462309F09F5F58
:1018D000880F21503109C1F78E8D81119F5FE62E4F
:1018E000192F1095CE010E949509898D9A8D049625
:1018F0000E94450C88E0C82ED12C01E0802F8E215B
:1019000039F0E989FA8990818889892B808303C01D
:10191000CE010E949509898D9A8D0E94450C000F79
:1019200081E0C81AD10851F78E8D882339F0E989F2
:10193000FA8990818889892B808303C0CE010E9417
:101940009509898D9A8D0E94450C10FF07C0E98981
:10195000FA8990818889892B808303C0CE010E94F7
:101960009509898D9A8D0E94450CE989FA899081A3
:101970008889892B8083FFBE8B8D9C8D0E94450CAE
:1019800081E090E0DF91CF911F910F91FF90EF9058
:10199000DF90CF900895EF92FF920F931F93CF9314
:1019A000DF93C0911D03D0911E03209709F443C01B
:1019B0008B899C890E94450C88E0E82EF12C10E070
:1019C00001E08D899E890E94450CEE85FF859081FE
:1019D0008D85892311F0102B03C0802F809518234B
:1019E000000F81E0E81AF10861F78D899E890E9455
:1019F000450C8F89988D0E94450C80911C03209185
:101A00001B0390E001968F71992730E082179307AE
:101A100079F0E0911C03F0E0E65EFA4F10838091CC
:101A20001C0390E001968F71992780931C0303C0DB
:101A30008D8D81608D8FDF91CF911F910F91FF90E0
:101A4000EF9008951F920F920FB60F9211242F93CB
:101A50003F934F935F936F937F938F939F93AF9336
:101A6000BF93EF93FF930E94CB0CFF91EF91BF9137
:101A7000AF919F918F917F916F915F914F913F9126
:101A80002F910F900FBE0F901F9018951F920F92DD
:101A90000FB60F9211242F933F934F935F936F9341
:101AA0007F938F939F93AF93BF93EF93FF930E9486
:101AB000CB0CFF91EF91BF91AF919F918F917F914F
:101AC0006F915F914F913F912F910F900FBE0F90AB
:101AD0001F9018951F920F920FB60F9211242F93FB
:101AE0003F934F935F936F937F938F939F93AF93A6
:101AF000BF93EF93FF930E94CB0CFF91EF91BF91A7
:101B0000AF919F918F917F916F915F914F913F9195
:101B10002F910F900FBE0F901F9018958EBD000053
:101B20000DB407FEFDCF8EB50895CF93DF93C0E0CF
:101B3000D0E08091E60490E0C817D907ECF4209734
:101B400061F00197C817D90741F081E02091E404C2
:101B50003091E504C217D30709F480E0FE01E05D8F
:101B6000FB4F60818093050587EE94E00E944C0C4A
:101B7000109205052196DDCFDF91CF9108952F9228
:101B80003F924F925F926F927F928F929F92AF920D
:101B9000BF92CF92DF92EF92FF920F931F93CF935A
:101BA000DF93CDB7DEB7A0970FB6F894DEBF0FBEB8
:101BB000CDBF90912E049923C9F02EE720933004D5
:101BC00022E92093310423E22093320490933304DA
:101BD00090910301992311F0915003C010922E04AB
:101BE00096E09093030104E010E002C000E010E0F2
:101BF00090912E0491118AC19EE7909330049FE941
:101C0000909331041092320495E19093330494EA56
:101C1000909334049CEA9093350498E090933604B2
:101C2000109237048111DBC080E4809332047090FD
:101C30002F048090BC039090BD0308E010E0612C5D
:101C4000D62CD70CED2DF0E0E815F9050CF0BAC054
:101C5000DF01AA0FBB1FA25FBB4FAD90BC90A114C8
:101C6000B10409F4ABC0D29430EFD322C80184543C
:101C70009C4F7C01DC01AC58BF4FDC92E250FC4F22
:101C8000C080CC2021F093E09C1590F104C0D501D8
:101C90006D917C9130C06C2D70E080E090E00E94EE
:101CA00027229B01AC0160E070E080E291E40E9499
:101CB000FF1DF50120813181428153810E948822DC
:101CC0001B012C0120E030E0A9010E94FA1D20E058
:101CD00030E040E05FE387FD05C0C201B1010E9432
:101CE000E61C04C0C201B1010E94E51C0E94C41D93
:101CF000F3E0FC15B0F0F701EC58FF4F8D2D81603B
:101D000080837F79D12C20E2C29ED02CCC24112458
:101D10006C297D2931966083319670830D5F1F4F4A
:101D20004DC035E03C1508F1F701EC58FF4F8D2D03
:101D300085608083D50112968C91129731968083AD
:101D400011968C911197319680832C912F71C80137
:101D500081549C4FB4E0FC01EC58FF4FCB1201C002
:101D6000206220830C5F1F4F29C0E9E0CE1226C0FD
:101D7000F701EC58FF4F8D2D89608083D5011396B4
:101D80008C9113973196808312968C91129731968D
:101D9000808311968C911197319680838C91F801F4
:101DA000EC5CFB4F80838C91853421F08E3421F4E0
:101DB000108202C0B0E2B0830B5F1F4F6394E6E075
:101DC0006E123ECF86E0870D282F30E028153905AA
:101DD0001CF480932F047BC010922F0478C0E091F4
:101DE0004305F0E0EE0FFF1FE254FC4F608171816C
:101DF0007E01F1E1EF0EF11CC7010E94D321E091B9
:101E00004305F0E0EE0FFF1FE252FC4F608171814D
:101E10008E010F5F1F4FC8010E94D321809143059F
:101E200080933804F70101900020E9F73197EE190B
:101E3000FF09EE0FEE0FEE0FD8010D900020E9F72D
:101E40001197A01BB10BA370EA2BE0933904D701C3
:101E50002AE030E0F70101900020E9F73197AF0167
:101E60004E195F09F901EC58FF4FBD016E197F094A
:101E70006417750738F49D91E454FC4F90832F5FED
:101E80003F4FE8CFE454FC4FA801201B310BB901B0
:101E9000640F751FD8010D900020E9F71197A01B62
:101EA000B10B7A01E01AF10AEA16FB0628F4DA010E
:101EB0009D91AD019193EBCF8B018F5F90E060918D
:101EC000BC037091BD030E94951C809343058091D3
:101ED00032049EEF900F892B8093320422E0E0E0E1
:101EE000822F90E0801791075CF4DC01A05DBB4F6E
:101EF0008C91E827F0E0E158FB4FE4912F5FF0CFA1
:101F0000D801A05DBB4FEC930F5F1F4FC8018454F5
:101F10009C4FFC01EC58FF4F2EEF20831093E504FB
:101F20000093E404D801AF5CBB4FEBEEF2E020E29B
:101F30002E0F31913D932E13FCCFFC01EB56FF4F3A
:101F40008FEF80830E5D1F4F0093E60481E0A09623
:101F50000FB6F894DEBF0FBECDBFDF91CF911F91BA
:101F60000F91FF90EF90DF90CF90BF90AF909F9038
:101F70008F907F906F905F904F903F902F9008953B
:101F8000CF93DF93BC0180E090E04AE00E94F60628
:101F9000EC0188EC91E00E9476048C0F9D1FDF918C
:101FA000CF910895CF93DF9300D0CDB7DEB789836B
:101FB0001A8241E050E0BE016F5F7F4F86E095E0FE
:101FC0000E942E0A0F900F90DF91CF9108951F93DA
:101FD000CF93DF931F92CDB7DEB7182F69830E948E
:101FE000BE04698160956823812F0F90DF91CF91A6
:101FF0001F910C94DC042F923F924F925F926F924C
:102000007F928F929F92AF92BF92CF92DF92EF9288
:10201000FF920F931F93CF93DF93CDB7DEB72C972B
:102020000FB6F894DEBF0FBECDBF60E88CE10E9412
:10203000E70F9924939444244394512C22E0921660
:1020400051F033E0931661F081E09812ECC083E91F
:102050008983B12C09C085E9898353E0B52E04C07A
:1020600087E9898346E0B42E312C33E0232E90E2B9
:1020700039121DC0E0E7EA839C818B8189279D810D
:1020800089279E8189278F83AE01485F5F4F67E074
:10209000CE0101960E940105813009F0C8C01B865F
:1020A0002A869E01295F3F4F390129E01EC0932DEA
:1020B00097709B87432D45954595459582E0840F04
:1020C000292F30E1839F200D11242A8321E09111D3
:1020D00001C020E0280F66246394712C6C0E7D1ED5
:1020E000680E711C87E0841B8A87AB846A2D629519
:1020F000607F6A0D8AE12C870E94DC04812CCE016E
:102100000B966C01FE013A967F0183012C85AE018E
:102110004F5F5F4F60E38CE00E943E05833091F596
:102120008CE10E94BE0485FD7CC08F7109F480E2C1
:10213000482F50E0632D330C770B641775070CF0B4
:1021400072C0382ECA01019787709927242F2595D0
:102150002595259541E0420F21E0009709F420E004
:10216000240FE1E0F0E0EC0FFD1FE20FF11D920102
:1021700002C0220F331F8A95E2F7C9019081892B93
:10218000808375CF813009F052C030E2331619F0E8
:1021900020E2322E6FCF8B81883819F443E023E0A0
:1021A00002C042E024E080E090E06B2D70E0FC0192
:1021B000E60FF71FE45FFA4F542F580FA1E0B0E08D
:1021C000AC0FBD1FA50FB11D5C9151830196821705
:1021D00070F38A85833049F58B85811126C0AE0165
:1021E0004D5F5F4F61E0C3010E9401058130F9F44A
:1021F0009B81F301818198131CC09C81828198137B
:1022000018C0808182FF02C0939418CF8093170575
:10221000892D880F382F390D3F5F30930C0591E0E1
:1022200009C093E007C096E005C092E003C0982F74
:1022300001C098E081E0913009F080E02C960FB663
:10224000F894DEBF0FBECDBFDF91CF911F910F91EC
:10225000FF90EF90DF90CF90BF90AF909F908F90C6
:102260007F906F905F904F903F902F9008958F9246
:10227000AF92CF92DF92EF92FF920F931F93CF9383
:10228000DF9300D000D01F92CDB7DEB782E08D8300
:1022900086E28C8360E88CE10E94E70F87E08B8305
:1022A000812CA12CCE0103966C0102967C018E013B
:1022B0000F5F1F4F21E0AE014C5F5F4F60E38CE08A
:1022C0000E943E05813039F48D81823019F48B8172
:1022D000882331F082E091E0833019F090E001C072
:1022E00091E0892F0F900F900F900F900F90DF913A
:1022F000CF911F910F91FF90EF90DF90CF90AF9013
:102300008F900895CF93DF93CDB7DEB7E1970FB6E7
:10231000F894DEBF0FBECDBF789484B5826084BDD3
:1023200084B5816084BD85B5826085BD85B58160D9
:1023300085BD80916E00816080936E001092810057
:102340008091810082608093810080918100816012
:1023500080938100809180008160809380008091D3
:10236000B10084608093B1008091B000816080935F
:10237000B00080917A00846080937A0080917A0026
:10238000826080937A0080917A008E7F80937A00B9
:1023900080917A00806880937A001092C100E09169
:1023A0002F03F091300382E08083E0912B03F091C2
:1023B0002C031082E0912D03F0912E0387E6808399
:1023C00010923703E0913303F091340386E0808369
:1023D000E0913103F0913203808180618083E0914C
:1023E0003103F0913203808188608083E091310372
:1023F000F0913203808180688083E0913103F09115
:10240000320380818F7D80831FB7F8948091820290
:10241000811127C0E1E6F4E08491E5E7F4E09491CE
:10242000E82FF0E0EE0FFF1FE651FF4FA591B491AA
:10243000EC91E92321F461E08AE00E94490B61E01C
:102440008AE00E94790B8CB580618CBD8CB580646C
:102450008CBD61E08DE00E94790B61E08BE00E9411
:10246000790B809182028F5F809382021FBF61E0AF
:10247000809118050E94790B61E0809118050E94F7
:10248000490B61E0809119050E94790B8CB58F7D15
:102490008CBD8CB5837F8CBD2091190530E0F9018E
:1024A000EC50FF4F8491F901E559FB4F0491F9017C
:1024B000E95AFB4F1491112381F081110E94200BE6
:1024C000E12FF0E0EE0FFF1FE35BFB4FA591B4910E
:1024D000EC91E02311F00C94A91B61E080911905A7
:1024E0000E94490B62E370E080E090E00E94B50B2F
:1024F00060E884E50E94DC0469EA86E50E94DC0469
:1025000063E088E50E94DC0468EE8AE50E94DC0452
:1025100060E48AE20E94DC046DE382E20E94DC0453
:1025200088E20E94BE04982F9370933029F0682FA0
:10253000636088E20E94DC048CE391E00E94AE04B8
:102540008FEF8093C5028093C6028093C702809369
:10255000C8028093C9028093CA021092000161E010
:102560008DE00E94790B61E08DE00E94490B61E0F3
:1025700083E00E94790B10920305109202051092DD
:102580000105109200051092FF041092FE041092B3
:10259000FD041092FC0488E091E020E030E0FC01B2
:1025A0004591559165917491443E5542610571057F
:1025B00009F034C04EE0429FC001439F900D1124AA
:1025C000FC01E45FFE4F259134913093FB0420938E
:1025D000FA04FC01E25FFE4F259134913093FD0433
:1025E0002093FC04FC01E05FFE4F25913491309371
:1025F000FF042093FE04FC01EE5EFE4F2591349112
:102600003093010520930005FC01EC5EFE4F85919F
:10261000949190930305809302050BC02F5F3F4F69
:102620000E962E30310509F0BACF1092FB041092AD
:10263000FA048091FE049091FF04892B09F446C0AE
:102640009091F3049631E0F520916800983050F0B5
:1026500031E09E3008F430E081E001C0880F3A9507
:10266000EAF701C084E0822B80936800983038F04C
:102670009E3040F0963148F4ECE6F0E008C0EDE61C
:10268000F0E005C0EBE6F0E002C0E0E0F0E0408101
:10269000983030F481E001C0880F9A95EAF70EC0B7
:1026A000292F30E09E3018F42850310902C02E50F6
:1026B000310981E001C0880F2A95EAF7842B8083D5
:1026C00080910005909101050E94450C0E941C0319
:1026D00063E072E082E192E00E940D0487EF91E0F6
:1026E0009093BF038093BE038CEC91E09093DF0343
:1026F0008093DE038091BC039091BD039C012F5F0A
:102700003F4FF901EE0FFF1FE254FC4F44EF51E041
:1027100051834083FC01EE0FFF1FE052FC4F43EF5B
:1027200051E051834083FC01EE0FFF1FE05FFB4F40
:1027300011821082F901E250FC4F10822E5F3F4F50
:10274000F901EE0FFF1FE454FC4F4AEE51E05183B4
:102750004083FC01EE0FFF1FEE51FC4F46EE51E0AF
:1027600051834083FC01EE0FFF1FEE5EFB4F118291
:102770001082FC01E050FC4F1082AC014C5F5F4FB7
:10278000FA01EE0FFF1FE454FC4F6FED71E071830F
:102790006083FC01EE0FFF1FEC51FC4F6EED71E00A
:1027A00071836083FC01EE0FFF1FEC5EFB4F118213
:1027B0001082F901E250FC4F10822E5F3F4FF90169
:1027C000EE0FFF1FE454FC4F68ED71E071836083EE
:1027D000FC01EE0FFF1FEA51FC4F67ED71E07183C2
:1027E0006083FC01EE0FFF1FEA5EFB4F1182108237
:1027F000FA01E250FC4F10824E5F5F4FFA01EE0F7C
:10280000FF1FE454FC4F6FEC71E071836083FC01A7
:10281000EE0FFF1FE851FC4F6EEC71E07183608397
:10282000880F991FFC01E85EFB4F11821082F901AD
:10283000E250FC4F10825093BD034093BC038EE9DD
:1028400092E090931104809310041092FF038CE99E
:1028500092E09093130480931204109200048AE98A
:1028600092E090931504809314041092010488E977
:1028700092E090931704809316041092020486E964
:1028800092E090931904809318041092030481E05D
:102890000E94BF0D0E94950D6EE170E080E090E017
:1028A0000E94B50B809143058111F1CF60E08DE06E
:1028B0000E94490B10929F0210929E0210929D025C
:1028C00010929C0210929B0210929A02109299020E
:1028D0001092980210929702109296021092900213
:1028E00010928F0210928E0210928D0210928C0222
:1028F00010928B02109288021092870263E6C62E15
:10290000D12C72E6A72EB12C99249394EE24E39453
:10291000F12CF2E18F2E8E010D5E1F4F8091A202ED
:10292000882321F18091A102882301F10E943711AF
:102930000E94371181111AC01092A1021092A002B8
:102940001092A20210929F0210929E0210929D027B
:1029500010929C0210929B0210929A02109299027D
:102960001092980210929702109296028091A20201
:10297000882361F180919502882341F168E080E12C
:102980000E94E70F0E9437110E94371181111EC06B
:10299000109295021092A0021092A202109294023C
:1029A0001092930210929F0210929E0210929D022A
:1029B00010929C0210929B0210929A02109299021D
:1029C0001092980210929702109296020E94EF0BBA
:1029D0000E94950D0E94EF0B2B013C0160E083E00B
:1029E0000E94790B62E084E00E94790B0E941C0334
:1029F00087EE94E00E94BB0987EE94E00E94CA092A
:102A0000892B61F40E94EF0BDC01CB01841995093D
:102A1000A609B7090697A105B10570F387EE94E002
:102A20000E94CA09181619060CF005C287EE94E038
:102A30000E94E10920910101309102012817390714
:102A400009F4F9C190930201809301012091910250
:102A5000309192028039910509F4E4C044F4803643
:102A6000910509F4B5C180379105F9F0E4C1803DC5
:102A70009105B1F1803E910529F0803B910509F067
:102A8000DAC17DC02930310509F4D5C12F5F3F4F30
:102A900030939202209391022830310509F0CBC186
:102AA0001092920210929102C6C12336310521F490
:102AB000F0929202E09291028091910290919202A2
:102AC0008236910529F4F0929202E0929102B3C10C
:102AD000019790939202809391020A970CF7ABC1F1
:102AE0002230310569F480918F0290919002019615
:102AF0009093900280938F023093920220939102E0
:102B000020919102309192022330310551F480914D
:102B10008D0290918E028C599F4F90938E028093DC
:102B20008D0220919102309192022430310549F4B6
:102B300080918B0290918C02019690938C028093ED
:102B40008B0220919102309192022530310549F497
:102B50008091890290918A02019690938A028093D3
:102B6000890220919102309192022630310509F0BC
:102B700062C1809187029091880201964EC02230F6
:102B8000310569F480918F02909190020A9690939A
:102B9000900280938F0230939202209391022091B1
:102BA0009102309192022330310551F480918D02CF
:102BB00090918E0288519C4F90938E0280938D024B
:102BC00020919102309192022430310549F4809194
:102BD0008B0290918C020A9690938C0280938B02C8
:102BE00020919102309192022530310549F4809173
:102BF000890290918A020A9690938A0280938902B0
:102C000020919102309192022630310509F013C1D2
:102C100080918702909188020A969093880280930F
:102C2000870209C12330310569F480918D029091AA
:102C30008E02C29690938E0280938D023093920200
:102C4000209391028091910290919202079709F04E
:102C5000F2C0D0929202C09291028091A202882387
:102C600009F4A9C080919502882309F4A4C00E94A8
:102C7000FB0F80918F02909190029093B502809308
:102C8000B60280918D0290918E029093B70280934C
:102C9000B80280918B0290918C029093B90280933C
:102CA000BA0280918702909188029093BB02809330
:102CB000BC0284E090E00E946D07809189029091AF
:102CC0008A029093B5028093B60285E090E00E945C
:102CD0006D071092A00284E090E00E94200880918D
:102CE000A30290E0982F88272091A402822B909332
:102CF0009F0280939E028091A50290E0982F8827E2
:102D00002091A602822B90939D0280939C02809139
:102D1000A70290E0982F88272091A802822B9093F9
:102D20009B0280939A028091A90290E0982F8827B5
:102D30002091AA02822B909399028093980285E0B9
:102D400090E00E9420088091A30290E0982F8827AD
:102D50002091A402822B90939702809396029092E6
:102D6000A2022091A002211124C020919E02309144
:102D70009F023093900220938F0220919C02309109
:102D80009D0230938E0220938D0220919A02309101
:102D90009B0230938C0220938B02209198023091F9
:102DA0009902309388022093870290938A0280933D
:102DB00089029092A0028091A2028823E1F1809181
:102DC000A1028823C1F1B0929202A092910233C075
:102DD0002230310541F41092900210928F0230930C
:102DE0009202209391028091910290919202039716
:102DF00021F410928E0210928D0280919102909196
:102E00009202049721F410928C0210928B0280910E
:102E1000910290919202059721F410928A021092E9
:102E200089028091910290919202069721F410926A
:102E300088021092870220919102309192022930EB
:102E4000310509F478C1109286021092850224306F
:102E5000310509F412C1A4F52130310509F471C01E
:102E600044F4232B09F06DC16DE273E08CE393E031
:102E700066C12230310509F4E1C02330310509F083
:102E800060C11092DB021092CB0261EF72E08BED19
:102E900092E00E94C82110920B0360918D02709104
:102EA0008E0280E090E00E9427220E9439036BE0AE
:102EB00073E08BED92E00E94892161EE72E034C1F3
:102EC0002730310509F417C13CF52530310509F4E7
:102ED000F3C02630310509F034C11092DB021092A4
:102EE000CB0266EA72E08BED92E00E94C82110925C
:102EF0000B03609187027091880280E090E00E944D
:102F000027220E9439036BE073E08BED92E00E9470
:102F1000892166E972E008C12236310509F4F8C05A
:102F20002336310509F00DC11092DB021092CB025D
:102F300061E572E08BED92E00E94C82161E472E0ED
:102F4000F3C01092DB021092CB026AE273E08BEDC9
:102F500092E00E94C82110920B0360918F02709141
:102F6000900280E090E00E9427220E9439036BE0EB
:102F700073E08BED92E00E94892165E273E08BECB7
:102F800092E00E94C82110920B0360918D02709113
:102F90008E0280E090E00E9427220E9439036BE0BD
:102FA00073E08BEC92E00E94892160E273E08BED8C
:102FB00092E00E94C82110920B0360918B027091E5
:102FC0008C0280E090E00E9427220E9439036BE08F
:102FD00073E08BED92E00E9489216AE173E08BEC53
:102FE00092E00E94C82110920B03609187027091B9
:102FF000880280E090E00E9427220E9439036BE063
:1030000073E08BEC92E00E94892166E173E08BED26
:1030100092E00E94C82110920B0360918902709186
:103020008A0280E090E00E9427220E9439036BE030
:1030300073E08BED92E00E9489217AC01092DB024E
:103040001092CB026CE073E08BED92E00E94C821FD
:1030500010920B0360918F027091900280E090E0DB
:103060000E9427220E9439036BE073E08BED92E00F
:103070000E9489216CEF72E057C01092DB0210921F
:10308000CB0268ED72E08BED92E00E94C8211092B5
:103090000B0360918B0270918C0280E090E00E94A3
:1030A00027220E9439036BE073E08BED92E00E94CF
:1030B000892168EC72E038C01092DB021092CB02DA
:1030C0006EEB72E08BED92E00E94C82110920B0330
:1030D0006091890270918A0280E090E00E9427222C
:1030E0000E9439036BE073E08BED92E00E9489212E
:1030F0006EEA72E019C01092DB021092CB0266E811
:1031000072E08BED92E00E94C8216EE772E00CC085
:103110001092DB021092CB026EE672E08BED92E031
:103120000E94C8216EE572E08BEC92E00E94C821FB
:103130000E943B0406C062E272E081E392E00E94DA
:103140000D048091830290918402019690938402F1
:1031500080938302059744F081E00E94BF0D109296
:1031600084021092830203C080E00E94BF0D0E947F
:10317000EF0B61E084E00E94790B7090A202711065
:1031800025C00E943711882309F4E0C20E94FB0F7A
:10319000882309F4DBC28091170582FD17C08930AE
:1031A000A9F0A0F4813091F058F0883079F4909231
:1031B00095021092A102109294021092930206C0FE
:1031C000109295021092A0029092A1028091930217
:1031D00090919402803F910509F079C0772009F41D
:1031E00076C080919502882309F471C00E94FB0F7C
:1031F00083E491E00E94AE0480919A0290919B0238
:10320000019690939B0280939A0220919E023091A6
:103210009F023093B5022093B60220919C02309118
:103220009D023093B7022093B8029093B902809325
:10323000BA0280919802909199029093BB02809378
:10324000BC0284E090E00E946D078091960290910C
:1032500097029093B5028093B60285E090E00E94B9
:103260006D078FE591E00E94AE0481E791E00E9436
:10327000BC0480919E0290919F020E94C00F86E73D
:1032800091E00E94BC0480919C0290919D020E945A
:10329000C00F81E891E00E94BC0480919A02909155
:1032A0009B020E94C00F8AE891E00E94BC048091BA
:1032B0009802909199020E94C00F82E991E00E94C9
:1032C000BC0480919602909197020E94C00F809159
:1032D0009302909194022091A202813F91055CF4A7
:1032E000222359F030919502332329F001969093CF
:1032F0009402809393022111B3C080919502882398
:1033000009F4AEC084E090E00E9420088091A302FE
:1033100090E0982F88272091A402822B90939F02FF
:1033200080939E028091A50290E0982F882720919B
:10333000A602822B90939D0280939C028091A7020B
:1033400090E0982F88272091A802822B90939B02CF
:1033500080939A028091A90290E0982F882720916B
:10336000AA02822B909399028093980285E090E0C4
:103370000E9420088091A30290E0982F8827209136
:10338000A402822B90939702809396028CE991E09D
:103390000E94AE048FE591E00E94AE0481E791E0C7
:1033A0000E94BC0480919E0290919F020E94C00FD7
:1033B00086E791E00E94BC0480919C0290919D025E
:1033C0000E94C00F81E891E00E94BC0480919A02A3
:1033D00090919B020E94C00F8AE891E00E94BC0479
:1033E00080919802909199020E94C00F82E991E029
:1033F0000E94BC0480919602909197020E94C00F97
:103400009092A2028091A002811128C080919E0218
:1034100090919F029093900280938F0280919C02E2
:1034200090919D0290938E0280938D0280919A02DA
:1034300090919B0290938C0280938B0280919802D2
:1034400090919902909388028093870280919602CE
:103450009091970290938A02809389029092A002A1
:103460008091A202811172C18091A102882309F486
:103470006DC189AAAE014F5C5F4FBE016F5F7F4F88
:1034800081E10E94E80740E16D81CE0186960E94AD
:103490008F0A40E16C81CE0180960E948F0A1C8ABF
:1034A0001B8A1E8A1D8A188E1F8A6EA17FA1611534
:1034B000710529F04AA55BA5C8010E946E0A4CA1BE
:1034C0005DA168A179A1C8010E942E0A811103C0E3
:1034D000C8010E945C0A1B8E1A8E1D8E1C8E1F8EC8
:1034E0001E8E6B897C896115710531F04F89588D6D
:1034F000CE014A960E946E0A8B899C890E941920EF
:103500006E8C7F8C6114710411F41CA615C084E0CC
:103510006816710418F054E0652E712C6A8D7B8D4D
:10352000A301CE018C960E949B21ECE2F0E0EC0F0F
:10353000FD1FE60DF71D1082CE018C960E94AA2178
:1035400090939F0280939E0240E050E06AEC71E00D
:1035500086E095E00E946E0AAE014F5C5F4FBE01AF
:103560006F5F7F4F86E10E94E8078B810E94D20F38
:103570008C810E94D20F8D810E94D20F8E810E9479
:10358000D20F8F810E94D20F88850E94D20F898529
:103590000E94D20F8A850E94D20F8B850E94D20F83
:1035A0008C850E94D20FAE014F5C5F4FBE016F5FF2
:1035B0007F4F89E10E94E80789810E94D20F8A81AA
:1035C0000E94D20F8B810E94D20F8C810E94D20F59
:1035D0008D810E94D20F8E810E94D20F41E050E077
:1035E00069E572E086E095E00E942E0AAE014F5C2C
:1035F0005F4FBE016F5F7F4F84E10E94E8078C81BF
:1036000090E0982F88272B81822B909397028093AC
:1036100096024AE0B8010E94F821F80101900020CA
:10362000E9F73197AF01401B510BB80186E095E0F7
:103630000E942E0A41E050E06DEA71E086E095E0DC
:103640000E942E0AAE014F5C5F4FBE016F5F7F4F3D
:1036500085E10E94E8078C8190E0982F88272B81D4
:10366000822B90939D0280939C028E8190E0909398
:10367000990280939802AE014F5C5F4FBE016F5F6D
:103680007F4F80E10E94E8078B8190E0982F882788
:103690002A81822B90939B0280939A028FEA91E079
:1036A0000E94AE0489EB91E00E94BC0440910A059F
:1036B00050910B0560910605709107058FE193E02D
:1036C0000E94790888EC91E00E94760481E791E0FD
:1036D0000E94BC0480919E0290919F020E94C00FA4
:1036E00086E791E00E94BC0480919C0290919D022B
:1036F0000E94C00F81E891E00E94BC0480919A0270
:1037000090919B020E94C00F8AE891E00E94BC0445
:1037100080919802909199020E94C00F82E991E0F5
:103720000E94BC0480919602909197020E94C00F63
:103730009092A2028A8D9B8D0E94192088A199A146
:103740000E9419208EA19FA10E9419200E94660943
:10375000E5C86FE082E00E94DC0462E370E080E094
:1037600090E00E94B50B82E00E94BE0484FDFBCF76
:103770000C947812CF92DF92EF92FF92CF93DF9367
:10378000EFE1F3E01382128288EEC82E83E0D82E98
:10379000E12CF12CC482D582E682F78280E291E0AE
:1037A0009183808385EC90E09587848784EC90E01A
:1037B0009787868780EC90E0918B808B81EC90E0FE
:1037C000938B828B82EC90E0958B848B86EC90E0DF
:1037D000978B868B118E128E138E148EECE0F5E093
:1037E0008AE0848785E08587E6E0F5E01182108233
:1037F000138212821582148243E050E06DE671E07C
:10380000CF010E946E0AC7EED4E01B821A82CC82DE
:10381000DD82EE82FF8280E391E0998388831C8AB7
:103820001B8A1E8A1D8A188E1F8A1A8E198E1C8E5C
:103830001B8EE4E0F5E080818E7F808361E084E090
:103840000E94790B61E084E00E94490BEFE6F4E00E
:10385000E491E88BEBE5F4E0E491F0E0EE0FFF1F7C
:10386000ED5BFB4F859194919A8B898B62E083E0AD
:103870000E94790B83E08C87EEE6F4E0E491ED871B
:10388000EAE5F4E0E491F0E0EE0FFF1FE35BFB4FAD
:10389000859194919F878E8710922E041092BD037C
:1038A0001092BC031092E60410922F04DF91CF9186
:1038B000FF90EF90DF90CF90089580E391E0909398
:1038C000E8048093E7042091F304263140F5283082
:1038D00028F02E3030F0ECE6F0E005C0EDE6F0E048
:1038E00002C0EBE6F0E03081283038F481E090E06F
:1038F00001C0880F2A95EAF70FC0422F50E02E3002
:1039000018F44850510902C04E50510981E090E02E
:1039100001C0880F4A95EAF78095832380838091C0
:103920000605909107050C94192097FB072E16F4B5
:10393000009407D077FD09D00E94CB1C07FC05D06E
:103940003EF4909581959F4F0895709561957F4FB6
:103950000895A1E21A2EAA1BBB1BFD010DC0AA1FD0
:10396000BB1FEE1FFF1FA217B307E407F50720F0E8
:10397000A21BB30BE40BF50B661F771F881F991F63
:103980001A9469F760957095809590959B01AC01AC
:10399000BD01CF010895AA1BBB1B51E107C0AA1F9F
:1039A000BB1FA617B70710F0A61BB70B881F991FE0
:1039B0005A95A9F780959095BC01CD010895EE0F19
:1039C000FF1F0590F491E02D09945058BB27AA27BA
:1039D0000E94FD1C0C940C230E94FE2238F00E94D1
:1039E000052320F039F49F3F19F426F40C94FB22B0
:1039F0000EF4E095E7FB0C94F522E92F0E941D23BD
:103A000058F3BA17620773078407950720F079F413
:103A1000A6F50C943F230EF4E0950B2EBA2FA02DA3
:103A20000B01B90190010C01CA01A0011124FF276B
:103A3000591B99F0593F50F4503E68F11A16F04066
:103A4000A22F232F342F4427585FF3CF4695379565
:103A50002795A795F0405395C9F77EF41F16BA0B2A
:103A6000620B730B840BBAF09150A1F0FF0FBB1FD8
:103A7000661F771F881FC2F70EC0BA0F621F731F21
:103A8000841F48F4879577956795B795F7959E3F7E
:103A900008F0B0CF9395880F08F09927EE0F97950F
:103AA000879508950E94661D0C940C230E9405239F
:103AB00058F00E94FE2240F029F45F3F29F00C9458
:103AC000F52251110C9440230C94FB220E941D23DB
:103AD00068F39923B1F3552391F3951B550BBB273D
:103AE000AA2762177307840738F09F5F5F4F220F82
:103AF000331F441FAA1FA9F335D00E2E3AF0E0E879
:103B000032D091505040E695001CCAF72BD0FE2FC2
:103B100029D0660F771F881FBB1F26173707480756
:103B2000AB07B0E809F0BB0B802DBF01FF2793580E
:103B30005F4F3AF09E3F510578F00C94F5220C94BB
:103B400040235F3FE4F3983ED4F3869577956795DD
:103B5000B795F7959F5FC9F7880F911D9695879543
:103B600097F90895E1E0660F771F881FBB1F621762
:103B700073078407BA0720F0621B730B840BBA0B20
:103B8000EE1F88F7E09508950E94CB1D6894B1114F
:103B90000C94402308950E94252388F09F5798F0A5
:103BA000B92F9927B751B0F0E1F0660F771F881F42
:103BB000991F1AF0BA95C9F714C0B13091F00E945C
:103BC0003F23B1E008950C943F23672F782F882777
:103BD000B85F39F0B93FCCF3869577956795B39583
:103BE000D9F73EF490958095709561957F4F8F4FF2
:103BF0009F4F08950E94642208F48FEF0895FA0100
:103C0000EE0FFF1F309621053105A1F161157105F9
:103C100061F48038BFE39B0749F1689490388105CF
:103C200061F08038BFEF9B0741F099234AF5FF3FD1
:103C3000E1053105210519F1E8940894E795D901CA
:103C4000AA2329F4AB2FBE2FF85FD0F310C0FF5F7B
:103C500070F4A695E0F7F73950F019F0FF3A38F410
:103C60009F779F930DD00F9007FC9058089546F0D2
:103C70000C94FB2260E070E080E89FE308954FE73A
:103C80009F775F934F933F932F930E94FA1E2F913C
:103C90003F914F915F910E9488220C94571E29F406
:103CA00016F00C94F5220C943F230C94FB220E94F6
:103CB0002523A8F39638A0F707F80F92E8942BE392
:103CC0003AEA48EB5FE70E949E220F920F920F9212
:103CD0004DB75EB70F920E94421FE8E6F0E00E94E7
:103CE000891E4F915F91EF91FF91E595EE1FFF1FA8
:103CF00049F0FE57E0684427EE0F441FFA95E1F7BC
:103D00004195550B0E94BC1E0F9007FE0C94B01EEF
:103D10000895DF93CF931F930F93FF92EF92DF925B
:103D20007B018C01689406C0DA2EEF010E949B2271
:103D3000FE01E894A5912591359145915591A6F301
:103D4000EF010E94FD1CFE019701A801DA9469F7BA
:103D5000DF90EF90FF900F911F91CF91DF91089529
:103D60009B01AC0160E070E080E89FE30C94521D81
:103D70000C94F5220C94761F0E942523D8F39923E6
:103D8000C9F3940F511DA3F39150504094F059F092
:103D9000882332F0660F771F881F91505040C1F77B
:103DA0009E3F51052CF7880F911D9695879597F9A1
:103DB00008955F3FACF0983E9CF0BB2786957795C1
:103DC0006795B79508F4B1609395C1F7BB0F58F7A5
:103DD00011F460FFE8CF6F5F7F4F8F4F9F4FE3CFAE
:103DE0000C94402316F00C94761F0C94FB226894DC
:103DF0000C94F5220E942523A8F39923C1F3AEF376
:103E0000DF93CF931F930F93FF92C92FDD27882352
:103E10002AF02197660F771F881FDAF720E030E03D
:103E200040E85FEB9FE3883920F0803E38F0219630
:103E30008F770E94E61CE0E9F0E004C00E94E61CD7
:103E4000EDEBF0E00E94891E8B01BE01EC01FB2E20
:103E50006F5771097595771F880B990B0E9429225E
:103E600028E132E741E35FE30E949B22AF2D9801F6
:103E7000AE01FF900F911F91CF91DF910E94FD1C29
:103E80000C940C23FA01DC01AA0FBB1F9B01AC01AF
:103E9000BF5728F4222733274427507820C0B75132
:103EA00090F4AB2F0024469537952795011CA395D8
:103EB000D2F3002071F0220F331F441FB395DAF3C1
:103EC0000ED00C94E51C61307105A0E88A07B94654
:103ED00030F49B01AC0166277727882790783096CD
:103EE00021F0208331834283538308959F3F31F033
:103EF000915020F4879577956795B795880F911D18
:103F00009695879597F90895CF93DF938230910521
:103F100010F482E090E0E0914605F091470520E042
:103F200030E0C0E0D0E0309711F140815181481776
:103F30005907C0F04817590761F48281938120978F
:103F400019F09B838A832BC0909347058093460585
:103F500026C02115310519F04217530718F49A01AC
:103F6000BE01DF01EF010280F381E02DDCCF2115DE
:103F7000310509F1281B390B2430310590F41296D4
:103F80008D919C9113976115710521F0FB0193832D
:103F9000828304C09093470580934605FD013296C5
:103FA00044C0FD01E20FF31F819391932250310928
:103FB0002D933C933AC02091440530914505232B25
:103FC00041F420910601309107013093450520937B
:103FD000440520910401309105012115310541F47A
:103FE0002DB73EB74091080150910901241B350BB4
:103FF000E0914405F0914505E217F307A0F42E1B6C
:104000003F0B2817390778F0AC014E5F5F4F24173C
:10401000350748F04E0F5F1F509345054093440508
:104020008193919302C0E0E0F0E0CF01DF91CF9166
:1040300008950F931F93CF93DF93009709F48CC0DB
:10404000FC013297138212820091460510914705B8
:104050000115110581F420813181820F931F209178
:104060004405309145052817390779F5F093450542
:10407000E093440571C0D80140E050E0AE17BF079F
:1040800050F412962D913C911397AD0121153105F5
:1040900009F1D901F3CF9D01DA01338322836081D5
:1040A0007181860F971F8217930769F4EC012881AD
:1040B0003981260F371F2E5F3F4F318320838A813E
:1040C0009B8193838283452B29F4F0934705E093EA
:1040D000460542C01396FC93EE931297ED01499169
:1040E00059919E01240F351FE217F30771F4808167
:1040F0009181840F951F029611969C938E938281D5
:10410000938113969C938E931297E0E0F0E0D80190
:1041100012968D919C911397009719F0F8018C01DC
:10412000F6CF8D919C9198012E5F3F4F820F931F88
:1041300020914405309145052817390769F43097D7
:1041400029F4109247051092460502C0138212828C
:104150001093450500934405DF91CF911F910F9176
:104160000895A0E0B0E0E7EBF0E20C944A23EC0104
:10417000009721F4CB010E94841FB8C0FC01E60F18
:10418000F71F9C0122503109E217F30708F4ACC075
:10419000D9010D911C91119706171707B0F0053042
:1041A000110508F49FC0C80104978617970708F403
:1041B00099C002501109061B170B019311936D93BF
:1041C0007C93CF010E9419208DC05B01A01AB10A17
:1041D0004C01800E911EA0914605B091470540E02C
:1041E00050E0E12CF12C109709F44AC0A815B9054C
:1041F000D1F56D907C901197630182E0C80ED11CBF
:10420000CA14DB0480F1A3014A195B096A0182E048
:10421000C80ED11C1296BC9012971396AC91B5E0C3
:10422000CB16D10440F0B282A38351834083D901DD
:104230006D937C930AC00E5F1F4FC301800F911FC7
:10424000F90191838083EB2DFA2FE114F10431F011
:10425000D7011396FC93EE93129744C0F093470551
:10426000E09346053FC08D919C91119748175907DF
:1042700008F4AC017D0112960D90BC91A02DB3CF36
:10428000809144059091450588159905E1F44617FC
:104290005707C8F48091040190910501009741F4FB
:1042A0008DB79EB74091080150910901841B950B71
:1042B000E817F907C8F4F0934505E0934405F901C0
:1042C000718360830FC0CB010E94841F7C01009723
:1042D00059F0A801BE010E948021CE010E94192040
:1042E000C70104C0CE0102C080E090E0CDB7DEB7C8
:1042F000EEE00C94662381E090E0F8940C947D232A
:10430000FB01DC0102C001900D9241505040D8F7F2
:104310000895FB01DC010D900020E9F71197019051
:104320000D920020E1F70895FB01DC0101900D9250
:104330000020E1F70895FB01DC014150504048F0B6
:1043400001900D920020C9F701C01D9241505040CC
:10435000E0F70895FC0188279927E89421912032FD
:10436000E9F3293010F02E30C8F32B3241F02D3212
:1043700039F4689404C00E94E521820F911D2191B7
:1043800020532A30C0F31EF4909581959F4F0895D5
:10439000FB01DC010D900020E9F7119705900D92CB
:1043A0000020E1F70895FB01DC0105900D9200204B
:1043B000E1F70895BB274A3031F4992322F4BDE296
:1043C000909581959F4F0C94F9217AE0979F902DBD
:1043D000879F802D910D112408954532510520F4B9
:1043E000423010F00C94F821FB011082CB010895AB
:1043F000BB27FB015527AA27880F991FAA1FA417BF
:1044000010F0A41B83955051B9F7A05DAA3308F0B2
:10441000A95DA193009779F7B111B1931192CB01E6
:104420000C941222DC01FC01672F71917723E1F7D4
:10443000329704C07C916D9370836291AE17BF0771
:10444000C8F308950E94642208F481E00895E89476
:1044500009C097FB3EF490958095709561957F4FCC
:104460008F4F9F4F9923A9F0F92F96E9BB2793957A
:10447000F695879577956795B795F111F8CFFAF48A
:10448000BB0F11F460FF1BC06F5F7F4F8F4F9F4FBB
:1044900016C0882311F096E911C0772321F09EE819
:1044A000872F762F05C0662371F096E8862F70E07F
:1044B00060E02AF09A95660F771F881FDAF7880F59
:1044C0009695879597F90895990F0008550FAA0BAF
:1044D000E0E8FEEF16161706E807F907C0F0121617
:1044E0001306E407F50798F0621B730B840B950B1A
:1044F00039F40A2661F0232B242B252B21F408956F
:104500000A2609F4A140A6958FEF811D811D08950B
:104510000E949B220C940C230E94FE2238F00E94E1
:10452000052320F0952311F00C94F5220C94FB2226
:1045300011240C9440230E941D2370F3959FC1F316
:10454000950F50E0551F629FF001729FBB27F00D41
:10455000B11D639FAA27F00DB11DAA1F649F662796
:10456000B00DA11D661F829F2227B00DA11D621FE5
:10457000739FB00DA11D621F839FA00D611D221F9F
:10458000749F3327A00D611D231F849F600D211D83
:10459000822F762F6A2F11249F5750409AF0F1F006
:1045A00088234AF0EE0FFF1FBB1F661F771F881F6F
:1045B00091505040A9F79E3F510580F00C94F52290
:1045C0000C9440235F3FE4F3983ED4F386957795AF
:1045D0006795B795F795E7959F5FC1F7FE2B880F15
:1045E000911D9695879597F9089597F99F6780E8AB
:1045F00070E060E008959FEF80EC089500240A9435
:104600001616170618060906089500240A941216AD
:104610001306140605060895092E0394000C11F4E0
:10462000882352F0BB0F40F4BF2B11F460FF04C08D
:104630006F5F7F4F8F4F9F4F089557FD9058440FE6
:10464000551F59F05F3F71F04795880F97FB991FF1
:1046500061F09F3F79F087950895121613061406AE
:10466000551FF2CF4695F1DF08C01616170618063B
:10467000991FF1CF86957105610508940895E89416
:10468000BB2766277727CB0197F908952F923F9292
:104690004F925F926F927F928F929F92AF92BF9252
:1046A000CF92DF92EF92FF920F931F93CF93DF93FE
:1046B000CDB7DEB7CA1BDB0B0FB6F894DEBF0FBE5B
:1046C000CDBF09942A88398848885F846E847D84A8
:1046D0008C849B84AA84B984C884DF80EE80FD80AA
:1046E0000C811B81AA81B981CE0FD11D0FB6F89420
:1046F000DEBF0FBECDBFED01089512E0C1ECD2E0E8
:1047000004C0FE010E94DF1C2196C23CD107C9F7FC
:04471000F894FFCF4B
:1047140001F000060000480580002C041404FF0387
:10472400E503C9039A0388036E034C0300000000E9
:10473400FD087908C608A408B80844090000000068
:104744004C0C7908CA09E109A109BB0952656164E5
:1047540079210057726974696E67206F7574206ED1
:104764006577206379636C6520636F756E740042AE
:10477400617474657279206E616D653A204E2F41C3
:104784000049443A200043617061636974793A20B6
:10479400004379636C65733A200043656C6C733A2B
:1047A4002000432D56616C75653A200052432D5408
:1047B400686F756768747320496E666F00430052B2
:1047C40065766F2D496E666F004261747465727907
:1047D400206E616D653A20000D0A00206973206126
:1047E40020747261696C657220626C6F636B3A004D
:1047F4002069732061206461746120626C6F636B53
:104804003A005043445F41757468656E746963612E
:1048140074652829206661696C65643A20004D49F5
:10482400464152455F57726974652829206661695B
:104834006C65643A2000626C6F636B20776173204F
:104844007772697474656E005043445F417574688F
:10485400656E7469636174652829206661696C6595
:1048640064202872656164293A20004D494641520A
:10487400455F726561642829206661696C65643AE4
:104884002000626C6F636B207761732072656164D2
:02489400000022
:00000001FF
